{
  "_format": "hh-sol-artifact-1",
  "contractName": "BondfundingFacet",
  "sourceName": "contracts/facets/BondfundingFacet.sol",
  "abi": [
    {
      "anonymous": false,
      "inputs": [
        {
          "indexed": true,
          "internalType": "uint256",
          "name": "offerId",
          "type": "uint256"
        },
        {
          "indexed": false,
          "internalType": "address",
          "name": "buyerAddr",
          "type": "address"
        },
        {
          "indexed": false,
          "internalType": "uint256",
          "name": "bondTokenAmt",
          "type": "uint256"
        },
        {
          "indexed": false,
          "internalType": "address",
          "name": "tCoinAddr",
          "type": "address"
        },
        {
          "indexed": false,
          "internalType": "uint256",
          "name": "tCoinAmt",
          "type": "uint256"
        },
        {
          "indexed": false,
          "internalType": "uint256",
          "name": "btAmount",
          "type": "uint256"
        }
      ],
      "name": "BBuyOffer",
      "type": "event"
    },
    {
      "anonymous": false,
      "inputs": [
        {
          "indexed": true,
          "internalType": "uint256",
          "name": "offerId",
          "type": "uint256"
        },
        {
          "indexed": false,
          "internalType": "address",
          "name": "providerAddr",
          "type": "address"
        },
        {
          "indexed": false,
          "internalType": "uint256",
          "name": "bondTokenAmt",
          "type": "uint256"
        },
        {
          "indexed": false,
          "internalType": "address",
          "name": "askCoinAddr",
          "type": "address"
        },
        {
          "indexed": false,
          "internalType": "uint256",
          "name": "askCoinAmt",
          "type": "uint256"
        }
      ],
      "name": "BCreatOffer",
      "type": "event"
    },
    {
      "anonymous": false,
      "inputs": [
        {
          "indexed": true,
          "internalType": "uint256",
          "name": "offerId",
          "type": "uint256"
        }
      ],
      "name": "BDeleteOffer",
      "type": "event"
    },
    {
      "anonymous": false,
      "inputs": [
        {
          "indexed": true,
          "internalType": "uint256",
          "name": "offerId",
          "type": "uint256"
        },
        {
          "indexed": false,
          "internalType": "uint256",
          "name": "bondTokenAmt",
          "type": "uint256"
        },
        {
          "indexed": false,
          "internalType": "address",
          "name": "askCoinAddr",
          "type": "address"
        },
        {
          "indexed": false,
          "internalType": "uint256",
          "name": "askCoinAmt",
          "type": "uint256"
        }
      ],
      "name": "BEditOffer",
      "type": "event"
    },
    {
      "anonymous": false,
      "inputs": [
        {
          "indexed": true,
          "internalType": "address",
          "name": "bInestor",
          "type": "address"
        },
        {
          "indexed": false,
          "internalType": "uint256",
          "name": "btAmount",
          "type": "uint256"
        },
        {
          "indexed": false,
          "internalType": "uint256",
          "name": "stAmount",
          "type": "uint256"
        }
      ],
      "name": "BIClaimFund",
      "type": "event"
    },
    {
      "inputs": [],
      "name": "biclaimFund",
      "outputs": [],
      "stateMutability": "nonpayable",
      "type": "function"
    },
    {
      "inputs": [],
      "name": "bondToken",
      "outputs": [
        {
          "internalType": "address",
          "name": "",
          "type": "address"
        }
      ],
      "stateMutability": "view",
      "type": "function"
    },
    {
      "inputs": [
        {
          "internalType": "uint256",
          "name": "_offerId",
          "type": "uint256"
        },
        {
          "internalType": "uint256",
          "name": "_bondTokenAmt",
          "type": "uint256"
        },
        {
          "internalType": "address",
          "name": "_tCoinAddr",
          "type": "address"
        }
      ],
      "name": "calculateBuyBT",
      "outputs": [
        {
          "internalType": "uint256",
          "name": "",
          "type": "uint256"
        }
      ],
      "stateMutability": "view",
      "type": "function"
    },
    {
      "inputs": [],
      "name": "getBFProjectFee",
      "outputs": [
        {
          "internalType": "uint256",
          "name": "",
          "type": "uint256"
        }
      ],
      "stateMutability": "view",
      "type": "function"
    },
    {
      "inputs": [],
      "name": "getBFProtocolFee",
      "outputs": [
        {
          "internalType": "uint256",
          "name": "",
          "type": "uint256"
        }
      ],
      "stateMutability": "view",
      "type": "function"
    },
    {
      "inputs": [
        {
          "internalType": "uint256",
          "name": "_offerId",
          "type": "uint256"
        }
      ],
      "name": "getOffer",
      "outputs": [
        {
          "internalType": "address",
          "name": "",
          "type": "address"
        },
        {
          "internalType": "uint256",
          "name": "",
          "type": "uint256"
        },
        {
          "internalType": "uint256",
          "name": "",
          "type": "uint256"
        },
        {
          "internalType": "address",
          "name": "",
          "type": "address"
        },
        {
          "internalType": "uint256",
          "name": "",
          "type": "uint256"
        },
        {
          "internalType": "uint8",
          "name": "",
          "type": "uint8"
        }
      ],
      "stateMutability": "view",
      "type": "function"
    },
    {
      "inputs": [
        {
          "internalType": "uint256",
          "name": "_offerId",
          "type": "uint256"
        },
        {
          "internalType": "uint256",
          "name": "_bondTokenAmt",
          "type": "uint256"
        },
        {
          "internalType": "address",
          "name": "_tCoinAddr",
          "type": "address"
        },
        {
          "internalType": "uint256",
          "name": "_tCoinAmt",
          "type": "uint256"
        }
      ],
      "name": "mBuyOffer",
      "outputs": [],
      "stateMutability": "nonpayable",
      "type": "function"
    },
    {
      "inputs": [
        {
          "internalType": "uint256",
          "name": "_bondTokenAmt",
          "type": "uint256"
        },
        {
          "internalType": "address",
          "name": "_askCoinAddr",
          "type": "address"
        },
        {
          "internalType": "uint256",
          "name": "_askCoinAmt",
          "type": "uint256"
        }
      ],
      "name": "mCreateOffer",
      "outputs": [
        {
          "internalType": "uint256",
          "name": "offerId",
          "type": "uint256"
        }
      ],
      "stateMutability": "nonpayable",
      "type": "function"
    },
    {
      "inputs": [
        {
          "internalType": "uint256",
          "name": "_offerId",
          "type": "uint256"
        }
      ],
      "name": "mDeleteOffer",
      "outputs": [],
      "stateMutability": "nonpayable",
      "type": "function"
    },
    {
      "inputs": [
        {
          "internalType": "uint256",
          "name": "_offerId",
          "type": "uint256"
        },
        {
          "internalType": "uint256",
          "name": "_newBondTokenAmt",
          "type": "uint256"
        },
        {
          "internalType": "address",
          "name": "_newAskCoinAddr",
          "type": "address"
        },
        {
          "internalType": "uint256",
          "name": "_newAskCoinAmt",
          "type": "uint256"
        }
      ],
      "name": "mEditOffer",
      "outputs": [],
      "stateMutability": "nonpayable",
      "type": "function"
    },
    {
      "inputs": [],
      "name": "totBInvestors",
      "outputs": [
        {
          "internalType": "uint256",
          "name": "",
          "type": "uint256"
        }
      ],
      "stateMutability": "view",
      "type": "function"
    }
  ],
  "bytecode": "0x608060405234801561001057600080fd5b506001600055612a8a806100256000396000f3fe608060405234801561001057600080fd5b50600436106100a95760003560e01c806363cad1ea1161007157806363cad1ea146101995780637b113808146101a35780637f649497146101b65780638750351f146101c9578063c28f4392146101f0578063cfb3a5961461021657600080fd5b80633acdd996146100ae578063436bc434146100e05780634579268a1461010057806354c850b01461017357806359b9287214610186575b600080fd5b6000805160206129f583398151915254600160a01b900461ffff165b6040516100d79190612813565b60405180910390f35b6000805160206129f583398151915254600160b01b900461ffff166100ca565b61016161010e3660046120ed565b6000908152600080516020612a3583398151915260205260409020805460018201546002830154600384015460048501546005909501546001600160a01b0394851696939592949091169260ff90911690565b6040516100d796959493929190612689565b6100ca610181366004612176565b610229565b6100ca610194366004612129565b610376565b6101a161066d565b005b6101a16101b13660046120ed565b610960565b6101a16101c43660046121b9565b610b28565b7f62e2821f900c4be3796206df06636dca51d9fa5909ab9d0afe34bd1259d7c3c4546100ca565b6000805160206129f5833981519152546001600160a01b03166040516100d791906125ae565b6101a16102243660046121b9565b610f6d565b6000838152600080516020612a3583398151915260209081526040808320815160c08101835281546001600160a01b0390811682526001808401549583019590955260028301549382019390935260038201549092166060830152600481015460808301526005015460ff1660a08201819052600080516020612a15833981519152921415806102bc5750848160400151105b156102cc5760009250505061036f565b60006102f382602001516102ed8460800151896112a090919063ffffffff16565b906112e7565b905081606001516001600160a01b0316856001600160a01b0316146103245761032185836060015183611310565b90505b60178301546103699061ffff600160b01b820481169161034f91600160a01b90910416612710612924565b6103599190612924565b61ffff166102ed836127106112a0565b93505050505b9392505050565b6000600260005414156103a45760405162461bcd60e51b815260040161039b906127f3565b60405180910390fd5b60026000556103b16115cb565b6103b9611616565b6103c161164b565b600080516020612a15833981519152846103ed5760405162461bcd60e51b815260040161039b906127c3565b60178101546040516370a0823160e01b815286916001600160a01b0316906370a082319061041f9033906004016125ae565b60206040518083038186803b15801561043757600080fd5b505afa15801561044b573d6000803e3d6000fd5b505050506040513d601f19601f8201168201806040525081019061046f919061210b565b101561048d5760405162461bcd60e51b815260040161039b906127b3565b6001600160a01b0384166104b35760405162461bcd60e51b815260040161039b90612713565b600083116104d35760405162461bcd60e51b815260040161039b90612793565b60178101546040516323b872dd60e01b81526001600160a01b03909116906323b872dd9061050990339030908a906004016125bc565b602060405180830381600087803b15801561052357600080fd5b505af1158015610537573d6000803e3d6000fd5b505050506040513d601f19601f8201168201806040525081019061055b91906120cf565b506016810180546040805160c08101825233815260208082018a81528284018b81526001600160a01b038b811660608601908152608086018c8152600160a0880181815260008b815260158e01909852988720975188549085166001600160a01b03199182161789559551888201559351600288015590516003870180549190931694169390931790559051600484015592516005909201805460ff9390931660ff1990931692909217909155835492955090929161061b9084906128d9565b92505081905550817f98e81cdedd4b46f2345aa9a4c798b9ff22d11f90023cc1b1b19f14c66e7c727f3387878760405161065894939291906125ff565b60405180910390a25060016000559392505050565b6106756115cb565b61067d611616565b610685611701565b7f62e2821f900c4be3796206df06636dca51d9fa5909ab9d0afe34bd1259d7c3b154600080516020612a15833981519152906106d35760405162461bcd60e51b815260040161039b90612733565b60178101546040516370a0823160e01b81526000916001600160a01b0316906370a08231906107069033906004016125ae565b60206040518083038186803b15801561071e57600080fd5b505afa158015610732573d6000803e3d6000fd5b505050506040513d601f19601f82011682018060405250810190610756919061210b565b9050600081116107785760405162461bcd60e51b815260040161039b90612723565b60006108148360170160009054906101000a90046001600160a01b03166001600160a01b03166318160ddd6040518163ffffffff1660e01b815260040160206040518083038186803b1580156107cd57600080fd5b505afa1580156107e1573d6000803e3d6000fd5b505050506040513d601f19601f82011682018060405250810190610805919061210b565b60068501546102ed90856112a0565b60068401549091506108269082611791565b6006840155601783015460405163079cc67960e41b81526001600160a01b03909116906379cc67909061085f90339086906004016125e4565b600060405180830381600087803b15801561087957600080fd5b505af115801561088d573d6000803e3d6000fd5b505050601284015460405163a9059cbb60e01b81526001600160a01b03909116915063a9059cbb906108c590339085906004016125e4565b602060405180830381600087803b1580156108df57600080fd5b505af11580156108f3573d6000803e3d6000fd5b505050506040513d601f19601f8201168201806040525081019061091791906120cf565b50336001600160a01b03167f926b77f47b69970a220d4a87568eacf9804d252d9684581f01451da859cbca57838360405161095392919061284f565b60405180910390a2505050565b6109686115cb565b610970611616565b6109786117bb565b6000818152600080516020612a35833981519152602052604090208054600080516020612a1583398151915291906001600160a01b031633146109cd5760405162461bcd60e51b815260040161039b906126f3565b600581015460ff166001146109f45760405162461bcd60e51b815260040161039b90612743565b6002810154610a155760405162461bcd60e51b815260040161039b906127e3565b6017820154600282015460018301546001600160a01b039092169163a9059cbb913391610a4191611791565b6040518363ffffffff1660e01b8152600401610a5e9291906125e4565b602060405180830381600087803b158015610a7857600080fd5b505af1158015610a8c573d6000803e3d6000fd5b505050506040513d601f19601f82011682018060405250810190610ab091906120cf565b50600083815260158301602052604080822080546001600160a01b031990811682556001820184905560028201849055600382018054909116905560048101839055600501805460ff191690555184917fbafa7bff47132967713d0dccdd6bf12a63cd201e5655f67e473e9e7eb0548bf991a2505050565b610b306115cb565b610b38611616565b610b4061164b565b6000848152600080516020612a35833981519152602052604090206005810154600080516020612a15833981519152919060ff16600114610b935760405162461bcd60e51b815260040161039b90612743565b60008511610bb35760405162461bcd60e51b815260040161039b906127c3565b8481600201541015610bd75760405162461bcd60e51b815260040161039b906127d3565b6001600160a01b038416610bfd5760405162461bcd60e51b815260040161039b90612713565b60008311610c1d5760405162461bcd60e51b815260040161039b90612793565b6000610c2a878787610229565b905060008111610c4c5760405162461bcd60e51b815260040161039b90612753565b80841015610c6c5760405162461bcd60e51b815260040161039b906126e3565b6000610c78868661183b565b90506000610c868683611791565b60038501549091506000906001600160a01b0389811691161415610d375750600384015484546040516323b872dd60e01b815283926001600160a01b03908116926323b872dd92610cdf923392169086906004016125bc565b602060405180830381600087803b158015610cf957600080fd5b505af1158015610d0d573d6000803e3d6000fd5b505050506040513d601f19601f82011682018060405250810190610d3191906120cf565b50610e61565b6040516323b872dd60e01b81526001600160a01b038916906323b872dd90610d67903390309087906004016125bc565b602060405180830381600087803b158015610d8157600080fd5b505af1158015610d95573d6000803e3d6000fd5b505050506040513d601f19601f82011682018060405250810190610db991906120cf565b506003850154610dd49089906001600160a01b0316846119c6565b6003860154865460405163a9059cbb60e01b81529293506001600160a01b039182169263a9059cbb92610e0d92169085906004016125e4565b602060405180830381600087803b158015610e2757600080fd5b505af1158015610e3b573d6000803e3d6000fd5b505050506040513d601f19601f82011682018060405250810190610e5f91906120cf565b505b6000610e8286600401546102ed8860010154856112a090919063ffffffff16565b6002870154909150610e949082611791565b6002870155601787015460405163a9059cbb60e01b81526001600160a01b039091169063a9059cbb90610ecd90339085906004016125e4565b602060405180830381600087803b158015610ee757600080fd5b505af1158015610efb573d6000803e3d6000fd5b505050506040513d601f19601f82011682018060405250810190610f1f91906120cf565b508a7f6a5bc2206f0b45d417d314275ab1fcc23e0a09dc3e081d220714bb5f1631fd7d338c8c8c86604051610f5895949392919061263d565b60405180910390a25050505050505050505050565b610f756115cb565b610f7d611616565b610f8561164b565b600080516020612a1583398151915283610fb15760405162461bcd60e51b815260040161039b906127c3565b60008581526015820160205260409020546001600160a01b03163314610fe95760405162461bcd60e51b815260040161039b906126f3565b600085815260158201602052604090206005015460ff1660011461101f5760405162461bcd60e51b815260040161039b90612743565b6001600160a01b0383166110455760405162461bcd60e51b815260040161039b90612713565b600082116110655760405162461bcd60e51b815260040161039b90612793565b6000858152601582016020526040902060028101546001909101541461109d5760405162461bcd60e51b815260040161039b906127e3565b60008581526015820160205260409020600101548481101561114e5760178201546001600160a01b03166323b872dd33306110d88986611791565b6040518463ffffffff1660e01b81526004016110f6939291906125bc565b602060405180830381600087803b15801561111057600080fd5b505af1158015611124573d6000803e3d6000fd5b505050506040513d601f19601f8201168201806040525081019061114891906120cf565b506111e5565b848111156111e55760178201546001600160a01b031663a9059cbb336111748489611791565b6040518363ffffffff1660e01b81526004016111919291906125e4565b602060405180830381600087803b1580156111ab57600080fd5b505af11580156111bf573d6000803e3d6000fd5b505050506040513d601f19601f820116820180604052508101906111e391906120cf565b505b6000868152601583016020526040902060018101546002909101546112169190611210908890611cfd565b90611791565b6000878152601584016020526040908190206002810192909255600182018790556003820180546001600160a01b0319166001600160a01b03881617905560049091018490555186907fb809956abb7e9f9778ab94979f792530d3e3d6020b82844942ee17febdfd7ead9061129090889088908890612821565b60405180910390a2505050505050565b6000826112af575060006112e1565b6112b98284612905565b9050816112c684836128f1565b146112e157634e487b7160e01b600052600160045260246000fd5b92915050565b600080821161130657634e487b7160e01b600052600160045260246000fd5b61036f82846128f1565b600060606001600160a01b03851673c02aaa39b223fe8d0a0e5c4f27ead9083c756cc2148061135b57506001600160a01b03841673c02aaa39b223fe8d0a0e5c4f27ead9083c756cc2145b1561140957604080516002808252606082018352909160208301908036833701905050905084816000815181106113a257634e487b7160e01b600052603260045260246000fd5b60200260200101906001600160a01b031690816001600160a01b03168152505083816001815181106113e457634e487b7160e01b600052603260045260246000fd5b60200260200101906001600160a01b031690816001600160a01b031681525050611505565b604080516003808252608082019092529060208201606080368337019050509050848160008151811061144c57634e487b7160e01b600052603260045260246000fd5b60200260200101906001600160a01b031690816001600160a01b03168152505073c02aaa39b223fe8d0a0e5c4f27ead9083c756cc2816001815181106114a257634e487b7160e01b600052603260045260246000fd5b60200260200101906001600160a01b031690816001600160a01b03168152505083816002815181106114e457634e487b7160e01b600052603260045260246000fd5b60200260200101906001600160a01b031690816001600160a01b0316815250505b6040516307c0329d60e21b8152600090737a250d5630b4cf539739df2c5dacb4c659f2488d90631f00ca7490611541908790869060040161282f565b60006040518083038186803b15801561155957600080fd5b505afa15801561156d573d6000803e3d6000fd5b505050506040513d6000823e601f3d908101601f19168201604052611595919081019061209a565b9050806000815181106115b857634e487b7160e01b600052603260045260246000fd5b6020026020010151925050509392505050565b7f62e2821f900c4be3796206df06636dca51d9fa5909ab9d0afe34bd1259d7c3ae54600160a01b900460ff16156116145760405162461bcd60e51b815260040161039b90612773565b565b6000805160206129f5833981519152546001600160a01b03166116145760405162461bcd60e51b815260040161039b90612803565b7f62e2821f900c4be3796206df06636dca51d9fa5909ab9d0afe34bd1259d7c3ba54600080516020612a15833981519152906116995760405162461bcd60e51b815260040161039b90612703565b6010810154600f8201546116ac91611cfd565b42101580156116e257506116df81601101546116d9836010015484600f0154611cfd90919063ffffffff16565b90611cfd565b42105b6116fe5760405162461bcd60e51b815260040161039b90612763565b50565b7f62e2821f900c4be3796206df06636dca51d9fa5909ab9d0afe34bd1259d7c3ba54600080516020612a158339815191529061174f5760405162461bcd60e51b815260040161039b90612703565b61177281601101546116d9836010015484600f0154611cfd90919063ffffffff16565b4210156116fe5760405162461bcd60e51b815260040161039b906127a3565b6000828211156117b157634e487b7160e01b600052600160045260246000fd5b61036f828461294a565b7f62e2821f900c4be3796206df06636dca51d9fa5909ab9d0afe34bd1259d7c3ba54600080516020612a15833981519152906118095760405162461bcd60e51b815260040161039b90612703565b6010810154600f82015461181c91611cfd565b4210156116fe5760405162461bcd60e51b815260040161039b90612783565b6000805160206129f583398151915254600090600080516020612a1583398151915290829061187e90612710906102ed908790600160a01b900461ffff166112a0565b60178301549091506000906118a790612710906102ed908890600160b01b900461ffff166112a0565b90506118b38282611cfd565b6040516323b872dd60e01b81529094506001600160a01b038716906323b872dd906118e6903390309089906004016125bc565b602060405180830381600087803b15801561190057600080fd5b505af1158015611914573d6000803e3d6000fd5b505050506040513d601f19601f8201168201806040525081019061193891906120cf565b5060128301546000906001600160a01b0388811691161461197457601284015461196d9088906001600160a01b0316876119c6565b9050611977565b50835b611993611988866102ed84866112a0565b600786015490611cfd565b60078501556119b46119a9866102ed84876112a0565b600886015490611cfd565b84600801819055505050505092915050565b60405163095ea7b360e01b81526000906001600160a01b0385169063095ea7b390611a0b90737a250d5630b4cf539739df2c5dacb4c659f2488d9086906004016125e4565b602060405180830381600087803b158015611a2557600080fd5b505af1158015611a39573d6000803e3d6000fd5b505050506040513d601f19601f82011682018060405250810190611a5d91906120cf565b5060606001600160a01b03851673c02aaa39b223fe8d0a0e5c4f27ead9083c756cc21480611aa757506001600160a01b03841673c02aaa39b223fe8d0a0e5c4f27ead9083c756cc2145b15611b555760408051600280825260608201835290916020830190803683370190505090508481600081518110611aee57634e487b7160e01b600052603260045260246000fd5b60200260200101906001600160a01b031690816001600160a01b0316815250508381600181518110611b3057634e487b7160e01b600052603260045260246000fd5b60200260200101906001600160a01b031690816001600160a01b031681525050611c51565b6040805160038082526080820190925290602082016060803683370190505090508481600081518110611b9857634e487b7160e01b600052603260045260246000fd5b60200260200101906001600160a01b031690816001600160a01b03168152505073c02aaa39b223fe8d0a0e5c4f27ead9083c756cc281600181518110611bee57634e487b7160e01b600052603260045260246000fd5b60200260200101906001600160a01b031690816001600160a01b0316815250508381600281518110611c3057634e487b7160e01b600052603260045260246000fd5b60200260200101906001600160a01b031690816001600160a01b0316815250505b611c5c858585611d29565b6040516338ed173960e01b8152909250737a250d5630b4cf539739df2c5dacb4c659f2488d906338ed173990611c9e908690869086903090429060040161285d565b600060405180830381600087803b158015611cb857600080fd5b505af1158015611ccc573d6000803e3d6000fd5b505050506040513d6000823e601f3d908101601f19168201604052611cf4919081019061209a565b50509392505050565b6000611d0982846128d9565b9050828110156112e157634e487b7160e01b600052600160045260246000fd5b600060606001600160a01b03851673c02aaa39b223fe8d0a0e5c4f27ead9083c756cc21480611d7457506001600160a01b03841673c02aaa39b223fe8d0a0e5c4f27ead9083c756cc2145b15611e225760408051600280825260608201835290916020830190803683370190505090508481600081518110611dbb57634e487b7160e01b600052603260045260246000fd5b60200260200101906001600160a01b031690816001600160a01b0316815250508381600181518110611dfd57634e487b7160e01b600052603260045260246000fd5b60200260200101906001600160a01b031690816001600160a01b031681525050611f1e565b6040805160038082526080820190925290602082016060803683370190505090508481600081518110611e6557634e487b7160e01b600052603260045260246000fd5b60200260200101906001600160a01b031690816001600160a01b03168152505073c02aaa39b223fe8d0a0e5c4f27ead9083c756cc281600181518110611ebb57634e487b7160e01b600052603260045260246000fd5b60200260200101906001600160a01b031690816001600160a01b0316815250508381600281518110611efd57634e487b7160e01b600052603260045260246000fd5b60200260200101906001600160a01b031690816001600160a01b0316815250505b60405163d06ca61f60e01b8152600090737a250d5630b4cf539739df2c5dacb4c659f2488d9063d06ca61f90611f5a908790869060040161282f565b60006040518083038186803b158015611f7257600080fd5b505afa158015611f86573d6000803e3d6000fd5b505050506040513d6000823e601f3d908101601f19168201604052611fae919081019061209a565b90508060018351611fbf919061294a565b815181106115b857634e487b7160e01b600052603260045260246000fd5b6000611ff0611feb846128b5565b612899565b9050808382526020820190508285602086028201111561200f57600080fd5b60005b8581101561203b5781612025888261208f565b8452506020928301929190910190600101612012565b5050509392505050565b80356112e1816129d2565b600082601f83011261206157600080fd5b8151612071848260208601611fdd565b949350505050565b80516112e1816129e6565b80356112e1816129ee565b80516112e1816129ee565b6000602082840312156120ac57600080fd5b815167ffffffffffffffff8111156120c357600080fd5b61207184828501612050565b6000602082840312156120e157600080fd5b60006120718484612079565b6000602082840312156120ff57600080fd5b60006120718484612084565b60006020828403121561211d57600080fd5b6000612071848461208f565b60008060006060848603121561213e57600080fd5b600061214a8686612084565b935050602061215b86828701612045565b925050604061216c86828701612084565b9150509250925092565b60008060006060848603121561218b57600080fd5b60006121978686612084565b93505060206121a886828701612084565b925050604061216c86828701612045565b600080600080608085870312156121cf57600080fd5b60006121db8787612084565b94505060206121ec87828801612084565b93505060406121fd87828801612045565b925050606061220e87828801612084565b91505092959194509250565b6000612226838361222e565b505060200190565b61223781612952565b82525050565b6000612247825190565b80845260209384019383018060005b8381101561227b57815161226a888261221a565b975060208301925050600101612256565b509495945050505050565b601381526000602082017221231d102727aa2fa2a727aaa3a42fa1a7a4a760691b815291505b5060200190565b600d81526000602082016c21231d102727aa2fa7aba722a960991b815291506122ac565b6016815260006020820175043463a204e4f545f524541434845445f4d494e5f54560541b815291506122ac565b601481526000602082017342463a20494e56414c49445f414444524553535360601b815291506122ac565b601381526000602082017243463a204e4f5f424f4e445f42414c414e434560681b815291506122ac565b600b81526000602082016a10d18e881393d7d195539160aa1b815291506122ac565b600c81526000602082016b21231d102727afa7a32322a960a11b815291506122ac565b601281526000602082017142463a20494e56414c49445f504152414d5360701b815291506122ac565b600d81526000602082016c043463a204e4f545f494e5f435609c1b815291506122ac565b601081526000602082016f14185d5cd8589b194e881c185d5cd95960821b815291506122ac565b601081526000602082016f043463a204e4f545f454e4445445f42560841b815291506122ac565b601781526000602082017f42463a20494e56414c49445f434f494e5f414d4f554e54000000000000000000815291506122ac565b600d81526000602082016c10d18e881393d517d153911151609a1b815291506122ac565b601181526000602082017010918e881393d517d15393d551d217d095607a1b815291506122ac565b601581526000602082017410918e881253959053125117d09517d05353d55395605a1b815291506122ac565b601781526000602082017f42463a204e4f545f454e4f5547485f4f464645525f4254000000000000000000815291506122ac565b601081526000602082016f10918e88105314915051164814d3d31160821b815291506122ac565b601f81526000602082017f5265656e7472616e637947756172643a207265656e7472616e742063616c6c00815291506122ac565b601481526000602082017310d18e88109257d393d517d050d512559055115160621b815291506122ac565b80612237565b60ff8116612237565b602081016112e1828461222e565b606081016125ca828661222e565b6125d7602083018561222e565b612071604083018461259f565b604081016125f2828561222e565b61036f602083018461259f565b6080810161260d828761222e565b61261a602083018661259f565b612627604083018561222e565b612634606083018461259f565b95945050505050565b60a0810161264b828861222e565b612658602083018761259f565b612665604083018661222e565b612672606083018561259f565b61267f608083018461259f565b9695505050505050565b60c08101612697828961222e565b6126a4602083018861259f565b6126b1604083018761259f565b6126be606083018661222e565b6126cb608083018561259f565b6126d860a08301846125a5565b979650505050505050565b602080825281016112e181612286565b602080825281016112e1816122b3565b602080825281016112e1816122d7565b602080825281016112e181612304565b602080825281016112e18161232f565b602080825281016112e181612359565b602080825281016112e18161237b565b602080825281016112e18161239e565b602080825281016112e1816123c7565b602080825281016112e1816123eb565b602080825281016112e181612412565b602080825281016112e181612439565b602080825281016112e18161246d565b602080825281016112e181612491565b602080825281016112e1816124b9565b602080825281016112e1816124e5565b602080825281016112e181612519565b602080825281016112e181612540565b602080825281016112e181612574565b602081016112e1828461259f565b606081016125ca828661259f565b6040810161283d828561259f565b8181036020830152612071818461223d565b604081016125f2828561259f565b60a0810161286b828861259f565b612878602083018761259f565b818103604083015261288a818661223d565b9050612672606083018561222e565b60006128a460405190565b90506128b08282612963565b919050565b600067ffffffffffffffff8211156128cf576128cf6129bc565b5060209081020190565b600082198211156128ec576128ec612990565b500190565b600082612900576129006129a6565b500490565b600081600019048311821515161561291f5761291f612990565b500290565b600061ffff8216915061ffff83165b92508282101561294557612945612990565b500390565b600082612933565b60006001600160a01b0382166112e1565b601f19601f830116810181811067ffffffffffffffff82111715612989576129896129bc565b6040525050565b634e487b7160e01b600052601160045260246000fd5b634e487b7160e01b600052601260045260246000fd5b634e487b7160e01b600052604160045260246000fd5b6129db81612952565b81146116fe57600080fd5b8015156129db565b806129db56fe62e2821f900c4be3796206df06636dca51d9fa5909ab9d0afe34bd1259d7c3c262e2821f900c4be3796206df06636dca51d9fa5909ab9d0afe34bd1259d7c3ab62e2821f900c4be3796206df06636dca51d9fa5909ab9d0afe34bd1259d7c3c0a264697066735822122007e5eeb61b04fd3e7b271b467f489ab5994d50d03de7127ec7a89f7f93e7c0b064736f6c63430008040033",
  "linkReferences": {},
  "deployedLinkReferences": {}
}