{
  "_format": "hh-sol-artifact-1",
  "contractName": "CrowdfundingFacet",
  "sourceName": "contracts/facets/CrowdfundingFacet.sol",
  "abi": [
    {
      "anonymous": false,
      "inputs": [
        {
          "indexed": false,
          "internalType": "uint256",
          "name": "amount",
          "type": "uint256"
        }
      ],
      "name": "AllocatePC",
      "type": "event"
    },
    {
      "anonymous": false,
      "inputs": [
        {
          "indexed": false,
          "internalType": "uint256",
          "name": "amount",
          "type": "uint256"
        }
      ],
      "name": "ClaimFees",
      "type": "event"
    },
    {
      "anonymous": false,
      "inputs": [
        {
          "indexed": false,
          "internalType": "uint256",
          "name": "amount",
          "type": "uint256"
        }
      ],
      "name": "ClaimFund",
      "type": "event"
    },
    {
      "anonymous": false,
      "inputs": [
        {
          "indexed": true,
          "internalType": "address",
          "name": "investor",
          "type": "address"
        },
        {
          "indexed": true,
          "internalType": "address",
          "name": "investToken",
          "type": "address"
        },
        {
          "indexed": false,
          "internalType": "uint256",
          "name": "stableAmount",
          "type": "uint256"
        },
        {
          "indexed": false,
          "internalType": "uint256",
          "name": "ptAmount",
          "type": "uint256"
        }
      ],
      "name": "IBuy",
      "type": "event"
    },
    {
      "anonymous": false,
      "inputs": [
        {
          "indexed": true,
          "internalType": "address",
          "name": "investor",
          "type": "address"
        },
        {
          "indexed": false,
          "internalType": "uint256",
          "name": "amount",
          "type": "uint256"
        }
      ],
      "name": "IClaimFund",
      "type": "event"
    },
    {
      "anonymous": false,
      "inputs": [
        {
          "indexed": true,
          "internalType": "address",
          "name": "investor",
          "type": "address"
        },
        {
          "indexed": false,
          "internalType": "uint256",
          "name": "amount",
          "type": "uint256"
        }
      ],
      "name": "IClaimPC",
      "type": "event"
    },
    {
      "anonymous": false,
      "inputs": [
        {
          "indexed": true,
          "internalType": "address",
          "name": "investor",
          "type": "address"
        },
        {
          "indexed": false,
          "internalType": "uint256",
          "name": "ptAmount",
          "type": "uint256"
        }
      ],
      "name": "ISell",
      "type": "event"
    },
    {
      "anonymous": false,
      "inputs": [
        {
          "indexed": false,
          "internalType": "address",
          "name": "caller",
          "type": "address"
        }
      ],
      "name": "PCREventOccurrence",
      "type": "event"
    },
    {
      "anonymous": false,
      "inputs": [
        {
          "indexed": false,
          "internalType": "address",
          "name": "caller",
          "type": "address"
        },
        {
          "indexed": false,
          "internalType": "uint256",
          "name": "frequencyDuration",
          "type": "uint256"
        }
      ],
      "name": "PCRScheduleCalc",
      "type": "event"
    },
    {
      "anonymous": false,
      "inputs": [
        {
          "indexed": false,
          "internalType": "uint256",
          "name": "amount",
          "type": "uint256"
        }
      ],
      "name": "TClaimFees",
      "type": "event"
    },
    {
      "anonymous": false,
      "inputs": [
        {
          "indexed": false,
          "internalType": "uint256",
          "name": "amount",
          "type": "uint256"
        }
      ],
      "name": "WithdrawPC",
      "type": "event"
    },
    {
      "anonymous": false,
      "inputs": [
        {
          "indexed": false,
          "internalType": "uint256",
          "name": "amount",
          "type": "uint256"
        }
      ],
      "name": "WithdrawUPC",
      "type": "event"
    },
    {
      "inputs": [
        {
          "internalType": "uint256",
          "name": "_amount",
          "type": "uint256"
        }
      ],
      "name": "allocatePC",
      "outputs": [],
      "stateMutability": "nonpayable",
      "type": "function"
    },
    {
      "inputs": [
        {
          "internalType": "address",
          "name": "_coinAddr",
          "type": "address"
        },
        {
          "internalType": "uint256",
          "name": "_ptAmount",
          "type": "uint256"
        }
      ],
      "name": "calculateBuyPT",
      "outputs": [
        {
          "internalType": "uint256",
          "name": "",
          "type": "uint256"
        }
      ],
      "stateMutability": "view",
      "type": "function"
    },
    {
      "inputs": [
        {
          "internalType": "address",
          "name": "_coinAddr",
          "type": "address"
        },
        {
          "internalType": "uint256",
          "name": "_ptAmount",
          "type": "uint256"
        }
      ],
      "name": "calculateSellPT",
      "outputs": [
        {
          "internalType": "uint256",
          "name": "",
          "type": "uint256"
        }
      ],
      "stateMutability": "view",
      "type": "function"
    },
    {
      "inputs": [],
      "name": "chainId",
      "outputs": [
        {
          "internalType": "uint256",
          "name": "",
          "type": "uint256"
        }
      ],
      "stateMutability": "view",
      "type": "function"
    },
    {
      "inputs": [],
      "name": "claimFees",
      "outputs": [],
      "stateMutability": "nonpayable",
      "type": "function"
    },
    {
      "inputs": [],
      "name": "claimFund",
      "outputs": [],
      "stateMutability": "nonpayable",
      "type": "function"
    },
    {
      "inputs": [],
      "name": "getAllocatePC",
      "outputs": [
        {
          "internalType": "uint256",
          "name": "",
          "type": "uint256"
        }
      ],
      "stateMutability": "view",
      "type": "function"
    },
    {
      "inputs": [],
      "name": "getBufferPeriod",
      "outputs": [
        {
          "internalType": "uint256",
          "name": "",
          "type": "uint256"
        }
      ],
      "stateMutability": "view",
      "type": "function"
    },
    {
      "inputs": [
        {
          "internalType": "uint256",
          "name": "_ptAmount",
          "type": "uint256"
        }
      ],
      "name": "getBuyPrice",
      "outputs": [
        {
          "internalType": "uint256",
          "name": "",
          "type": "uint256"
        }
      ],
      "stateMutability": "view",
      "type": "function"
    },
    {
      "inputs": [],
      "name": "getCFStatus",
      "outputs": [
        {
          "internalType": "bool",
          "name": "isStarted",
          "type": "bool"
        },
        {
          "internalType": "bool",
          "name": "isActivated",
          "type": "bool"
        },
        {
          "internalType": "bool",
          "name": "isEnded",
          "type": "bool"
        }
      ],
      "stateMutability": "view",
      "type": "function"
    },
    {
      "inputs": [],
      "name": "getClaimablePCAmt",
      "outputs": [
        {
          "internalType": "uint256",
          "name": "",
          "type": "uint256"
        }
      ],
      "stateMutability": "view",
      "type": "function"
    },
    {
      "inputs": [],
      "name": "getClaimablePCPerPT",
      "outputs": [
        {
          "internalType": "uint256",
          "name": "",
          "type": "uint256"
        }
      ],
      "stateMutability": "view",
      "type": "function"
    },
    {
      "inputs": [
        {
          "internalType": "uint256",
          "name": "_amount",
          "type": "uint256"
        }
      ],
      "name": "getClaimablePCUser",
      "outputs": [
        {
          "internalType": "uint256",
          "name": "",
          "type": "uint256"
        }
      ],
      "stateMutability": "view",
      "type": "function"
    },
    {
      "inputs": [],
      "name": "getClaimedPFeeAmt",
      "outputs": [
        {
          "internalType": "uint256",
          "name": "",
          "type": "uint256"
        }
      ],
      "stateMutability": "view",
      "type": "function"
    },
    {
      "inputs": [],
      "name": "getConversionPeriod",
      "outputs": [
        {
          "internalType": "uint256",
          "name": "",
          "type": "uint256"
        }
      ],
      "stateMutability": "view",
      "type": "function"
    },
    {
      "inputs": [],
      "name": "getCreatedTimestamp",
      "outputs": [
        {
          "internalType": "uint256",
          "name": "",
          "type": "uint256"
        }
      ],
      "stateMutability": "view",
      "type": "function"
    },
    {
      "inputs": [],
      "name": "getMC",
      "outputs": [
        {
          "internalType": "uint256",
          "name": "",
          "type": "uint256"
        }
      ],
      "stateMutability": "view",
      "type": "function"
    },
    {
      "inputs": [
        {
          "internalType": "address",
          "name": "_investor",
          "type": "address"
        }
      ],
      "name": "getMaxClaimablePCUser",
      "outputs": [
        {
          "internalType": "uint256",
          "name": "",
          "type": "uint256"
        }
      ],
      "stateMutability": "view",
      "type": "function"
    },
    {
      "inputs": [
        {
          "internalType": "address",
          "name": "_investor",
          "type": "address"
        }
      ],
      "name": "getMaxConvertiblePTUser",
      "outputs": [
        {
          "internalType": "uint256",
          "name": "",
          "type": "uint256"
        }
      ],
      "stateMutability": "view",
      "type": "function"
    },
    {
      "inputs": [
        {
          "internalType": "address",
          "name": "_investor",
          "type": "address"
        }
      ],
      "name": "getPCRDetail",
      "outputs": [
        {
          "components": [
            {
              "internalType": "uint256",
              "name": "convertiblePT",
              "type": "uint256"
            },
            {
              "internalType": "uint256",
              "name": "tobeConvertiblePT",
              "type": "uint256"
            },
            {
              "internalType": "uint256",
              "name": "pcrCount",
              "type": "uint256"
            }
          ],
          "internalType": "struct LibCFDiamond.PCRDetails",
          "name": "",
          "type": "tuple"
        }
      ],
      "stateMutability": "view",
      "type": "function"
    },
    {
      "inputs": [],
      "name": "getPCValuation",
      "outputs": [
        {
          "internalType": "uint256",
          "name": "",
          "type": "uint256"
        }
      ],
      "stateMutability": "view",
      "type": "function"
    },
    {
      "inputs": [
        {
          "internalType": "address",
          "name": "_investor",
          "type": "address"
        }
      ],
      "name": "getPTBalance",
      "outputs": [
        {
          "internalType": "uint256",
          "name": "",
          "type": "uint256"
        }
      ],
      "stateMutability": "view",
      "type": "function"
    },
    {
      "inputs": [],
      "name": "getProjectFee",
      "outputs": [
        {
          "internalType": "uint256",
          "name": "",
          "type": "uint256"
        }
      ],
      "stateMutability": "view",
      "type": "function"
    },
    {
      "inputs": [],
      "name": "getProtocolFee",
      "outputs": [
        {
          "internalType": "uint256",
          "name": "",
          "type": "uint256"
        }
      ],
      "stateMutability": "view",
      "type": "function"
    },
    {
      "inputs": [
        {
          "internalType": "uint256",
          "name": "_ptAmount",
          "type": "uint256"
        }
      ],
      "name": "getSellPrice",
      "outputs": [
        {
          "internalType": "uint256",
          "name": "",
          "type": "uint256"
        }
      ],
      "stateMutability": "view",
      "type": "function"
    },
    {
      "inputs": [],
      "name": "getStartTimestamp",
      "outputs": [
        {
          "internalType": "uint256",
          "name": "",
          "type": "uint256"
        }
      ],
      "stateMutability": "view",
      "type": "function"
    },
    {
      "inputs": [],
      "name": "getTVLPT",
      "outputs": [
        {
          "internalType": "uint256",
          "name": "",
          "type": "uint256"
        }
      ],
      "stateMutability": "view",
      "type": "function"
    },
    {
      "inputs": [],
      "name": "getThType",
      "outputs": [
        {
          "internalType": "enum LibCFDiamond.MinThresholdType",
          "name": "",
          "type": "uint8"
        }
      ],
      "stateMutability": "view",
      "type": "function"
    },
    {
      "inputs": [],
      "name": "getThValue",
      "outputs": [
        {
          "internalType": "uint256",
          "name": "",
          "type": "uint256"
        }
      ],
      "stateMutability": "view",
      "type": "function"
    },
    {
      "inputs": [],
      "name": "getTotCirculatingPTAmt",
      "outputs": [
        {
          "internalType": "uint256",
          "name": "",
          "type": "uint256"
        }
      ],
      "stateMutability": "view",
      "type": "function"
    },
    {
      "inputs": [],
      "name": "getTotPFeeAmt",
      "outputs": [
        {
          "internalType": "uint256",
          "name": "",
          "type": "uint256"
        }
      ],
      "stateMutability": "view",
      "type": "function"
    },
    {
      "inputs": [],
      "name": "getTotPInvestAmt",
      "outputs": [
        {
          "internalType": "uint256",
          "name": "",
          "type": "uint256"
        }
      ],
      "stateMutability": "view",
      "type": "function"
    },
    {
      "inputs": [],
      "name": "getTotPInvestors",
      "outputs": [
        {
          "internalType": "uint256",
          "name": "",
          "type": "uint256"
        }
      ],
      "stateMutability": "view",
      "type": "function"
    },
    {
      "inputs": [],
      "name": "getTotProtFeeAmt",
      "outputs": [
        {
          "internalType": "uint256",
          "name": "",
          "type": "uint256"
        }
      ],
      "stateMutability": "view",
      "type": "function"
    },
    {
      "inputs": [],
      "name": "getTpTimestamp",
      "outputs": [
        {
          "internalType": "uint256",
          "name": "",
          "type": "uint256"
        }
      ],
      "stateMutability": "view",
      "type": "function"
    },
    {
      "inputs": [
        {
          "internalType": "address",
          "name": "_coinAddress",
          "type": "address"
        },
        {
          "internalType": "uint256",
          "name": "_investAmt",
          "type": "uint256"
        },
        {
          "internalType": "uint256",
          "name": "_buyPTAmt",
          "type": "uint256"
        }
      ],
      "name": "ibuy",
      "outputs": [],
      "stateMutability": "nonpayable",
      "type": "function"
    },
    {
      "inputs": [
        {
          "internalType": "uint256",
          "name": "_claimPTAmt",
          "type": "uint256"
        }
      ],
      "name": "iclaimPC",
      "outputs": [],
      "stateMutability": "nonpayable",
      "type": "function"
    },
    {
      "inputs": [
        {
          "internalType": "address",
          "name": "_coinAddress",
          "type": "address"
        },
        {
          "internalType": "uint256",
          "name": "_sellPTAmt",
          "type": "uint256"
        }
      ],
      "name": "isell",
      "outputs": [],
      "stateMutability": "nonpayable",
      "type": "function"
    },
    {
      "inputs": [],
      "name": "projectCoin",
      "outputs": [
        {
          "internalType": "address",
          "name": "",
          "type": "address"
        }
      ],
      "stateMutability": "view",
      "type": "function"
    },
    {
      "inputs": [],
      "name": "projectName",
      "outputs": [
        {
          "internalType": "string",
          "name": "",
          "type": "string"
        }
      ],
      "stateMutability": "view",
      "type": "function"
    },
    {
      "inputs": [],
      "name": "projectToken",
      "outputs": [
        {
          "internalType": "address",
          "name": "",
          "type": "address"
        }
      ],
      "stateMutability": "view",
      "type": "function"
    },
    {
      "inputs": [
        {
          "internalType": "uint256",
          "name": "_supply",
          "type": "uint256"
        }
      ],
      "name": "setBondingCurveSupply",
      "outputs": [],
      "stateMutability": "nonpayable",
      "type": "function"
    },
    {
      "inputs": [
        {
          "internalType": "uint16",
          "name": "_feePercent",
          "type": "uint16"
        }
      ],
      "name": "setProtocolFee",
      "outputs": [],
      "stateMutability": "nonpayable",
      "type": "function"
    },
    {
      "inputs": [
        {
          "internalType": "uint16",
          "name": "_ratio",
          "type": "uint16"
        }
      ],
      "name": "setReserveRatio",
      "outputs": [],
      "stateMutability": "nonpayable",
      "type": "function"
    },
    {
      "inputs": [],
      "name": "stableCoin",
      "outputs": [
        {
          "internalType": "address",
          "name": "",
          "type": "address"
        }
      ],
      "stateMutability": "view",
      "type": "function"
    },
    {
      "inputs": [],
      "name": "tclaimFees",
      "outputs": [],
      "stateMutability": "nonpayable",
      "type": "function"
    },
    {
      "inputs": [
        {
          "internalType": "uint256",
          "name": "_amount",
          "type": "uint256"
        }
      ],
      "name": "withdrawPC",
      "outputs": [],
      "stateMutability": "nonpayable",
      "type": "function"
    },
    {
      "inputs": [
        {
          "internalType": "uint256",
          "name": "_amount",
          "type": "uint256"
        }
      ],
      "name": "withdrawUPC",
      "outputs": [],
      "stateMutability": "nonpayable",
      "type": "function"
    }
  ],
  "bytecode": "0x608060405234801561001057600080fd5b506001600055614d4f806100256000396000f3fe608060405234801561001057600080fd5b50600436106102a05760003560e01c80637f13c9e311610167578063a5a41031116100ce578063caeb748111610087578063caeb74811461050e578063d294f09314610535578063d412432d1461053d578063dbf071fa14610550578063e4467f3514610558578063ed91a39f1461056b57600080fd5b8063a5a41031146104c8578063a5fcaf18146104d0578063ba730e53146104d8578063bb58e8af146104eb578063c00881ea146104f3578063c6aef731146104fb57600080fd5b806399a67d9d1161012057806399a67d9d146104805780639a33e300146104885780639a8a05921461049d5780639d56884c146104a5578063a10c8464146104ad578063a15ae437146104b557600080fd5b80637f13c9e31461042f57806384aea70c146104375780638796ab4b1461044a57806388f4b3da146104525780638aae220914610465578063992642e51461047857600080fd5b806348fb61f91161020b5780635b348023116101c45780635b348023146103c75780635dd8c282146103cf57806367571777146103d757806367bf7269146103df5780636a29392c146103f25780637e263dad1461042757600080fd5b806348fb61f9146103695780634b60ce771461037c5780635072b0841461038457806350be8e9e1461038c57806357bd16321461039f5780635a049eef146103b257600080fd5b806316427a501161025d57806316427a50146103185780631d9adfb01461032b5780631f89f25e1461033e57806320cfe7e31461034657806324e4a5fc1461034e578063477b25b81461035657600080fd5b806301eab1ed146102a557806308d4db14146102c057806309d54688146102d35780630e9012f0146102db578063105c8967146102e357806315f06ab114610303575b600080fd5b6102ad610573565b6040519081526020015b60405180910390f35b6102ad6102ce3660046148bf565b610586565b6102ad610714565b6102ad610729565b6102eb610747565b6040516001600160a01b0390911681526020016102b7565b6103166103113660046148bf565b610763565b005b61031661032636600461489d565b61093b565b6103166103393660046148bf565b6109e4565b6102ad610dd9565b6102ad610dec565b6102ad610dff565b6103166103643660046148bf565b610ebb565b6103166103773660046148bf565b610f95565b6102eb61100d565b610316611029565b6102ad61039a366004614748565b611151565b6102ad6103ad366004614748565b611235565b6103ba611317565b6040516102b79190614992565b6102ad61132d565b6102ad611340565b6102ad611353565b6103166103ed3660046148bf565b61137b565b610405610400366004614748565b6114ec565b60408051825181526020808401519082015291810151908201526060016102b7565b6102ad611559565b61031661156c565b61031661044536600461478b565b6116b1565b6102ad611ae0565b610316610460366004614762565b611bbb565b6102ad610473366004614748565b612123565b6102eb6121b1565b6102ad6121cd565b610490612210565b6040516102b791906149ba565b6102ad6122ab565b6102ad6122be565b6102ad6122d1565b6102ad6104c3366004614762565b6122e4565b6102ad61269c565b6102ad6126ba565b6102ad6104e63660046148bf565b6126cd565b6102ad612706565b6102ad6127aa565b6102ad6105093660046148bf565b6127bd565b61051661287b565b60408051931515845291151560208401521515908201526060016102b7565b6103166128ed565b6102ad61054b366004614762565b612a27565b6102ad612e18565b61031661056636600461489d565b612f7d565b6102ad613034565b600061057d613047565b60110154905090565b60008161059557506000919050565b600061059f613047565b60178101546016820154601583015492935060009283926001600160a01b03169163bb9e5a7f918891906105df90600160d01b900461ffff16600a614bf0565b601588015460405160e086901b6001600160e01b03191681526004810194909452602484019290925261ffff9081166044840152600160d01b909104166064820152608401604080518083038186803b15801561063b57600080fd5b505afa15801561064f573d6000803e3d6000fd5b505050506040513d601f19601f8201168201806040525081019061067391906148ef565b601785015460405163a0175ab360e01b81526802b5e3af16b1880000600482015260248101849052604481018390529294509092506001600160a01b03169063a0175ab39060640160206040518083038186803b1580156106d357600080fd5b505afa1580156106e7573d6000803e3d6000fd5b505050506040513d601f19601f8201168201806040525081019061070b91906148d7565b95945050505050565b60008061071f613047565b6006015492915050565b6000610733613047565b60150154600160b01b900461ffff16919050565b6000610751613047565b600b01546001600160a01b0316919050565b6002600054141561078f5760405162461bcd60e51b815260040161078690614a2b565b60405180910390fd5b600260005561079c61306b565b6107a46130b8565b6107ac613103565b60006107b6613047565b90506000821180156107db575081816022015482600c01546107d89190614c13565b10155b61080f5760405162461bcd60e51b815260206004820152600560248201526410d1914c4d60da1b6044820152606401610786565b8060090160009054906101000a90046001600160a01b03166001600160a01b03166318160ddd6040518163ffffffff1660e01b815260040160206040518083038186803b15801561085f57600080fd5b505afa158015610873573d6000803e3d6000fd5b505050506040513d601f19601f8201168201806040525081019061089791906148d7565b156108cc5760405162461bcd60e51b8152602060048201526005602482015264434645313560d81b6044820152606401610786565b600b8101546108e5906001600160a01b03163384613191565b8181600c0160008282546108f99190614c13565b90915550506040518281527f1c29ec4a9f0f0740071a185bb0ee7a33b955d44d856c481a61ae6bb050ad0dac906020015b60405180910390a150506001600055565b6000610945613047565b600d8101549091506001600160a01b031633146109745760405162461bcd60e51b8152600401610786906149ed565b60008261ffff1611801561098c5750600a8261ffff16105b6109c15760405162461bcd60e51b81526004016107869060208082526004908201526321a3229960e11b604082015260600190565b601501805461ffff909216600160d01b0261ffff60d01b19909216919091179055565b60026000541415610a075760405162461bcd60e51b815260040161078690614a2b565b6002600055610a146130b8565b610a1c6131f9565b6000610a26613047565b336000908152602080830190526040902090915082610a6f5760405162461bcd60e51b8152602060048201526005602482015264434645323160d81b6044820152606401610786565b610a7833611151565b831115610aaf5760405162461bcd60e51b815260206004820152600560248201526410d1914c8d60da1b6044820152606401610786565b600080610aba613275565b90925090508115610b2d5781846021016000828254610ad99190614ab7565b925050819055508084601e016000828254610af49190614ab7565b90915550506040513381527f2402ea96e93c545d77136094874ce61a05f3cef908ffab0008dc452b33bf04289060200160405180910390a15b602184015415610c3557836021015483600201541015610bd5576000846022015485600c0154610b5d9190614c13565b856022015486601e0154610b719190614c13565b8560010154610b809190614bd1565b610b8a9190614acf565b905085818560000154610b9d9190614ab7565b610ba79190614c13565b8455600184018054829190600090610bc0908490614c13565b90915550505060218401546002840155610c35565b836021015483600201541415610c045784836000016000828254610bf99190614c13565b90915550610c359050565b60405162461bcd60e51b8152600401610786906020808252600490820152634346453760e01b604082015260600190565b6009840154604080516318160ddd60e01b815290516000926001600160a01b0316916318160ddd916004808301926020929190829003018186803b158015610c7c57600080fd5b505afa158015610c90573d6000803e3d6000fd5b505050506040513d601f19601f82011682018060405250810190610cb491906148d7565b905060008187876022015488600c0154610cce9190614c13565b610cd89190614bd1565b610ce29190614acf565b6009870154604051632770a7eb60e21b8152336004820152602481018a90529192506001600160a01b031690639dc29fac90604401600060405180830381600087803b158015610d3157600080fd5b505af1158015610d45573d6000803e3d6000fd5b505050508686600a016000828254610d5d9190614ab7565b9250508190555080866022016000828254610d789190614ab7565b9091555050600b860154610d96906001600160a01b03163383613191565b60405181815233907f91a6cb37af0cd7657dfe883320d261c24532b7cd5500d01fb3ddeae3fdacdb139060200160405180910390a2505060016000555050505050565b6000610de3613047565b60100154905090565b6000610df6613047565b60230154905090565b600080610e0a613047565b905080600c015481600b0160009054906101000a90046001600160a01b03166001600160a01b03166318160ddd6040518163ffffffff1660e01b815260040160206040518083038186803b158015610e6157600080fd5b505afa158015610e75573d6000803e3d6000fd5b505050506040513d601f19601f82011682018060405250810190610e9991906148d7565b610ea1611ae0565b610eab9190614bd1565b610eb59190614acf565b91505090565b60026000541415610ede5760405162461bcd60e51b815260040161078690614a2b565b6002600055610eeb61306b565b6000610ef5613047565b9050600082118015610f095750600c810154155b610f3e5760405162461bcd60e51b8152600401610786906020808252600490820152630434645360e41b604082015260600190565b600c8101829055426010820155600b810154610f65906001600160a01b031633308561335a565b6040518281527fd4fdc0b5809e424ee2f07b14b365eea5b2b8c2c67043b137b472ccad4776e8c39060200161092a565b6000610f9f613047565b600d8101549091506001600160a01b03163314610fce5760405162461bcd60e51b8152600401610786906149ed565b600082116110075760405162461bcd60e51b81526004016107869060208082526004908201526310d1914d60e21b604082015260600190565b60160155565b6000611017613047565b600901546001600160a01b0316919050565b6002600054141561104c5760405162461bcd60e51b815260040161078690614a2b565b600260005561105961306b565b6110616130b8565b611069613103565b6000611073613047565b601a8101549091506001600160a01b0316156110b95760405162461bcd60e51b81526020600482015260056024820152640868c8a62760db1b6044820152606401610786565b60008160050154116110f55760405162461bcd60e51b8152602060048201526005602482015264434645313960d81b6044820152606401610786565b600581018054600090915560038201546015830154611121916001600160a01b03918216911683613191565b6040518181527fd31b010191f9d89cc06b6dd03be1b9f43bde90c15bac4dff59228c2f7955edcc9060200161092a565b60008061115c613047565b6001600160a01b038416600090815260208083019052604090206022820154600c83015492935090911415611195575060009392505050565b6000806111a0613275565b915091508360210154826111b49190614ab7565b91508183600201541461122b57601e8401546111d09082614ab7565b90506000846022015485600c01546111e89190614c13565b60228601546111f79084614c13565b85600101546112069190614bd1565b6112109190614acf565b8454909150611220908290614ab7565b979650505050505050565b5050549392505050565b600080611240613047565b905060008160090160009054906101000a90046001600160a01b03166001600160a01b03166318160ddd6040518163ffffffff1660e01b815260040160206040518083038186803b15801561129457600080fd5b505afa1580156112a8573d6000803e3d6000fd5b505050506040513d601f19601f820116820180604052508101906112cc91906148d7565b9050806112dd575060009392505050565b806112e785611151565b836022015484600c01546112fb9190614c13565b6113059190614bd1565b61130f9190614acf565b949350505050565b6000611321613047565b600f015460ff16919050565b6000611337613047565b600c0154905090565b600061134a613047565b60130154905090565b60008061135e613047565b6015810154909150610eb5906001600160a01b03166104c3612706565b6002600054141561139e5760405162461bcd60e51b815260040161078690614a2b565b60026000556113ab61306b565b6113b36130b8565b6000811180156113c857506113c6612706565b155b6113fc5760405162461bcd60e51b8152602060048201526005602482015264434645313160d81b6044820152606401610786565b6000611406613047565b9050600081600c0154116114445760405162461bcd60e51b815260206004820152600560248201526421a322989960d91b6044820152606401610786565b6000816010015411801561145a57506011810154155b61148e5760405162461bcd60e51b8152602060048201526005602482015264434645313360d81b6044820152606401610786565b8181600c015461149e9190614c13565b600c820155600b8101546114bc906001600160a01b03163384613191565b6040518281527fe0d30d016ceb913d4c8713e4b669fb40779f0784413e91734de11661307fec719060200161092a565b61151060405180606001604052806000815260200160008152602001600081525090565b611518613047565b6001600160a01b0390921660009081526020928301835260409081902081516060810183528154815260018201549481019490945260020154908301525090565b6000611563613047565b600e0154905090565b6002600054141561158f5760405162461bcd60e51b815260040161078690614a2b565b600260005561159c6130b8565b6115a4613398565b60006115ae613047565b600d8101549091506001600160a01b031633146115dd5760405162461bcd60e51b8152600401610786906149ed565b60008160080154116116195760405162461bcd60e51b8152602060048201526005602482015264434645313760d81b6044820152606401610786565b60008160100154116116555760405162461bcd60e51b8152602060048201526005602482015264043464532360dc1b6044820152606401610786565b6008810180546000909155600d8201546015830154611681916001600160a01b03918216911683613191565b6040518181527fed0a2828dbbe2c36b72ba62c4e09f9d9461c08c99ee66539c48944c53515fb169060200161092a565b600260005414156116d45760405162461bcd60e51b815260040161078690614a2b565b60026000556116e16130b8565b6116e961340e565b6116f1613457565b6001600160a01b03831661172f5760405162461bcd60e51b8152602060048201526005602482015264043464531360dc1b6044820152606401610786565b600061173b8483612a27565b905080831015801561174d5750600081115b6117825760405162461bcd60e51b81526004016107869060208082526004908201526321a3229b60e11b604082015260600190565b6117976001600160a01b03851633308461335a565b60006117a1613047565b60158101549091506001600160a01b038681169116146117d85760158101546117d59086906001600160a01b031684613507565b91505b60006117e3836137d0565b905060006117f18285614c13565b90508083600501546118039190614ab7565b6005840155611810613960565b60008061181b613275565b9092509050811561188e578185602101600082825461183a9190614ab7565b925050819055508085601e0160008282546118559190614ab7565b90915550506040513381527f2402ea96e93c545d77136094874ce61a05f3cef908ffab0008dc452b33bf04289060200160405180910390a15b336000908152602080870190526040902060218601546118c757878160010160008282546118bc9190614ab7565b9091555061198a9050565b856021015481600201541015611966576000866022015487600c01546118ed9190614c13565b876022015488601e01546119019190614c13565b83600101546119109190614bd1565b61191a9190614acf565b9050808260000160008282546119309190614ab7565b909155505060018201548190611947908b90614ab7565b6119519190614c13565b6001830155506021860154600282015561198a565b856021015481600201541415610c0457878160010160008282546118bc9190614ab7565b60098601546040516370a0823160e01b81523360048201526001600160a01b03909116906370a082319060240160206040518083038186803b1580156119cf57600080fd5b505afa1580156119e3573d6000803e3d6000fd5b505050506040513d601f19601f82011682018060405250810190611a0791906148d7565b611a2357601b86018054906000611a1d83614ca8565b91905055505b60098601546040516340c10f1960e01b8152336004820152602481018a90526001600160a01b03909116906340c10f1990604401600060405180830381600087803b158015611a7157600080fd5b505af1158015611a85573d6000803e3d6000fd5b5050604080518a8152602081018c90526001600160a01b038e1693503392507f51bcbd102d66094099b644f853cfe71e65ffb400ccf665686e033752c4fb1dcf910160405180910390a3505060016000555050505050505050565b600080611aeb613047565b90506000611af7612706565b90506000611b0482610586565b905060008360090160009054906101000a90046001600160a01b03166001600160a01b031663313ce5676040518163ffffffff1660e01b815260040160206040518083038186803b158015611b5857600080fd5b505afa158015611b6c573d6000803e3d6000fd5b505050506040513d601f19601f82011682018060405250810190611b909190614912565b611b9b90600a614b26565b905080611ba88484614bd1565b611bb29190614acf565b94505050505090565b60026000541415611bde5760405162461bcd60e51b815260040161078690614a2b565b6002600055611beb6130b8565b611bf3613457565b6000611bfd613047565b60098101546040516370a0823160e01b81523360048201529192506000916001600160a01b03909116906370a082319060240160206040518083038186803b158015611c4857600080fd5b505afa158015611c5c573d6000803e3d6000fd5b505050506040513d601f19601f82011682018060405250810190611c8091906148d7565b90506001600160a01b038416611cc05760405162461bcd60e51b8152602060048201526005602482015264043464531360dc1b6044820152606401610786565b828110158015611cd05750600083115b611d055760405162461bcd60e51b8152600401610786906020808252600490820152630868c8a760e31b604082015260600190565b6015820154600090611d20906001600160a01b0316856122e4565b601584015490915081906001600160a01b03878116911614611d58576015840154611d55906001600160a01b03168784613507565b90505b81846005016000828254611d6c9190614c13565b90915550611d7a9050613960565b600080611d85613275565b90925090508115611df85781866021016000828254611da49190614ab7565b925050819055508086601e016000828254611dbf9190614ab7565b90915550506040513381527f2402ea96e93c545d77136094874ce61a05f3cef908ffab0008dc452b33bf04289060200160405180910390a15b33600090815260208088019052604090206021870154611e315787816001016000828254611e269190614c13565b90915550611f649050565b866021015481600201541015611f0f576000876022015488600c0154611e579190614c13565b886022015489601e0154611e6b9190614c13565b8360010154611e7a9190614bd1565b611e849190614acf565b9050611e90818a614ab7565b826001015410611ed95780826000016000828254611eae9190614ab7565b909155505060018201548190611ec5908b90614c13565b611ecf9190614c13565b6001830155611eff565b600182015482548a91611eeb91614ab7565b611ef59190614c13565b8255600060018301555b5060218701546002820155611f64565b866021015481600201541415610c045787816001015410611f3e5787816001016000828254611e269190614c13565b600181015481548991611f5091614ab7565b611f5a9190614c13565b8155600060018201555b600080600f89015460ff166001811115611f8e57634e487b7160e01b600052602160045260246000fd5b1415611f9f57506005870154611fa6565b5060068701545b60008860110154118015611fbd575087600e015481105b15611fca57600060118901555b6009880154604051632770a7eb60e21b8152336004820152602481018b90526001600160a01b0390911690639dc29fac90604401600060405180830381600087803b15801561201857600080fd5b505af115801561202c573d6000803e3d6000fd5b5050505060098801546040516370a0823160e01b81523360048201526001600160a01b03909116906370a082319060240160206040518083038186803b15801561207557600080fd5b505afa158015612089573d6000803e3d6000fd5b505050506040513d601f19601f820116820180604052508101906120ad91906148d7565b6120c957601b880180549060006120c383614c56565b91905055505b6120dd6001600160a01b038b163387613191565b60405189815233907f5bfff0e77e5716571ce8d840b9c80c60eb46fe2d7630d37d4287345b1f5b5f8b9060200160405180910390a2505060016000555050505050505050565b600061212d613047565b600901546040516370a0823160e01b81526001600160a01b038481166004830152909116906370a082319060240160206040518083038186803b15801561217357600080fd5b505afa158015612187573d6000803e3d6000fd5b505050506040513d601f19601f820116820180604052508101906121ab91906148d7565b92915050565b60006121bb613047565b601501546001600160a01b0316919050565b6000806121d8613047565b905060006121e4613275565b91505081601e0154816121f79190614ab7565b90508160220154816122099190614c13565b9250505090565b606061221a613047565b600401805461222890614c6d565b80601f016020809104026020016040519081016040528092919081815260200182805461225490614c6d565b80156122a15780601f10612276576101008083540402835291602001916122a1565b820191906000526020600020905b81548152906001019060200180831161228457829003601f168201915b5050505050905090565b60006122b5613047565b60290154905090565b60006122c8613047565b60050154905090565b60006122db613047565b60070154905090565b6000806122ef613047565b905060006122fb612706565b905081600c015460001415612315576000925050506121ab565b83158061232157508381105b15612331576000925050506121ab565b6015820154601683015460009161ffff600160c01b8204811692600160d01b9092041690612360906032614bd1565b61236a9190614bd1565b6123749190614bd1565b90506000612385612710600a614bd1565b60178501546016860154601587015460405163bb9e5a7f60e01b8152600481018890526024810192909252600a6044830152600160d01b900461ffff16606482015291925060009182916001600160a01b03169063bb9e5a7f90608401604080518083038186803b1580156123f957600080fd5b505afa15801561240d573d6000803e3d6000fd5b505050506040513d601f19601f8201168201806040525081019061243191906148ef565b601788015491935091506000906001600160a01b031663a0175ab386856124588887614bd1565b6040516001600160e01b031960e086901b16815260048101939093526024830191909152604482015260640160206040518083038186803b15801561249c57600080fd5b505afa1580156124b0573d6000803e3d6000fd5b505050506040513d601f19601f820116820180604052508101906124d491906148d7565b9050600089871461263d57601788015460009081906001600160a01b031663bb9e5a7f6125018e8c614c13565b60168d015460158e015460405160e085901b6001600160e01b031916815260048101939093526024830191909152600a6044830152600160d01b900461ffff166064820152608401604080518083038186803b15801561256057600080fd5b505afa158015612574573d6000803e3d6000fd5b505050506040513d601f19601f8201168201806040525081019061259891906148ef565b60178c015491935091506001600160a01b031663a0175ab389846125bc8b86614bd1565b6040516001600160e01b031960e086901b16815260048101939093526024830191909152604482015260640160206040518083038186803b15801561260057600080fd5b505afa158015612614573d6000803e3d6000fd5b505050506040513d601f19601f8201168201806040525081019061263891906148d7565b925050505b60006126498284614c13565b60158a01549091506001600160a01b038d811691161461268d57601589015461267d908d906001600160a01b031683613cb2565b99505050505050505050506121ab565b9b9a5050505050505050505050565b60006126a6613047565b60150154600160a01b900461ffff16919050565b60006126c4613047565b601b0154905090565b60006127106126da613047565b60150154600160c01b900461ffff166126f284610586565b6126fc9190614bd1565b6121ab9190614acf565b600080612711613047565b905080600a01548160090160009054906101000a90046001600160a01b03166001600160a01b03166318160ddd6040518163ffffffff1660e01b815260040160206040518083038186803b15801561276857600080fd5b505afa15801561277c573d6000803e3d6000fd5b505050506040513d601f19601f820116820180604052508101906127a091906148d7565b610eb59190614ab7565b60006127b4613047565b60120154905090565b6000806127c8613047565b905060008160090160009054906101000a90046001600160a01b03166001600160a01b03166318160ddd6040518163ffffffff1660e01b815260040160206040518083038186803b15801561281c57600080fd5b505afa158015612830573d6000803e3d6000fd5b505050506040513d601f19601f8201168201806040525081019061285491906148d7565b905080612865575060009392505050565b8084836022015484600c01546112fb9190614c13565b600080600080612889613047565b9050600081601001541180156128a3575080601001544210155b9350600081600c0154119250600081601101541180156128e557508060130154816012015482601101546128d79190614ab7565b6128e19190614ab7565b4210155b915050909192565b600260005414156129105760405162461bcd60e51b815260040161078690614a2b565b600260005561291d61306b565b6129256130b8565b600061292f613047565b9050600081601001541161296d5760405162461bcd60e51b815260206004820152600560248201526421a322989b60d91b6044820152606401610786565b6000816007015482600601546129839190614c13565b9050600081116129bd5760405162461bcd60e51b8152602060048201526005602482015264434645313760d81b6044820152606401610786565b808260070160008282546129d19190614ab7565b9091555050600382015460158301546129f7916001600160a01b03918216911683613191565b6040518181527f86292661a7db08fd22e56ea339c3e180a5ceef7dc9d3077ea3e7fd08263909279060200161092a565b600080612a32613047565b905080600c015460001415612a4b5760009150506121ab565b6001600160a01b0384161580612a5f575082155b15612a6e5760009150506121ab565b60158101546016820154600091600160d01b900461ffff1690612a92906032614bd1565b612a9c9190614bd1565b9050600a6000612aaa612706565b601785015490915060009081906001600160a01b031663bb9e5a7f612acf8a86614ab7565b601689015460158a015460405160e085901b6001600160e01b031916815260048101939093526024830191909152600a6044830152600160d01b900461ffff166064820152608401604080518083038186803b158015612b2e57600080fd5b505afa158015612b42573d6000803e3d6000fd5b505050506040513d601f19601f82011682018060405250810190612b6691906148ef565b601788015491935091506000906001600160a01b031663a0175ab38785612b8d8987614bd1565b6040516001600160e01b031960e086901b16815260048101939093526024830191909152604482015260640160206040518083038186803b158015612bd157600080fd5b505afa158015612be5573d6000803e3d6000fd5b505050506040513d601f19601f82011682018060405250810190612c0991906148d7565b905060008415612d63576017880154601689015460158a015460405163bb9e5a7f60e01b8152600481018990526024810192909252600a6044830152600160d01b900461ffff16606482015260009182916001600160a01b039091169063bb9e5a7f90608401604080518083038186803b158015612c8657600080fd5b505afa158015612c9a573d6000803e3d6000fd5b505050506040513d601f19601f82011682018060405250810190612cbe91906148ef565b60178c015491935091506001600160a01b031663a0175ab38a84612ce28c86614bd1565b6040516001600160e01b031960e086901b16815260048101939093526024830191909152604482015260640160206040518083038186803b158015612d2657600080fd5b505afa158015612d3a573d6000803e3d6000fd5b505050506040513d601f19601f82011682018060405250810190612d5e91906148d7565b925050505b6000612d6f8284614c13565b60158a015490915060009061ffff600160b01b8204811691612d9c91600160a01b90910416612710614bf0565b612da69190614bf0565b61ffff16905080612db961271084614bd1565b612dc39190614acf565b60158b01549092506001600160a01b038e8116911614612e085760158a0154612df7908e906001600160a01b031684613f7a565b9a50505050505050505050506121ab565b509b9a5050505050505050505050565b600080612e23613047565b905060008160090160009054906101000a90046001600160a01b03166001600160a01b03166318160ddd6040518163ffffffff1660e01b815260040160206040518083038186803b158015612e7757600080fd5b505afa158015612e8b573d6000803e3d6000fd5b505050506040513d601f19601f82011682018060405250810190612eaf91906148d7565b905080612ebf5760009250505090565b600b8201546040805163313ce56760e01b815290516000926001600160a01b03169163313ce567916004808301926020929190829003018186803b158015612f0657600080fd5b505afa158015612f1a573d6000803e3d6000fd5b505050506040513d601f19601f82011682018060405250810190612f3e9190614912565b612f4990600a614b26565b90508181846022015485600c0154612f619190614c13565b612f6b9190614bd1565b612f759190614acf565b935050505090565b6000612f87613047565b600d8101549091506001600160a01b03163314612fb65760405162461bcd60e51b8152600401610786906149ed565b60008261ffff16118015612fcf57506127108261ffff16105b6130045760405162461bcd60e51b8152600401610786906020808252600490820152634346453560e01b604082015260600190565b60158101805461ffff909316600160a01b0261ffff60a01b199384168117909155601a9091018054909216179055565b600061303e613047565b60080154905090565b7f62e2821f900c4be3796206df06636dca51d9fa5909ab9d0afe34bd1259d7c3ab90565b613073613047565b600301546001600160a01b031633146130b65760405162461bcd60e51b815260206004820152600560248201526404c494245360dc1b6044820152606401610786565b565b6130c0613047565b60030154600160a01b900460ff16156130b65760405162461bcd60e51b81526020600482015260056024820152642624a1229960d91b6044820152606401610786565b600061310d613047565b905060008160110154116131335760405162461bcd60e51b815260040161078690614a0b565b80601301548160120154826011015461314c9190614ab7565b6131569190614ab7565b42101561318e5760405162461bcd60e51b815260206004820152600660248201526504c49424532360d41b6044820152606401610786565b50565b6040516001600160a01b0383166024820152604481018290526131f490849063a9059cbb60e01b906064015b60408051601f198184030181529190526020810180516001600160e01b03166001600160e01b031990931692909217909152614222565b505050565b6000613203613047565b905060008160110154116132295760405162461bcd60e51b815260040161078690614a0b565b8060120154816011015461323d9190614ab7565b42101561318e5760405162461bcd60e51b81526020600482015260066024820152654c494245313960d01b6044820152606401610786565b6000806000613282613047565b601f81015460009450849350909150156133555760218101545b601f8201548110156133535781601f0181815481106132cb57634e487b7160e01b600052603260045260246000fd5b9060005260206000200154421061333c576132e584614ca8565b935081601d01600083601f01838154811061331057634e487b7160e01b600052603260045260246000fd5b9060005260206000200154815260200190815260200160002054836133359190614ab7565b9250613341565b613353565b8061334b81614ca8565b91505061329c565b505b509091565b6040516001600160a01b03808516602483015283166044820152606481018290526133929085906323b872dd60e01b906084016131bd565b50505050565b60006133a2613047565b9050600080600f83015460ff1660018111156133ce57634e487b7160e01b600052602160045260246000fd5b14156133df575060058101546133e6565b5060068101545b81600e015481101561340a5760405162461bcd60e51b815260040161078690614a0b565b5050565b6000613418613047565b9050600081600c01541161318e5760405162461bcd60e51b81526020600482015260066024820152652624a122989b60d11b6044820152606401610786565b6000613461613047565b905060008160100154116134a05760405162461bcd60e51b8152602060048201526006602482015265131250914c4d60d21b6044820152606401610786565b601181015415806134d257508060130154816012015482601101546134c59190614ab7565b6134cf9190614ab7565b42105b61318e5760405162461bcd60e51b81526020600482015260066024820152654c494245313560d01b6044820152606401610786565b60006135316001600160a01b038516737a250d5630b4cf539739df2c5dacb4c659f2488d846142f4565b60606001600160a01b03851673c02aaa39b223fe8d0a0e5c4f27ead9083c756cc2148061357a57506001600160a01b03841673c02aaa39b223fe8d0a0e5c4f27ead9083c756cc2145b1561362857604080516002808252606082018352909160208301908036833701905050905084816000815181106135c157634e487b7160e01b600052603260045260246000fd5b60200260200101906001600160a01b031690816001600160a01b031681525050838160018151811061360357634e487b7160e01b600052603260045260246000fd5b60200260200101906001600160a01b031690816001600160a01b031681525050613724565b604080516003808252608082019092529060208201606080368337019050509050848160008151811061366b57634e487b7160e01b600052603260045260246000fd5b60200260200101906001600160a01b031690816001600160a01b03168152505073c02aaa39b223fe8d0a0e5c4f27ead9083c756cc2816001815181106136c157634e487b7160e01b600052603260045260246000fd5b60200260200101906001600160a01b031690816001600160a01b031681525050838160028151811061370357634e487b7160e01b600052603260045260246000fd5b60200260200101906001600160a01b031690816001600160a01b0316815250505b61372f858585613cb2565b6040516338ed173960e01b8152909250737a250d5630b4cf539739df2c5dacb4c659f2488d906338ed1739906137719086908690869030904290600401614a7b565b600060405180830381600087803b15801561378b57600080fd5b505af115801561379f573d6000803e3d6000fd5b505050506040513d6000823e601f3d908101601f191682016040526137c791908101906147bd565b50509392505050565b600080821161380a5760405162461bcd60e51b8152600401610786906020808252600490820152634346453760e01b604082015260600190565b6000613814613047565b60158101549091506000906127109061383890600160a01b900461ffff1686614bd1565b6138429190614acf565b9050808260080160008282546138589190614ab7565b9091555061386890508184614ab7565b60158301549093506127109061388990600160b01b900461ffff1686614bd1565b6138939190614acf565b9050808260060160008282546138a99190614ab7565b909155506138b990508184614ab7565b92506000805b83602701548110156139555760008181526026850160209081526040808320546001600160a01b03168084526025880190925290912060018101546127109061391390600160a01b900461ffff168a614bd1565b61391d9190614acf565b945084816002015461392f9190614ab7565b600282015561393e8585614ab7565b93505050808061394d90614ca8565b9150506138bf565b5061070b8185614ab7565b600061396a613047565b9050600080600f83015460ff16600181111561399657634e487b7160e01b600052602160045260246000fd5b14156139a7575060058101546139ae565b5060068101545b81600e015481101580156139c457506011820154155b1561340a57426011830155601f82015461340a5760006139ec83601301548460140154614418565b905060008167ffffffffffffffff811115613a1757634e487b7160e01b600052604160045260246000fd5b604051908082528060200260200182016040528015613a40578160200160208202803683370190505b50600385015460098601546040516bffffffffffffffffffffffff19606093841b811660208301529190921b166034820152909150600090819060480160405160208183030381529060405280519060200120905060005b84811015613b1d57613aaa828261444b565b848281518110613aca57634e487b7160e01b600052603260045260246000fd5b602002602001018181525050838181518110613af657634e487b7160e01b600052603260045260246000fd5b602002602001015183613b099190614ab7565b925080613b1581614ca8565b915050613a98565b50613b278361449d565b600086601201548760110154613b3d9190614ab7565b9050600060018551613b4f9190614c13565b90506000805b82811015613c055760148a0154613b6c9085614ab7565b601f8b01805460018101825560009182526020822001829055600c8c0154895192965090918891908a9085908110613bb457634e487b7160e01b600052603260045260246000fd5b6020026020010151613bc69190614bd1565b613bd09190614acf565b6000868152601d8d01602052604090208190559050613bef8184614ab7565b9250508080613bfd90614ca8565b915050613b55565b50886013015489601201548a60110154613c1f9190614ab7565b613c299190614ab7565b601f8a0180546001810182556000918252602090912001819055600c8a0154909350613c56908290614c13565b6000848152601d8b0160209081526040918290209290925560148b01548151338152928301527f354fbdfab9871871530a7d721715c722f0948b16922d2fcceef7e20b5add780c910160405180910390a1505050505050505050565b600060606001600160a01b03851673c02aaa39b223fe8d0a0e5c4f27ead9083c756cc21480613cfd57506001600160a01b03841673c02aaa39b223fe8d0a0e5c4f27ead9083c756cc2145b15613dab5760408051600280825260608201835290916020830190803683370190505090508481600081518110613d4457634e487b7160e01b600052603260045260246000fd5b60200260200101906001600160a01b031690816001600160a01b0316815250508381600181518110613d8657634e487b7160e01b600052603260045260246000fd5b60200260200101906001600160a01b031690816001600160a01b031681525050613ea7565b6040805160038082526080820190925290602082016060803683370190505090508481600081518110613dee57634e487b7160e01b600052603260045260246000fd5b60200260200101906001600160a01b031690816001600160a01b03168152505073c02aaa39b223fe8d0a0e5c4f27ead9083c756cc281600181518110613e4457634e487b7160e01b600052603260045260246000fd5b60200260200101906001600160a01b031690816001600160a01b0316815250508381600281518110613e8657634e487b7160e01b600052603260045260246000fd5b60200260200101906001600160a01b031690816001600160a01b0316815250505b60405163d06ca61f60e01b8152600090737a250d5630b4cf539739df2c5dacb4c659f2488d9063d06ca61f90613ee39087908690600401614a62565b60006040518083038186803b158015613efb57600080fd5b505afa158015613f0f573d6000803e3d6000fd5b505050506040513d6000823e601f3d908101601f19168201604052613f3791908101906147bd565b90508060018351613f489190614c13565b81518110613f6657634e487b7160e01b600052603260045260246000fd5b6020026020010151925050505b9392505050565b600060606001600160a01b03851673c02aaa39b223fe8d0a0e5c4f27ead9083c756cc21480613fc557506001600160a01b03841673c02aaa39b223fe8d0a0e5c4f27ead9083c756cc2145b15614073576040805160028082526060820183529091602083019080368337019050509050848160008151811061400c57634e487b7160e01b600052603260045260246000fd5b60200260200101906001600160a01b031690816001600160a01b031681525050838160018151811061404e57634e487b7160e01b600052603260045260246000fd5b60200260200101906001600160a01b031690816001600160a01b03168152505061416f565b60408051600380825260808201909252906020820160608036833701905050905084816000815181106140b657634e487b7160e01b600052603260045260246000fd5b60200260200101906001600160a01b031690816001600160a01b03168152505073c02aaa39b223fe8d0a0e5c4f27ead9083c756cc28160018151811061410c57634e487b7160e01b600052603260045260246000fd5b60200260200101906001600160a01b031690816001600160a01b031681525050838160028151811061414e57634e487b7160e01b600052603260045260246000fd5b60200260200101906001600160a01b031690816001600160a01b0316815250505b6040516307c0329d60e21b8152600090737a250d5630b4cf539739df2c5dacb4c659f2488d90631f00ca74906141ab9087908690600401614a62565b60006040518083038186803b1580156141c357600080fd5b505afa1580156141d7573d6000803e3d6000fd5b505050506040513d6000823e601f3d908101601f191682016040526141ff91908101906147bd565b905080600081518110613f6657634e487b7160e01b600052603260045260246000fd5b6000614277826040518060400160405280602081526020017f5361666545524332303a206c6f772d6c6576656c2063616c6c206661696c6564815250856001600160a01b03166146289092919063ffffffff16565b8051909150156131f45780806020019051810190614295919061487d565b6131f45760405162461bcd60e51b815260206004820152602a60248201527f5361666545524332303a204552433230206f7065726174696f6e20646964206e6044820152691bdd081cdd58d8d9595960b21b6064820152608401610786565b80158061437d5750604051636eb1769f60e11b81523060048201526001600160a01b03838116602483015284169063dd62ed3e9060440160206040518083038186803b15801561434357600080fd5b505afa158015614357573d6000803e3d6000fd5b505050506040513d601f19601f8201168201806040525081019061437b91906148d7565b155b6143e85760405162461bcd60e51b815260206004820152603660248201527f5361666545524332303a20617070726f76652066726f6d206e6f6e2d7a65726f60448201527520746f206e6f6e2d7a65726f20616c6c6f77616e636560501b6064820152608401610786565b6040516001600160a01b0383166024820152604481018290526131f490849063095ea7b360e01b906064016131bd565b6000806144258385614acf565b90506144318382614bd1565b841115613f7357614443816001614ab7565b9150506121ab565b600062989680838360405160200161446d929190918252602082015260400190565b6040516020818303038152906040528051906020012060001c6144909190614cc3565b613f739062989680614ab7565b60008060005b600184516144b19190614c13565b811015613392578381815181106144d857634e487b7160e01b600052603260045260246000fd5b6020026020010151915080925060008160016144f49190614ab7565b90505b845181101561456f578285828151811061452157634e487b7160e01b600052603260045260246000fd5b6020026020010151101561455d5780935084818151811061455257634e487b7160e01b600052603260045260246000fd5b602002602001015192505b8061456781614ca8565b9150506144f7565b5083838151811061459057634e487b7160e01b600052603260045260246000fd5b60200260200101518482815181106145b857634e487b7160e01b600052603260045260246000fd5b60200260200101518583815181106145e057634e487b7160e01b600052603260045260246000fd5b6020026020010186868151811061460757634e487b7160e01b600052603260045260246000fd5b6020908102919091010191909152528061462081614ca8565b9150506144a3565b606061130f8484600085856001600160a01b0385163b61468a5760405162461bcd60e51b815260206004820152601d60248201527f416464726573733a2063616c6c20746f206e6f6e2d636f6e74726163740000006044820152606401610786565b600080866001600160a01b031685876040516146a69190614976565b60006040518083038185875af1925050503d80600081146146e3576040519150601f19603f3d011682016040523d82523d6000602084013e6146e8565b606091505b509150915061122082828660608315614702575081613f73565b8251156147125782518084602001fd5b8160405162461bcd60e51b815260040161078691906149ba565b80356001600160a01b038116811461474357600080fd5b919050565b600060208284031215614759578081fd5b613f738261472c565b60008060408385031215614774578081fd5b61477d8361472c565b946020939093013593505050565b60008060006060848603121561479f578081fd5b6147a88461472c565b95602085013595506040909401359392505050565b600060208083850312156147cf578182fd5b825167ffffffffffffffff808211156147e6578384fd5b818501915085601f8301126147f9578384fd5b81518181111561480b5761480b614d03565b8060051b604051601f19603f8301168101818110858211171561483057614830614d03565b604052828152858101935084860182860187018a101561484e578788fd5b8795505b83861015614870578051855260019590950194938601938601614852565b5098975050505050505050565b60006020828403121561488e578081fd5b81518015158114613f73578182fd5b6000602082840312156148ae578081fd5b813561ffff81168114613f73578182fd5b6000602082840312156148d0578081fd5b5035919050565b6000602082840312156148e8578081fd5b5051919050565b60008060408385031215614901578182fd5b505080516020909101519092909150565b600060208284031215614923578081fd5b815160ff81168114613f73578182fd5b6000815180845260208085019450808401835b8381101561496b5781516001600160a01b031687529582019590820190600101614946565b509495945050505050565b60008251614988818460208701614c2a565b9190910192915050565b60208101600283106149b457634e487b7160e01b600052602160045260246000fd5b91905290565b60208152600082518060208401526149d9816040850160208701614c2a565b601f01601f19169190910160400192915050565b6020808252600490820152634346453160e01b604082015260600190565b6020808252600690820152654c494245313760d01b604082015260600190565b6020808252601f908201527f5265656e7472616e637947756172643a207265656e7472616e742063616c6c00604082015260600190565b82815260406020820152600061130f6040830184614933565b85815284602082015260a060408201526000614a9a60a0830186614933565b6001600160a01b0394909416606083015250608001529392505050565b60008219821115614aca57614aca614cd7565b500190565b600082614ade57614ade614ced565b500490565b600181815b80851115614b1e578160001904821115614b0457614b04614cd7565b80851615614b1157918102915b93841c9390800290614ae8565b509250929050565b6000613f7360ff841683600082614b3f575060016121ab565b81614b4c575060006121ab565b8160018114614b625760028114614b6c57614b88565b60019150506121ab565b60ff841115614b7d57614b7d614cd7565b50506001821b6121ab565b5060208310610133831016604e8410600b8410161715614bab575081810a6121ab565b614bb58383614ae3565b8060001904821115614bc957614bc9614cd7565b029392505050565b6000816000190483118215151615614beb57614beb614cd7565b500290565b600061ffff83811690831681811015614c0b57614c0b614cd7565b039392505050565b600082821015614c2557614c25614cd7565b500390565b60005b83811015614c45578181015183820152602001614c2d565b838111156133925750506000910152565b600081614c6557614c65614cd7565b506000190190565b600181811c90821680614c8157607f821691505b60208210811415614ca257634e487b7160e01b600052602260045260246000fd5b50919050565b6000600019821415614cbc57614cbc614cd7565b5060010190565b600082614cd257614cd2614ced565b500690565b634e487b7160e01b600052601160045260246000fd5b634e487b7160e01b600052601260045260246000fd5b634e487b7160e01b600052604160045260246000fdfea2646970667358221220cfc43e340ad790052aadebef505338afed7523d26dce6a3eb9a4dfad005377ed64736f6c63430008040033",
  "linkReferences": {},
  "deployedLinkReferences": {}
}