{
  "_format": "hh-sol-artifact-1",
  "contractName": "DiamondLoupeFacet",
  "sourceName": "contracts/facets/DiamondLoupeFacet.sol",
  "abi": [
    {
      "inputs": [
        {
          "internalType": "bytes4",
          "name": "_functionSelector",
          "type": "bytes4"
        }
      ],
      "name": "facetAddress",
      "outputs": [
        {
          "internalType": "address",
          "name": "facetAddress_",
          "type": "address"
        }
      ],
      "stateMutability": "view",
      "type": "function"
    },
    {
      "inputs": [],
      "name": "facetAddresses",
      "outputs": [
        {
          "internalType": "address[]",
          "name": "facetAddresses_",
          "type": "address[]"
        }
      ],
      "stateMutability": "view",
      "type": "function"
    },
    {
      "inputs": [
        {
          "internalType": "address",
          "name": "_facet",
          "type": "address"
        }
      ],
      "name": "facetFunctionSelectors",
      "outputs": [
        {
          "internalType": "bytes4[]",
          "name": "facetFunctionSelectors_",
          "type": "bytes4[]"
        }
      ],
      "stateMutability": "view",
      "type": "function"
    },
    {
      "inputs": [],
      "name": "facets",
      "outputs": [
        {
          "components": [
            {
              "internalType": "address",
              "name": "facetAddress",
              "type": "address"
            },
            {
              "internalType": "bytes4[]",
              "name": "functionSelectors",
              "type": "bytes4[]"
            }
          ],
          "internalType": "struct IDiamondLoupe.Facet[]",
          "name": "facets_",
          "type": "tuple[]"
        }
      ],
      "stateMutability": "view",
      "type": "function"
    }
  ],
  "bytecode": "0x608060405234801561001057600080fd5b50610631806100206000396000f3fe608060405234801561001057600080fd5b506004361061004c5760003560e01c806352ef6b2c146100515780637a0ed6271461006f578063adfca15e14610084578063cdffacc6146100a4575b600080fd5b6100596100fc565b60405161006691906104d8565b60405180910390f35b61007761016f565b6040516100669190610538565b61009761009236600461043e565b610372565b6040516100669190610525565b6100e46100b236600461046c565b6001600160e01b03191660009081526000805160206105dc83398151915260205260409020546001600160a01b031690565b6040516001600160a01b039091168152602001610066565b606060006000805160206105dc8339815191526002810180546040805160208084028201810190925282815293945083018282801561016457602002820191906000526020600020905b81546001600160a01b03168152600190910190602001808311610146575b505050505091505090565b7f62e2821f900c4be3796206df06636dca51d9fa5909ab9d0afe34bd1259d7c3ad546060906000805160206105dc833981519152908067ffffffffffffffff8111156101cb57634e487b7160e01b600052604160045260246000fd5b60405190808252806020026020018201604052801561021157816020015b6040805180820190915260008152606060208201528152602001906001900390816101e95790505b50925060005b8181101561036c57600083600201828154811061024457634e487b7160e01b600052603260045260246000fd5b9060005260206000200160009054906101000a90046001600160a01b031690508085838151811061028557634e487b7160e01b600052603260045260246000fd5b6020908102919091018101516001600160a01b03928316905290821660009081526001860182526040908190208054825181850281018501909352808352919290919083018282801561032457602002820191906000526020600020906000905b82829054906101000a900460e01b6001600160e01b031916815260200190600401906020826003010492830192600103820291508084116102e65790505b505050505085838151811061034957634e487b7160e01b600052603260045260246000fd5b602002602001015160200181905250508080610364906105b4565b915050610217565b50505090565b6001600160a01b03811660009081527f62e2821f900c4be3796206df06636dca51d9fa5909ab9d0afe34bd1259d7c3ac602090815260409182902080548351818402810184019094528084526060936000805160206105dc833981519152939092919083018282801561043157602002820191906000526020600020906000905b82829054906101000a900460e01b6001600160e01b031916815260200190600401906020826003010492830192600103820291508084116103f35790505b5050505050915050919050565b60006020828403121561044f578081fd5b81356001600160a01b0381168114610465578182fd5b9392505050565b60006020828403121561047d578081fd5b81356001600160e01b031981168114610465578182fd5b6000815180845260208085019450808401835b838110156104cd5781516001600160e01b031916875295820195908201906001016104a7565b509495945050505050565b6020808252825182820181905260009190848201906040850190845b818110156105195783516001600160a01b0316835292840192918401916001016104f4565b50909695505050505050565b6020815260006104656020830184610494565b60006020808301818452808551808352604092508286019150828160051b870101848801865b838110156105a657888303603f19018552815180516001600160a01b0316845287015187840187905261059387850182610494565b958801959350509086019060010161055e565b509098975050505050505050565b60006000198214156105d457634e487b7160e01b81526011600452602481fd5b506001019056fe62e2821f900c4be3796206df06636dca51d9fa5909ab9d0afe34bd1259d7c3aba26469706673582212205bc6d3ae0b6512e4efdfac9a323baf84d14805878e8deb574748c8534ca241d664736f6c63430008040033",
  "linkReferences": {},
  "deployedLinkReferences": {}
}