{
  "_format": "hh-sol-artifact-1",
  "contractName": "MarketFacet",
  "sourceName": "contracts/facets/MarketFacet.sol",
  "abi": [
    {
      "anonymous": false,
      "inputs": [
        {
          "indexed": false,
          "internalType": "address",
          "name": "stCoin",
          "type": "address"
        },
        {
          "indexed": false,
          "internalType": "uint256",
          "name": "feeAmt",
          "type": "uint256"
        }
      ],
      "name": "ClaimMarketFee",
      "type": "event"
    },
    {
      "anonymous": false,
      "inputs": [
        {
          "indexed": false,
          "internalType": "address",
          "name": "market",
          "type": "address"
        }
      ],
      "name": "RemoveMarket",
      "type": "event"
    },
    {
      "anonymous": false,
      "inputs": [
        {
          "indexed": false,
          "internalType": "address",
          "name": "market",
          "type": "address"
        }
      ],
      "name": "RemoveReqMarket",
      "type": "event"
    },
    {
      "anonymous": false,
      "inputs": [
        {
          "indexed": false,
          "internalType": "address",
          "name": "market",
          "type": "address"
        }
      ],
      "name": "RequestMarket",
      "type": "event"
    },
    {
      "anonymous": false,
      "inputs": [
        {
          "indexed": false,
          "internalType": "address",
          "name": "stCoin",
          "type": "address"
        },
        {
          "indexed": false,
          "internalType": "uint256",
          "name": "feePt",
          "type": "uint256"
        },
        {
          "indexed": false,
          "internalType": "address",
          "name": "market",
          "type": "address"
        }
      ],
      "name": "SetMarket",
      "type": "event"
    },
    {
      "inputs": [
        {
          "internalType": "address",
          "name": "_market",
          "type": "address"
        }
      ],
      "name": "claimMarketFee",
      "outputs": [],
      "stateMutability": "nonpayable",
      "type": "function"
    },
    {
      "inputs": [
        {
          "internalType": "address",
          "name": "_market",
          "type": "address"
        }
      ],
      "name": "getMarketFeeAmt",
      "outputs": [
        {
          "internalType": "uint256",
          "name": "",
          "type": "uint256"
        }
      ],
      "stateMutability": "view",
      "type": "function"
    },
    {
      "inputs": [
        {
          "internalType": "address",
          "name": "_market",
          "type": "address"
        }
      ],
      "name": "getMarketInfo",
      "outputs": [
        {
          "components": [
            {
              "internalType": "uint256",
              "name": "marketId",
              "type": "uint256"
            },
            {
              "internalType": "address",
              "name": "marketStCoin",
              "type": "address"
            },
            {
              "internalType": "uint16",
              "name": "marketFeePt",
              "type": "uint16"
            },
            {
              "internalType": "uint256",
              "name": "marketFeeAmt",
              "type": "uint256"
            }
          ],
          "internalType": "struct LibCFDiamond.Market",
          "name": "",
          "type": "tuple"
        }
      ],
      "stateMutability": "view",
      "type": "function"
    },
    {
      "inputs": [
        {
          "internalType": "address",
          "name": "_market",
          "type": "address"
        }
      ],
      "name": "getMarketStatus",
      "outputs": [
        {
          "internalType": "enum LibCFDiamond.MarketStatus",
          "name": "",
          "type": "uint8"
        }
      ],
      "stateMutability": "view",
      "type": "function"
    },
    {
      "inputs": [
        {
          "internalType": "address",
          "name": "_market",
          "type": "address"
        }
      ],
      "name": "hasJoinedMarket",
      "outputs": [
        {
          "internalType": "bool",
          "name": "",
          "type": "bool"
        }
      ],
      "stateMutability": "view",
      "type": "function"
    },
    {
      "inputs": [
        {
          "internalType": "address",
          "name": "_market",
          "type": "address"
        }
      ],
      "name": "requestMarket",
      "outputs": [],
      "stateMutability": "nonpayable",
      "type": "function"
    },
    {
      "inputs": [],
      "name": "rmMarket",
      "outputs": [],
      "stateMutability": "nonpayable",
      "type": "function"
    },
    {
      "inputs": [
        {
          "internalType": "address",
          "name": "_market",
          "type": "address"
        }
      ],
      "name": "rmReqMarket",
      "outputs": [],
      "stateMutability": "nonpayable",
      "type": "function"
    },
    {
      "inputs": [
        {
          "internalType": "address",
          "name": "_marketStCoin",
          "type": "address"
        },
        {
          "internalType": "uint16",
          "name": "_feePt",
          "type": "uint16"
        }
      ],
      "name": "setMarket",
      "outputs": [],
      "stateMutability": "nonpayable",
      "type": "function"
    }
  ],
  "bytecode": "0x608060405234801561001057600080fd5b50600160005561180a806100256000396000f3fe608060405234801561001057600080fd5b50600436106100935760003560e01c8063883557851161006657806388355785146101f4578063a22f4723146101fc578063cfa7ce6714610255578063e382cab014610268578063fb9ec9c01461027b57600080fd5b80630cf85bcc1461009857806316feafc8146101865780636cf027461461019b5780637f8e9096146101e1575b600080fd5b61013d6100a6366004611462565b60408051608080820183526000808352602080840182905283850182905260609384018290526001600160a01b0395861682527f62e2821f900c4be3796206df06636dca51d9fa5909ab9d0afe34bd1259d7c3d08152908490208451928301855280548352600181015495861691830191909152600160a01b90940461ffff16928101929092526002909201549181019190915290565b60405161017d9190815181526020808301516001600160a01b03169082015260408083015161ffff16908201526060918201519181019190915260800190565b60405180910390f35b610199610194366004611462565b61029e565b005b6101d46101a9366004611462565b6001600160a01b03166000908152600080516020611795833981519152602052604090205460ff1690565b60405161017d919061160f565b6101996101ef366004611462565b6103d1565b6101996105cc565b61024761020a366004611462565b6001600160a01b031660009081527f62e2821f900c4be3796206df06636dca51d9fa5909ab9d0afe34bd1259d7c3d0602052604090206002015490565b60405190815260200161017d565b61019961026336600461147c565b6106eb565b610199610276366004611462565b610916565b61028e610289366004611462565b610a30565b604051901515815260200161017d565b6001600160a01b0381166102cd5760405162461bcd60e51b81526004016102c49061166a565b60405180910390fd5b6102d5610a82565b6001600160a01b038116600090815260008051602061179583398151915260205260408120546000805160206117b5833981519152919060ff16600281111561032e57634e487b7160e01b600052602160045260246000fd5b146103735760405162461bcd60e51b815260206004820152601560248201527410d18e881053149150511657d49154555154d51151605a1b60448201526064016102c4565b6001600160a01b0382166000818152602483016020908152604091829020805460ff1916600117905590519182527fc72bc4495af29d28b95a155edbfb07f0573b4368c37179394142d6c43fd3215a91015b60405180910390a15050565b600260005414156104245760405162461bcd60e51b815260206004820152601f60248201527f5265656e7472616e637947756172643a207265656e7472616e742063616c6c0060448201526064016102c4565b60026000556001600160a01b03811661044f5760405162461bcd60e51b81526004016102c49061166a565b6001600160a01b03811660009081527f62e2821f900c4be3796206df06636dca51d9fa5909ab9d0afe34bd1259d7c3d06020526040902060028101546000805160206117b583398151915291906104d55760405162461bcd60e51b815260206004820152600a60248201526943463a204e4f5f46454560b01b60448201526064016102c4565b6000606482600201546104e89190611701565b905060008183600201546104fc9190611721565b60006002850155601585015490915061051f906001600160a01b03163384610ad6565b601584015460018401546001600160a01b0390811691161461055f576015840154600184015461055c916001600160a01b03908116911683610b3e565b90505b6001830154610578906001600160a01b03168683610ad6565b6001830154604080516001600160a01b039092168252602082018390527f25dbb4bcb658803ae43d5fc8947a467a39ed6fc5634be01a29b44e686d5d8ae0910160405180910390a150506001600055505050565b33600090815260008051602061179583398151915260205260408120546000805160206117b5833981519152919060ff16600281111561061c57634e487b7160e01b600052602160045260246000fd5b111561063c573360009081526024820160205260409020805460ff191690555b336000818152602583016020908152604080832080548452602686019092529091205490916001600160a01b0390911614156106bb5780546000908152602683016020908152604080832080546001600160a01b03191690553383526025850190915281208181556001810180546001600160b01b0319169055600201555b6040513381527fc14aef421d4ad67b24691f0e51a4706ba86588e0a70f137686bffee5e0b0b508906020016103c5565b60008161ffff1611801561070457506127108161ffff16105b6107395760405162461bcd60e51b8152602060048201526006602482015265131250914c8d60d21b60448201526064016102c4565b33600090815260008051602061179583398151915260205260408120546000805160206117b5833981519152919060ff16600281111561078957634e487b7160e01b600052602160045260246000fd5b116107cb5760405162461bcd60e51b815260206004820152601260248201527110d18e881253959053125117d3505492d15560721b60448201526064016102c4565b80602801548160270154106108155760405162461bcd60e51b815260206004820152601060248201526f10d18e8813505492d15517d31253525560821b60448201526064016102c4565b6027810180546000818152602684016020526040902080546001600160a01b0319163317905590546108489060016116e9565b6027830155336000908152602583016020526040902081815560018101805461ffff8616600160a01b026001600160b01b03199091166001600160a01b03881617179055600233600090815260248501602052604090205460ff1660028111156108c257634e487b7160e01b600052602160045260246000fd5b5050604080516001600160a01b038716815261ffff86166020820152338183015290517f600cb8bf4de6dbcc2aa6e95a623077f7c3416a3cf038f0aa71ad0a7d15df42079181900360600190a15050505050565b6001600160a01b03811661093c5760405162461bcd60e51b81526004016102c49061166a565b610944610a82565b6001600160a01b038116600090815260008051602061179583398151915260205260409020546000805160206117b58339815191529060019060ff16600281111561099f57634e487b7160e01b600052602160045260246000fd5b146109dd5760405162461bcd60e51b815260206004820152600e60248201526d10d18e881393d7d49154555154d560921b60448201526064016102c4565b6001600160a01b0382166000818152602483016020908152604091829020805460ff1916905590519182527f1cd83ea547c64f15df9ce683bd0834255b7505b3ff567aff467c38395c68a9e291016103c5565b6001600160a01b0381166000908152600080516020611795833981519152602052604081205460019060ff166002811115610a7b57634e487b7160e01b600052602160045260246000fd5b1492915050565b6000805160206117b5833981519152600301546001600160a01b03163314610ad45760405162461bcd60e51b815260206004820152600560248201526404c494245360dc1b60448201526064016102c4565b565b6040516001600160a01b038316602482015260448101829052610b3990849063a9059cbb60e01b906064015b60408051601f198184030181529190526020810180516001600160e01b03166001600160e01b031990931692909217909152610e07565b505050565b6000610b686001600160a01b038516737a250d5630b4cf539739df2c5dacb4c659f2488d84610ed9565b60606001600160a01b03851673c02aaa39b223fe8d0a0e5c4f27ead9083c756cc21480610bb157506001600160a01b03841673c02aaa39b223fe8d0a0e5c4f27ead9083c756cc2145b15610c5f5760408051600280825260608201835290916020830190803683370190505090508481600081518110610bf857634e487b7160e01b600052603260045260246000fd5b60200260200101906001600160a01b031690816001600160a01b0316815250508381600181518110610c3a57634e487b7160e01b600052603260045260246000fd5b60200260200101906001600160a01b031690816001600160a01b031681525050610d5b565b6040805160038082526080820190925290602082016060803683370190505090508481600081518110610ca257634e487b7160e01b600052603260045260246000fd5b60200260200101906001600160a01b031690816001600160a01b03168152505073c02aaa39b223fe8d0a0e5c4f27ead9083c756cc281600181518110610cf857634e487b7160e01b600052603260045260246000fd5b60200260200101906001600160a01b031690816001600160a01b0316815250508381600281518110610d3a57634e487b7160e01b600052603260045260246000fd5b60200260200101906001600160a01b031690816001600160a01b0316815250505b610d66858585610ffd565b6040516338ed173960e01b8152909250737a250d5630b4cf539739df2c5dacb4c659f2488d906338ed173990610da890869086908690309042906004016116ad565b600060405180830381600087803b158015610dc257600080fd5b505af1158015610dd6573d6000803e3d6000fd5b505050506040513d6000823e601f3d908101601f19168201604052610dfe91908101906114b8565b50509392505050565b6000610e5c826040518060400160405280602081526020017f5361666545524332303a206c6f772d6c6576656c2063616c6c206661696c6564815250856001600160a01b03166112c59092919063ffffffff16565b805190915015610b395780806020019051810190610e7a9190611578565b610b395760405162461bcd60e51b815260206004820152602a60248201527f5361666545524332303a204552433230206f7065726174696f6e20646964206e6044820152691bdd081cdd58d8d9595960b21b60648201526084016102c4565b801580610f625750604051636eb1769f60e11b81523060048201526001600160a01b03838116602483015284169063dd62ed3e9060440160206040518083038186803b158015610f2857600080fd5b505afa158015610f3c573d6000803e3d6000fd5b505050506040513d601f19601f82011682018060405250810190610f609190611598565b155b610fcd5760405162461bcd60e51b815260206004820152603660248201527f5361666545524332303a20617070726f76652066726f6d206e6f6e2d7a65726f60448201527520746f206e6f6e2d7a65726f20616c6c6f77616e636560501b60648201526084016102c4565b6040516001600160a01b038316602482015260448101829052610b3990849063095ea7b360e01b90606401610b02565b600060606001600160a01b03851673c02aaa39b223fe8d0a0e5c4f27ead9083c756cc2148061104857506001600160a01b03841673c02aaa39b223fe8d0a0e5c4f27ead9083c756cc2145b156110f6576040805160028082526060820183529091602083019080368337019050509050848160008151811061108f57634e487b7160e01b600052603260045260246000fd5b60200260200101906001600160a01b031690816001600160a01b03168152505083816001815181106110d157634e487b7160e01b600052603260045260246000fd5b60200260200101906001600160a01b031690816001600160a01b0316815250506111f2565b604080516003808252608082019092529060208201606080368337019050509050848160008151811061113957634e487b7160e01b600052603260045260246000fd5b60200260200101906001600160a01b031690816001600160a01b03168152505073c02aaa39b223fe8d0a0e5c4f27ead9083c756cc28160018151811061118f57634e487b7160e01b600052603260045260246000fd5b60200260200101906001600160a01b031690816001600160a01b03168152505083816002815181106111d157634e487b7160e01b600052603260045260246000fd5b60200260200101906001600160a01b031690816001600160a01b0316815250505b60405163d06ca61f60e01b8152600090737a250d5630b4cf539739df2c5dacb4c659f2488d9063d06ca61f9061122e9087908690600401611694565b60006040518083038186803b15801561124657600080fd5b505afa15801561125a573d6000803e3d6000fd5b505050506040513d6000823e601f3d908101601f1916820160405261128291908101906114b8565b905080600183516112939190611721565b815181106112b157634e487b7160e01b600052603260045260246000fd5b6020026020010151925050505b9392505050565b60606112d484846000856112dc565b949350505050565b60608247101561133d5760405162461bcd60e51b815260206004820152602660248201527f416464726573733a20696e73756666696369656e742062616c616e636520666f6044820152651c8818d85b1b60d21b60648201526084016102c4565b6001600160a01b0385163b6113945760405162461bcd60e51b815260206004820152601d60248201527f416464726573733a2063616c6c20746f206e6f6e2d636f6e747261637400000060448201526064016102c4565b600080866001600160a01b031685876040516113b091906115f3565b60006040518083038185875af1925050503d80600081146113ed576040519150601f19603f3d011682016040523d82523d6000602084013e6113f2565b606091505b509150915061140282828661140d565b979650505050505050565b6060831561141c5750816112be565b82511561142c5782518084602001fd5b8160405162461bcd60e51b81526004016102c49190611637565b80356001600160a01b038116811461145d57600080fd5b919050565b600060208284031215611473578081fd5b6112be82611446565b6000806040838503121561148e578081fd5b61149783611446565b9150602083013561ffff811681146114ad578182fd5b809150509250929050565b600060208083850312156114ca578182fd5b825167ffffffffffffffff808211156114e1578384fd5b818501915085601f8301126114f4578384fd5b8151818111156115065761150661177e565b8060051b604051601f19603f8301168101818110858211171561152b5761152b61177e565b604052828152858101935084860182860187018a1015611549578788fd5b8795505b8386101561156b57805185526001959095019493860193860161154d565b5098975050505050505050565b600060208284031215611589578081fd5b815180151581146112be578182fd5b6000602082840312156115a9578081fd5b5051919050565b6000815180845260208085019450808401835b838110156115e85781516001600160a01b0316875295820195908201906001016115c3565b509495945050505050565b60008251611605818460208701611738565b9190910192915050565b602081016003831061163157634e487b7160e01b600052602160045260246000fd5b91905290565b6020815260008251806020840152611656816040850160208701611738565b601f01601f19169190910160400192915050565b60208082526010908201526f43463a205a45524f5f4144445245535360801b604082015260600190565b8281526040602082015260006112d460408301846115b0565b85815284602082015260a0604082015260006116cc60a08301866115b0565b6001600160a01b0394909416606083015250608001529392505050565b600082198211156116fc576116fc611768565b500190565b60008261171c57634e487b7160e01b81526012600452602481fd5b500490565b60008282101561173357611733611768565b500390565b60005b8381101561175357818101518382015260200161173b565b83811115611762576000848401525b50505050565b634e487b7160e01b600052601160045260246000fd5b634e487b7160e01b600052604160045260246000fdfe62e2821f900c4be3796206df06636dca51d9fa5909ab9d0afe34bd1259d7c3cf62e2821f900c4be3796206df06636dca51d9fa5909ab9d0afe34bd1259d7c3aba264697066735822122039f45cfd5269bc08e30dbf1d94ad80c36b93b20609d116b16cf0f41c6794371c64736f6c63430008040033",
  "linkReferences": {},
  "deployedLinkReferences": {}
}