{
  "_format": "hh-sol-artifact-1",
  "contractName": "PausableFacet",
  "sourceName": "contracts/facets/PausableFacet.sol",
  "abi": [
    {
      "anonymous": false,
      "inputs": [
        {
          "indexed": false,
          "internalType": "address",
          "name": "account",
          "type": "address"
        }
      ],
      "name": "Paused",
      "type": "event"
    },
    {
      "anonymous": false,
      "inputs": [
        {
          "indexed": false,
          "internalType": "address",
          "name": "account",
          "type": "address"
        }
      ],
      "name": "Unpaused",
      "type": "event"
    },
    {
      "inputs": [],
      "name": "pause",
      "outputs": [],
      "stateMutability": "nonpayable",
      "type": "function"
    },
    {
      "inputs": [],
      "name": "paused",
      "outputs": [
        {
          "internalType": "bool",
          "name": "paused_",
          "type": "bool"
        }
      ],
      "stateMutability": "view",
      "type": "function"
    },
    {
      "inputs": [],
      "name": "unpause",
      "outputs": [],
      "stateMutability": "nonpayable",
      "type": "function"
    }
  ],
  "bytecode": "0x608060405234801561001057600080fd5b506102e9806100206000396000f3fe608060405234801561001057600080fd5b50600436106100415760003560e01c80633f4ba83a146100465780635c975abb146100505780638456cb591461007e575b600080fd5b61004e610086565b005b60008051602061029483398151915254600160a01b900460ff16604051901515815260200160405180910390f35b61004e610109565b61008e61018b565b6100966101f6565b600080516020610294833981519152805460ff60a01b191690556040513381527f62e2821f900c4be3796206df06636dca51d9fa5909ab9d0afe34bd1259d7c3ab907f5db9ee0a495bf2e6ff9c91a7834c1ba4fdd244a5e8aa4e537bd38aeae4b073aa906020015b60405180910390a150565b61011161018b565b610119610244565b600080516020610294833981519152805460ff60a01b1916600160a01b1790556040513381527f62e2821f900c4be3796206df06636dca51d9fa5909ab9d0afe34bd1259d7c3ab907f62e78cea01bee320cd4e420270b5ea74000d11b0c9f74754ebdbfc544b05a258906020016100fe565b7f62e2821f900c4be3796206df06636dca51d9fa5909ab9d0afe34bd1259d7c3ab600301546001600160a01b031633146101f45760405162461bcd60e51b815260206004820152600560248201526404c494245360dc1b60448201526064015b60405180910390fd5b565b60008051602061029483398151915254600160a01b900460ff166101f45760405162461bcd60e51b81526020600482015260056024820152644c4942453160d81b60448201526064016101eb565b60008051602061029483398151915254600160a01b900460ff16156101f45760405162461bcd60e51b81526020600482015260056024820152642624a1229960d91b60448201526064016101eb56fe62e2821f900c4be3796206df06636dca51d9fa5909ab9d0afe34bd1259d7c3aea26469706673582212202a7ed3a178fd021ff88143079df3656e0d0718967e8a05e70e48376ff03d5db764736f6c63430008040033",
  "linkReferences": {},
  "deployedLinkReferences": {}
}