{
  "_format": "hh-sol-artifact-1",
  "contractName": "BondToken",
  "sourceName": "contracts/BondToken.sol",
  "abi": [
    {
      "inputs": [
        {
          "internalType": "string",
          "name": "_tName",
          "type": "string"
        },
        {
          "internalType": "string",
          "name": "_tSymbol",
          "type": "string"
        },
        {
          "internalType": "uint256",
          "name": "_tTotalSupply",
          "type": "uint256"
        },
        {
          "internalType": "address",
          "name": "_owner",
          "type": "address"
        }
      ],
      "stateMutability": "nonpayable",
      "type": "constructor"
    },
    {
      "anonymous": false,
      "inputs": [
        {
          "indexed": true,
          "internalType": "address",
          "name": "owner",
          "type": "address"
        },
        {
          "indexed": true,
          "internalType": "address",
          "name": "spender",
          "type": "address"
        },
        {
          "indexed": false,
          "internalType": "uint256",
          "name": "value",
          "type": "uint256"
        }
      ],
      "name": "Approval",
      "type": "event"
    },
    {
      "anonymous": false,
      "inputs": [
        {
          "indexed": true,
          "internalType": "address",
          "name": "previousOwner",
          "type": "address"
        },
        {
          "indexed": true,
          "internalType": "address",
          "name": "newOwner",
          "type": "address"
        }
      ],
      "name": "OwnershipTransferred",
      "type": "event"
    },
    {
      "anonymous": false,
      "inputs": [
        {
          "indexed": true,
          "internalType": "address",
          "name": "from",
          "type": "address"
        },
        {
          "indexed": true,
          "internalType": "address",
          "name": "to",
          "type": "address"
        },
        {
          "indexed": false,
          "internalType": "uint256",
          "name": "value",
          "type": "uint256"
        }
      ],
      "name": "Transfer",
      "type": "event"
    },
    {
      "inputs": [
        {
          "internalType": "address",
          "name": "owner",
          "type": "address"
        },
        {
          "internalType": "address",
          "name": "spender",
          "type": "address"
        }
      ],
      "name": "allowance",
      "outputs": [
        {
          "internalType": "uint256",
          "name": "",
          "type": "uint256"
        }
      ],
      "stateMutability": "view",
      "type": "function"
    },
    {
      "inputs": [
        {
          "internalType": "address",
          "name": "spender",
          "type": "address"
        },
        {
          "internalType": "uint256",
          "name": "value",
          "type": "uint256"
        }
      ],
      "name": "approve",
      "outputs": [
        {
          "internalType": "bool",
          "name": "",
          "type": "bool"
        }
      ],
      "stateMutability": "nonpayable",
      "type": "function"
    },
    {
      "inputs": [
        {
          "internalType": "address",
          "name": "account",
          "type": "address"
        }
      ],
      "name": "balanceOf",
      "outputs": [
        {
          "internalType": "uint256",
          "name": "",
          "type": "uint256"
        }
      ],
      "stateMutability": "view",
      "type": "function"
    },
    {
      "inputs": [
        {
          "internalType": "uint256",
          "name": "amount",
          "type": "uint256"
        }
      ],
      "name": "burn",
      "outputs": [],
      "stateMutability": "nonpayable",
      "type": "function"
    },
    {
      "inputs": [
        {
          "internalType": "address",
          "name": "account",
          "type": "address"
        },
        {
          "internalType": "uint256",
          "name": "amount",
          "type": "uint256"
        }
      ],
      "name": "burnFrom",
      "outputs": [],
      "stateMutability": "nonpayable",
      "type": "function"
    },
    {
      "inputs": [],
      "name": "decimals",
      "outputs": [
        {
          "internalType": "uint8",
          "name": "",
          "type": "uint8"
        }
      ],
      "stateMutability": "view",
      "type": "function"
    },
    {
      "inputs": [],
      "name": "name",
      "outputs": [
        {
          "internalType": "string",
          "name": "",
          "type": "string"
        }
      ],
      "stateMutability": "view",
      "type": "function"
    },
    {
      "inputs": [],
      "name": "owner",
      "outputs": [
        {
          "internalType": "address",
          "name": "",
          "type": "address"
        }
      ],
      "stateMutability": "view",
      "type": "function"
    },
    {
      "inputs": [],
      "name": "renounceOwnership",
      "outputs": [],
      "stateMutability": "nonpayable",
      "type": "function"
    },
    {
      "inputs": [],
      "name": "symbol",
      "outputs": [
        {
          "internalType": "string",
          "name": "",
          "type": "string"
        }
      ],
      "stateMutability": "view",
      "type": "function"
    },
    {
      "inputs": [],
      "name": "totalSupply",
      "outputs": [
        {
          "internalType": "uint256",
          "name": "",
          "type": "uint256"
        }
      ],
      "stateMutability": "view",
      "type": "function"
    },
    {
      "inputs": [
        {
          "internalType": "address",
          "name": "to",
          "type": "address"
        },
        {
          "internalType": "uint256",
          "name": "value",
          "type": "uint256"
        }
      ],
      "name": "transfer",
      "outputs": [
        {
          "internalType": "bool",
          "name": "",
          "type": "bool"
        }
      ],
      "stateMutability": "nonpayable",
      "type": "function"
    },
    {
      "inputs": [
        {
          "internalType": "address",
          "name": "from",
          "type": "address"
        },
        {
          "internalType": "address",
          "name": "to",
          "type": "address"
        },
        {
          "internalType": "uint256",
          "name": "value",
          "type": "uint256"
        }
      ],
      "name": "transferFrom",
      "outputs": [
        {
          "internalType": "bool",
          "name": "",
          "type": "bool"
        }
      ],
      "stateMutability": "nonpayable",
      "type": "function"
    },
    {
      "inputs": [
        {
          "internalType": "address",
          "name": "newOwner",
          "type": "address"
        }
      ],
      "name": "transferOwnership",
      "outputs": [],
      "stateMutability": "nonpayable",
      "type": "function"
    }
  ],
  "bytecode": "0x60806040523480156200001157600080fd5b5060405162000f9c38038062000f9c8339810160408190526200003491620002e5565b6200003f3362000081565b835162000054906001906020870190620001b4565b5082516200006a906002906020860190620001b4565b50620000778183620000d1565b50505050620004fa565b600080546001600160a01b038381166001600160a01b0319831681178455604051919092169283917f8be0079c531659141344cd1fd0a4f28419497f9722a3daafe3b4186f6b6457e09190a35050565b620000ed816003546200017f60201b620004971790919060201c565b6003556001600160a01b03821660009081526004602090815260409091205462000122918390620004976200017f821b17901c565b6001600160a01b0383166000818152600460205260408082209390935591519091907fddf252ad1be2c89b69c2b068fc378daa952ba7f163c4a11628f55a4df523b3ef90620001739085906200037e565b60405180910390a35050565b60006200018d8284620003d7565b905082811015620001ae57634e487b7160e01b600052600160045260246000fd5b92915050565b828054620001c29062000437565b90600052602060002090601f016020900481019282620001e6576000855562000231565b82601f106200020157805160ff191683800117855562000231565b8280016001018555821562000231579182015b828111156200023157825182559160200191906001019062000214565b506200023f92915062000243565b5090565b5b808211156200023f576000815560010162000244565b6000620002716200026b84620003aa565b6200038b565b9050828152602081018484840111156200028a57600080fd5b6200029784828562000404565b509392505050565b8051620001ae81620004d9565b600082601f830112620002be57600080fd5b8151620002d08482602086016200025a565b949350505050565b8051620001ae81620004f3565b60008060008060808587031215620002fc57600080fd5b84516001600160401b038111156200031357600080fd5b6200032187828801620002ac565b94505060208501516001600160401b038111156200033e57600080fd5b6200034c87828801620002ac565b93505060406200035f87828801620002d8565b925050606062000372878288016200029f565b91505092959194509250565b81815260208101620001ae565b60006200039760405190565b9050620003a5828262000468565b919050565b60006001600160401b03821115620003c657620003c6620004c3565b601f19601f83011660200192915050565b60008219821115620003ed57620003ed62000497565b500190565b60006001600160a01b038216620001ae565b60005b838110156200042157818101518382015260200162000407565b8381111562000431576000848401525b50505050565b6002810460018216806200044c57607f821691505b60208210811415620004625762000462620004ad565b50919050565b601f19601f83011681018181106001600160401b0382111715620004905762000490620004c3565b6040525050565b634e487b7160e01b600052601160045260246000fd5b634e487b7160e01b600052602260045260246000fd5b634e487b7160e01b600052604160045260246000fd5b620004e481620003f2565b8114620004f057600080fd5b50565b80620004e4565b610a92806200050a6000396000f3fe608060405234801561001057600080fd5b50600436106100ea5760003560e01c8063715018a61161008c57806395d89b411161006657806395d89b41146101d2578063a9059cbb146101da578063dd62ed3e146101ed578063f2fde38b1461022657600080fd5b8063715018a61461019e57806379cc6790146101a65780638da5cb5b146101b957600080fd5b806323b872dd116100c857806323b872dd1461013e578063313ce5671461015157806342966c681461016057806370a082311461017557600080fd5b806306fdde03146100ef578063095ea7b31461010d57806318160ddd1461012d575b600080fd5b6100f7610239565b60405161010491906108f2565b60405180910390f35b61012061011b3660046107a9565b6102cb565b60405161010491906108e4565b6003545b604051610104919061095d565b61012061014c36600461075c565b6102e2565b6012604051610104919061096b565b61017361016e3660046107d9565b610376565b005b6101316101833660046106fc565b6001600160a01b031660009081526004602052604090205490565b610173610383565b6101736101b43660046107a9565b6103c2565b6000546001600160a01b031660405161010491906108d6565b6100f7610422565b6101206101e83660046107a9565b610431565b6101316101fb366004610722565b6001600160a01b03918216600090815260056020908152604080832093909416825291909152205490565b6101736102343660046106fc565b61043e565b606060018054610248906109e9565b80601f0160208091040260200160405190810160405280929190818152602001828054610274906109e9565b80156102c15780601f10610296576101008083540402835291602001916102c1565b820191906000526020600020905b8154815290600101906020018083116102a457829003601f168201915b5050505050905090565b60006102d83384846104c3565b5060015b92915050565b6001600160a01b038316600090815260056020908152604080832033845290915281205460001914610361576001600160a01b038416600090815260056020908152604080832033845290915290205461033c908361052b565b6001600160a01b03851660009081526005602090815260408083203384529091529020555b61036c84848461055c565b5060019392505050565b6103803382610600565b50565b6000546001600160a01b031633146103b65760405162461bcd60e51b81526004016103ad90610913565b60405180910390fd5b6103c06000610696565b565b6001600160a01b0382166000908152600560209081526040808320338452909152902054818110156104065760405162461bcd60e51b81526004016103ad9061094d565b61041383338484036104c3565b61041d8383610600565b505050565b606060028054610248906109e9565b60006102d833848461055c565b6000546001600160a01b031633146104685760405162461bcd60e51b81526004016103ad90610913565b6001600160a01b03811661048e5760405162461bcd60e51b81526004016103ad90610903565b61038081610696565b60006104a38284610979565b9050828110156102dc57634e487b7160e01b600052600160045260246000fd5b6001600160a01b0380841660008181526005602090815260408083209487168084529490915290819020849055517f8c5be1e5ebec7d5bd14f71427d1e84f3dd0314c0f7b2291e5b200ac8c7c3b9259061051e90859061095d565b60405180910390a3505050565b60008282111561054b57634e487b7160e01b600052600160045260246000fd5b6105558284610991565b9392505050565b6001600160a01b03831660009081526004602052604090205461057f908261052b565b6001600160a01b0380851660009081526004602052604080822093909355908416815220546105ae9082610497565b6001600160a01b0380841660008181526004602052604090819020939093559151908516907fddf252ad1be2c89b69c2b068fc378daa952ba7f163c4a11628f55a4df523b3ef9061051e90859061095d565b6001600160a01b038216600090815260046020526040902054610623908261052b565b6001600160a01b038316600090815260046020526040902055600354610649908261052b565b6003556040516000906001600160a01b038416907fddf252ad1be2c89b69c2b068fc378daa952ba7f163c4a11628f55a4df523b3ef9061068a90859061095d565b60405180910390a35050565b600080546001600160a01b038381166001600160a01b0319831681178455604051919092169283917f8be0079c531659141344cd1fd0a4f28419497f9722a3daafe3b4186f6b6457e09190a35050565b80356102dc81610a42565b80356102dc81610a56565b60006020828403121561070e57600080fd5b600061071a84846106e6565b949350505050565b6000806040838503121561073557600080fd5b600061074185856106e6565b9250506020610752858286016106e6565b9150509250929050565b60008060006060848603121561077157600080fd5b600061077d86866106e6565b935050602061078e868287016106e6565b925050604061079f868287016106f1565b9150509250925092565b600080604083850312156107bc57600080fd5b60006107c885856106e6565b9250506020610752858286016106f1565b6000602082840312156107eb57600080fd5b600061071a84846106f1565b610800816109a8565b82525050565b801515610800565b6000610818825190565b80845260208401935061082f8185602086016109b9565b601f01601f19169290920192915050565b602681526000602082017f4f776e61626c653a206e6577206f776e657220697320746865207a65726f206181526564647265737360d01b602082015291505b5060400190565b602481526000602082017f45524332303a206275726e20616d6f756e74206578636565647320616c6c6f77815263616e636560e01b6020820152915061087f565b80610800565b60ff8116610800565b602081016102dc82846107f7565b602081016102dc8284610806565b60208082528101610555818461080e565b602080825281016102dc81610840565b60208082528181019081527f4f776e61626c653a2063616c6c6572206973206e6f7420746865206f776e65726040830152606082016102dc565b602080825281016102dc81610886565b602081016102dc82846108c7565b602081016102dc82846108cd565b6000821982111561098c5761098c610a16565b500190565b6000828210156109a3576109a3610a16565b500390565b60006001600160a01b0382166102dc565b60005b838110156109d45781810151838201526020016109bc565b838111156109e3576000848401525b50505050565b6002810460018216806109fd57607f821691505b60208210811415610a1057610a10610a2c565b50919050565b634e487b7160e01b600052601160045260246000fd5b634e487b7160e01b600052602260045260246000fd5b610a4b816109a8565b811461038057600080fd5b80610a4b56fea26469706673582212203beb8bbfde924116419e891f1dbe9e5b0f768f9111a565ce1dea92989e83b7af64736f6c63430008040033",
  "linkReferences": {},
  "deployedLinkReferences": {}
}