{
  "_format": "hh-sol-artifact-1",
  "contractName": "CFDiamond",
  "sourceName": "contracts/CFDiamond.sol",
  "abi": [
    {
      "inputs": [
        {
          "internalType": "string",
          "name": "_pName",
          "type": "string"
        },
        {
          "internalType": "address",
          "name": "_coinAddr",
          "type": "address"
        },
        {
          "internalType": "address",
          "name": "_stAddr",
          "type": "address"
        },
        {
          "internalType": "uint16",
          "name": "_pOFeePt",
          "type": "uint16"
        },
        {
          "internalType": "uint256",
          "name": "_bufferPeriod",
          "type": "uint256"
        },
        {
          "internalType": "uint256",
          "name": "_conversionPeriod",
          "type": "uint256"
        },
        {
          "internalType": "uint256",
          "name": "_frequencyDuration",
          "type": "uint256"
        },
        {
          "components": [
            {
              "internalType": "uint256",
              "name": "minThAmt",
              "type": "uint256"
            },
            {
              "internalType": "enum LibCFDiamond.MinThresholdType",
              "name": "minThType",
              "type": "uint8"
            }
          ],
          "internalType": "struct LibCFDiamond.MinThreshold",
          "name": "_minTh",
          "type": "tuple"
        },
        {
          "internalType": "address",
          "name": "_treasuryAddr",
          "type": "address"
        },
        {
          "internalType": "address",
          "name": "_analyticMathAddr",
          "type": "address"
        },
        {
          "components": [
            {
              "internalType": "address",
              "name": "facetAddress",
              "type": "address"
            },
            {
              "internalType": "enum IDiamondCut.FacetCutAction",
              "name": "action",
              "type": "uint8"
            },
            {
              "internalType": "bytes4[]",
              "name": "functionSelectors",
              "type": "bytes4[]"
            }
          ],
          "internalType": "struct IDiamondCut.FacetCut[]",
          "name": "_diamondCut",
          "type": "tuple[]"
        }
      ],
      "stateMutability": "nonpayable",
      "type": "constructor"
    },
    {
      "stateMutability": "payable",
      "type": "fallback"
    },
    {
      "inputs": [
        {
          "components": [
            {
              "internalType": "address",
              "name": "facetAddress",
              "type": "address"
            },
            {
              "internalType": "enum IDiamondCut.FacetCutAction",
              "name": "action",
              "type": "uint8"
            },
            {
              "internalType": "bytes4[]",
              "name": "functionSelectors",
              "type": "bytes4[]"
            }
          ],
          "internalType": "struct IDiamondCut.FacetCut[]",
          "name": "_diamondCut",
          "type": "tuple[]"
        },
        {
          "internalType": "address",
          "name": "_init",
          "type": "address"
        },
        {
          "internalType": "bytes",
          "name": "_calldata",
          "type": "bytes"
        }
      ],
      "name": "diamondCut",
      "outputs": [],
      "stateMutability": "nonpayable",
      "type": "function"
    },
    {
      "inputs": [
        {
          "internalType": "address",
          "name": "_analyticMath",
          "type": "address"
        }
      ],
      "name": "setAMathAddr",
      "outputs": [],
      "stateMutability": "nonpayable",
      "type": "function"
    },
    {
      "stateMutability": "payable",
      "type": "receive"
    }
  ],
  "bytecode": "0x60806040523480156200001157600080fd5b506040516200414138038062004141833981016040819052620000349162001a02565b6200004a33620005b460201b620001b71760201c565b6000620000628c6200063860201b620002171760201c565b905060028111620000a25760405162461bcd60e51b8152602060048201526005602482015264043464445360dc1b60448201526064015b60405180910390fd5b600d8110620000dc5760405162461bcd60e51b8152602060048201526005602482015264434644453160d81b604482015260640162000099565b61271061ffff8a16106200011b5760405162461bcd60e51b815260206004820152600560248201526421a322229960d91b604482015260640162000099565b60008611620001555760405162461bcd60e51b8152602060048201526005602482015264434644453760d81b604482015260640162000099565b868611156200018f5760405162461bcd60e51b81526020600482015260056024820152640868c888a760db1b604482015260640162000099565b8451620001c75760405162461bcd60e51b815260206004820152600560248201526410d191114d60da1b604482015260640162000099565b6001600160a01b038416620002075760405162461bcd60e51b8152602060048201526005602482015264434644453560d81b604482015260640162000099565b6001600160a01b038316620002475760405162461bcd60e51b815260206004820152600560248201526421a322229b60d91b604482015260640162000099565b60006200025e6200063c60201b6200021b1760201c565b90508b81600b0160006101000a8154816001600160a01b0302191690836001600160a01b031602179055508a8160150160006101000a8154816001600160a01b0302191690836001600160a01b03160217905550898160150160166101000a81548161ffff021916908361ffff1602179055506123288160150160186101000a81548161ffff021916908361ffff16021790555060648160150160146101000a81548161ffff021916908361ffff160217905550600481601501601a6101000a81548161ffff021916908361ffff16021790555069043c33c193756480000081601601819055508481600d0160006101000a8154816001600160a01b0302191690836001600160a01b03160217905550620003848d6200064f60201b6200023f1760201c565b80516200039c916004840191602090910190620016e2565b5060006200049462000466600060068611620003b95785620003bc565b60065b856004018054620003cd9062001e70565b80601f0160208091040260200160405190810160405280929190818152602001828054620003fb9062001e70565b80156200044c5780601f1062000420576101008083540402835291602001916200044c565b820191906000526020600020905b8154815290600101906020018083116200042e57829003601f168201915b50505050506200076b60201b6200034f179092919060201c565b604051806040016040528060018152602001601560fa1b815250620008a260201b620004781790919060201c565b90508160040181604051620004a99062001771565b620004b692919062001c9d565b604051809103906000f080158015620004d3573d6000803e3d6000fd5b506009830180546001600160a01b0319166001600160a01b0392909216919091179055466029830155601282018a905560138201899055601482018890558651600e8301556020870151600f8301805460ff1916600183818111156200054957634e487b7160e01b600052602160045260246000fd5b0217905550600160288301554260238301556017820180546001600160a01b0319166001600160a01b0387161790556040805160208082019092526000808252620005a092879290620008d0811b620004a417901c565b505050505050505050505050505062001f21565b7f62e2821f900c4be3796206df06636dca51d9fa5909ab9d0afe34bd1259d7c3ae80546001600160a01b031981166001600160a01b0384811691821790935560405160008051602062004121833981519152939092169182907f8be0079c531659141344cd1fd0a4f28419497f9722a3daafe3b4186f6b6457e090600090a3505050565b5190565b6000805160206200412183398151915290565b60608160005b81518110156200076457606160f81b8282815181106200068557634e487b7160e01b600052603260045260246000fd5b01602001516001600160f81b03191610801590620006d65750607a60f81b828281518110620006c457634e487b7160e01b600052603260045260246000fd5b01602001516001600160f81b03191611155b156200074f576020828281518110620006ff57634e487b7160e01b600052603260045260246000fd5b016020015162000713919060f81c62001e1b565b60f81b8282815181106200073757634e487b7160e01b600052603260045260246000fd5b60200101906001600160f81b031916908160001a9053505b806200075b8162001ead565b91505062000655565b5092915050565b825160609084906200077e848662001de6565b11156200079b57634e487b7160e01b600052600160045260246000fd5b6000836001600160401b03811115620007c457634e487b7160e01b600052604160045260246000fd5b6040519080825280601f01601f191660200182016040528015620007ef576020820181803683370190505b509050806000865b62000803878962001de6565b81101562000895578481815181106200082c57634e487b7160e01b600052603260045260246000fd5b01602001516001600160f81b0319168383620008488162001ead565b9450815181106200086957634e487b7160e01b600052603260045260246000fd5b60200101906001600160f81b031916908160001a905350806200088c8162001ead565b915050620007f7565b5090979650505050505050565b60608282604051602001620008b992919062001b4b565b604051602081830303815290604052905092915050565b60005b835181101562000b375760008482815181106200090057634e487b7160e01b600052603260045260246000fd5b6020026020010151602001519050600060028111156200093057634e487b7160e01b600052602160045260246000fd5b8160028111156200095157634e487b7160e01b600052602160045260246000fd5b1415620009c857620009c28583815181106200097d57634e487b7160e01b600052603260045260246000fd5b602002602001015160000151868481518110620009aa57634e487b7160e01b600052603260045260246000fd5b60200260200101516040015162000b8660201b60201c565b62000b21565b6001816002811115620009eb57634e487b7160e01b600052602160045260246000fd5b141562000a5c57620009c285838151811062000a1757634e487b7160e01b600052603260045260246000fd5b60200260200101516000015186848151811062000a4457634e487b7160e01b600052603260045260246000fd5b60200260200101516040015162000da760201b60201c565b600281600281111562000a7f57634e487b7160e01b600052602160045260246000fd5b141562000af057620009c285838151811062000aab57634e487b7160e01b600052603260045260246000fd5b60200260200101516000015186848151811062000ad857634e487b7160e01b600052603260045260246000fd5b60200260200101516040015162000fec60201b60201c565b60405162461bcd60e51b81526020600482015260056024820152644c4942453360d81b604482015260640162000099565b508062000b2e8162001ead565b915050620008d3565b507f8faa70878671ccd212d20771b795c50af8fd3ff6cf27f4bde57e5d4de0aeb67383838360405162000b6d9392919062001b7e565b60405180910390a162000b81828262001105565b505050565b600081511162000bc15760405162461bcd60e51b8152602060048201526005602482015264131250914d60da1b604482015260640162000099565b600080516020620041218339815191526001600160a01b03831662000c115760405162461bcd60e51b81526020600482015260056024820152644c4942453560d81b604482015260640162000099565b6001600160a01b03831660009081526001820160205260409020546001600160601b03811662000c475762000c4782856200128f565b60005b835181101562000da057600084828151811062000c7757634e487b7160e01b600052603260045260246000fd5b6020908102919091018101516001600160e01b031981166000908152918690526040909120549091506001600160a01b0316801562000ce15760405162461bcd60e51b81526020600482015260056024820152642624a1229b60d91b604482015260640162000099565b6001600160e01b0319821660008181526020878152604080832080546001600160a01b03908116600160a01b6001600160601b038c16021782558c168085526001808c0185529285208054938401815585528385206008840401805463ffffffff60079095166004026101000a948502191660e08a901c94909402939093179092559390925287905281546001600160a01b0319161790558362000d858162001ecb565b9450505050808062000d979062001ead565b91505062000c4a565b5050505050565b600081511162000de25760405162461bcd60e51b8152602060048201526005602482015264131250914d60da1b604482015260640162000099565b600080516020620041218339815191526001600160a01b03831662000e325760405162461bcd60e51b81526020600482015260056024820152644c4942453560d81b604482015260640162000099565b6001600160a01b03831660009081526001820160205260409020546001600160601b03811662000e685762000e6882856200128f565b60005b835181101562000da057600084828151811062000e9857634e487b7160e01b600052603260045260246000fd5b6020908102919091018101516001600160e01b031981166000908152918690526040909120549091506001600160a01b0390811690871681141562000f205760405162461bcd60e51b815260206004820152601960248201527f4c69624469616d6f6e643a2053414d455f46554e4354494f4e00000000000000604482015260640162000099565b62000f2d85828462001306565b6001600160e01b0319821660008181526020878152604080832080546001600160a01b03908116600160a01b6001600160601b038c16021782558c168085526001808c0185529285208054938401815585528385206008840401805463ffffffff60079095166004026101000a948502191660e08a901c94909402939093179092559390925287905281546001600160a01b0319161790558362000fd18162001ecb565b9450505050808062000fe39062001ead565b91505062000e6b565b6000815111620010275760405162461bcd60e51b8152602060048201526005602482015264131250914d60da1b604482015260640162000099565b600080516020620041218339815191526001600160a01b03831615620010785760405162461bcd60e51b81526020600482015260056024820152644c4942453560d81b604482015260640162000099565b60005b8251811015620010ff576000838281518110620010a857634e487b7160e01b600052603260045260246000fd5b6020908102919091018101516001600160e01b031981166000908152918590526040909120549091506001600160a01b0316620010e784828462001306565b50508080620010f69062001ead565b9150506200107b565b50505050565b6001600160a01b03821662001152578051156200114e5760405162461bcd60e51b815260206004820152600660248201526504c49424531360d41b604482015260640162000099565b5050565b60008151116200118e5760405162461bcd60e51b81526020600482015260066024820152654c494245313160d01b604482015260640162000099565b6001600160a01b0382163014620011cf57620011cf82604051806040016040528060068152602001652624a122989960d11b815250620016be60201b60201c565b600080836001600160a01b031683604051620011ec919062001b2d565b600060405180830381855af49150503d806000811462001229576040519150601f19603f3d011682016040523d82523d6000602084013e6200122e565b606091505b509150915081620010ff578051156200125d578060405162461bcd60e51b815260040162000099919062001c81565b60405162461bcd60e51b81526020600482015260066024820152654c494245313360d01b604482015260640162000099565b620012be81604051806040016040528060058152602001644c4942453760d81b815250620016be60201b60201c565b6002820180546001600160a01b0390921660008181526001948501602090815260408220860185905594840183559182529290200180546001600160a01b0319169091179055565b6001600160a01b038216620013465760405162461bcd60e51b815260206004820152600560248201526409892848a760db1b604482015260640162000099565b6001600160a01b038216301415620013895760405162461bcd60e51b81526020600482015260056024820152644c4942453960d81b604482015260640162000099565b6001600160e01b03198116600090815260208481526040808320546001600160a01b0386168452600180880190935290832054600160a01b9091046001600160601b03169291620013da9162001e01565b9050808214620014eb576001600160a01b038416600090815260018601602052604081208054839081106200141f57634e487b7160e01b600052603260045260246000fd5b600091825260208083206008830401546001600160a01b038916845260018a019091526040909220805460079092166004026101000a90920460e01b9250829190859081106200147f57634e487b7160e01b600052603260045260246000fd5b600091825260208083206008830401805463ffffffff60079094166004026101000a938402191660e09590951c929092029390931790556001600160e01b03199290921682528690526040902080546001600160a01b0316600160a01b6001600160601b038516021790555b6001600160a01b038416600090815260018601602052604090208054806200152357634e487b7160e01b600052603160045260246000fd5b60008281526020808220600860001990940193840401805463ffffffff600460078716026101000a0219169055919092556001600160e01b03198516825286905260408120558062000da0576002850154600090620015859060019062001e01565b6001600160a01b038616600090815260018089016020526040909120015490915080821462001653576000876002018381548110620015d457634e487b7160e01b600052603260045260246000fd5b6000918252602090912001546002890180546001600160a01b0390921692508291849081106200161457634e487b7160e01b600052603260045260246000fd5b600091825260208083209190910180546001600160a01b0319166001600160a01b03948516179055929091168152600189810190925260409020018190555b866002018054806200167557634e487b7160e01b600052603160045260246000fd5b60008281526020808220830160001990810180546001600160a01b03191690559092019092556001600160a01b0388168252600189810190915260408220015550505050505050565b813b8181620010ff5760405162461bcd60e51b815260040162000099919062001c81565b828054620016f09062001e70565b90600052602060002090601f0160209004810192826200171457600085556200175f565b82601f106200172f57805160ff19168380011785556200175f565b828001600101855582156200175f579182015b828111156200175f57825182559160200191906001019062001742565b506200176d9291506200177f565b5090565b610a6280620036bf83390190565b5b808211156200176d576000815560010162001780565b80516001600160a01b0381168114620017ae57600080fd5b919050565b600082601f830112620017c4578081fd5b81516020620017dd620017d78362001dc0565b62001d8d565b80838252828201915082860187848660051b8901011115620017fd578586fd5b855b85811015620008955781516001600160401b03808211156200181f578889fd5b908901906060828c03601f19018113156200183857898afd5b6200184262001d62565b6200184f89850162001796565b81526040808501516003811062001864578c8dfd5b828b01529184015191838311156200187a578b8cfd5b82850194508d603f8601126200188e578b8cfd5b898501519350620018a3620017d78562001dc0565b9250828484528a840193508186018f838760051b8901011115620018c5578d8efd5b8d96505b85871015620018ff5780516001600160e01b031981168114620018ea578e8ffd5b855260019690960195938b01938b01620018c9565b509082015287525050509284019290840190600101620017ff565b600082601f8301126200192b578081fd5b81516001600160401b0381111562001947576200194762001f0b565b6200195c601f8201601f191660200162001d8d565b81815284602083860101111562001971578283fd5b6200198482602083016020870162001e41565b949350505050565b6000604082840312156200199e578081fd5b604080519081016001600160401b0381118282101715620019c357620019c362001f0b565b806040525080915082518152602083015160028110620019e257600080fd5b6020919091015292915050565b805161ffff81168114620017ae57600080fd5b60008060008060008060008060008060006101808c8e03121562001a24578687fd5b8b516001600160401b0381111562001a3a578788fd5b62001a488e828f016200191a565b9b505062001a5960208d0162001796565b995062001a6960408d0162001796565b985062001a7960608d01620019ef565b975060808c0151965060a08c0151955060c08c0151945062001a9f8d60e08e016200198c565b935062001ab06101208d0162001796565b925062001ac16101408d0162001796565b6101608d01519092506001600160401b0381111562001ade578182fd5b62001aec8e828f01620017b3565b9150509295989b509295989b9093969950565b6000815180845262001b1981602086016020860162001e41565b601f01601f19169290920160200192915050565b6000825162001b4181846020870162001e41565b9190910192915050565b6000835162001b5f81846020880162001e41565b83519083019062001b7581836020880162001e41565b01949350505050565b60006060808301818452808751808352608092508286019150828160051b8701016020808b01875b8481101562001c4f57898403607f19018652815180516001600160a01b0316855283810151898601906003811062001bec57634e487b7160e01b8c52602160045260248cfd5b868601526040918201519186018a9052815190819052908401908a90898701905b8083101562001c395783516001600160e01b031916825292860192600192909201919086019062001c0d565b5097850197955050509082019060010162001ba6565b50506001600160a01b038a1690880152868103604088015262001c73818962001aff565b9a9950505050505050505050565b60208152600062001c96602083018462001aff565b9392505050565b60408152600080845482600182811c91508083168062001cbe57607f831692505b602080841082141562001cdf57634e487b7160e01b87526022600452602487fd5b604088018490526060880182801562001d01576001811462001d135762001d3f565b60ff1987168252828201975062001d3f565b60008c815260209020895b8781101562001d395781548482015290860190840162001d1e565b83019850505b505087860381890152505050505062001d59818562001aff565b95945050505050565b604051606081016001600160401b038111828210171562001d875762001d8762001f0b565b60405290565b604051601f8201601f191681016001600160401b038111828210171562001db85762001db862001f0b565b604052919050565b60006001600160401b0382111562001ddc5762001ddc62001f0b565b5060051b60200190565b6000821982111562001dfc5762001dfc62001ef5565b500190565b60008282101562001e165762001e1662001ef5565b500390565b600060ff821660ff84168082101562001e385762001e3862001ef5565b90039392505050565b60005b8381101562001e5e57818101518382015260200162001e44565b83811115620010ff5750506000910152565b600181811c9082168062001e8557607f821691505b6020821081141562001ea757634e487b7160e01b600052602260045260246000fd5b50919050565b600060001982141562001ec45762001ec462001ef5565b5060010190565b60006001600160601b038281168082141562001eeb5762001eeb62001ef5565b6001019392505050565b634e487b7160e01b600052601160045260246000fd5b634e487b7160e01b600052604160045260246000fd5b61178e8062001f316000396000f3fe60806040526004361061002d5760003560e01c80631f931c1c14610108578063d5c184021461012a57610068565b366100685760405162461bcd60e51b815260206004820152600660248201526504346444531360d41b60448201526064015b60405180910390fd5b600080356001600160e01b03191681527f62e2821f900c4be3796206df06636dca51d9fa5909ab9d0afe34bd1259d7c3ab602081905260409091205481906001600160a01b0316806100e45760405162461bcd60e51b8152602060048201526005602482015264434644453960d81b604482015260640161005f565b3660008037600080366000845af43d6000803e808015610103573d6000f35b3d6000fd5b34801561011457600080fd5b50610128610123366004611240565b61014a565b005b34801561013657600080fd5b5061012861014536600461121f565b6101a3565b61015261072a565b61019c61015f8587611580565b8484848080601f0160208091040260200160405190810160405280939291908181526020018383808284376000920191909152506104a492505050565b5050505050565b6101ab61072a565b6101b481610777565b50565b60006101c161021b565b6003810180546001600160a01b038581166001600160a01b031983168117909355604051939450169182907f8be0079c531659141344cd1fd0a4f28419497f9722a3daafe3b4186f6b6457e090600090a3505050565b5190565b7f62e2821f900c4be3796206df06636dca51d9fa5909ab9d0afe34bd1259d7c3ab90565b60608160005b815181101561034857606160f81b82828151811061027357634e487b7160e01b600052603260045260246000fd5b01602001516001600160f81b031916108015906102c25750607a60f81b8282815181106102b057634e487b7160e01b600052603260045260246000fd5b01602001516001600160f81b03191611155b156103365760208282815181106102e957634e487b7160e01b600052603260045260246000fd5b01602001516102fb919060f81c61155d565b60f81b82828151811061031e57634e487b7160e01b600052603260045260246000fd5b60200101906001600160f81b031916908160001a9053505b80610340816116ea565b915050610245565b5092915050565b82516060908490610360848661152e565b111561037c57634e487b7160e01b600052600160045260246000fd5b60008367ffffffffffffffff8111156103a557634e487b7160e01b600052604160045260246000fd5b6040519080825280601f01601f1916602001820160405280156103cf576020820181803683370190505b509050806000865b6103e1878961152e565b81101561046b5784818151811061040857634e487b7160e01b600052603260045260246000fd5b01602001516001600160f81b0319168383610422816116ea565b94508151811061044257634e487b7160e01b600052603260045260246000fd5b60200101906001600160f81b031916908160001a90535080610463816116ea565b9150506103d7565b5090979650505050505050565b6060828260405160200161048d929190611334565b604051602081830303815290604052905092915050565b60005b83518110156106df5760008482815181106104d257634e487b7160e01b600052603260045260246000fd5b60200260200101516020015190506000600281111561050157634e487b7160e01b600052602160045260246000fd5b81600281111561052157634e487b7160e01b600052602160045260246000fd5b141561058c5761058785838151811061054a57634e487b7160e01b600052603260045260246000fd5b60200260200101516000015186848151811061057657634e487b7160e01b600052603260045260246000fd5b6020026020010151604001516107db565b6106cc565b60018160028111156105ae57634e487b7160e01b600052602160045260246000fd5b1415610614576105878583815181106105d757634e487b7160e01b600052603260045260246000fd5b60200260200101516000015186848151811061060357634e487b7160e01b600052603260045260246000fd5b602002602001015160400151610925565b600281600281111561063657634e487b7160e01b600052602160045260246000fd5b141561069c5761058785838151811061065f57634e487b7160e01b600052603260045260246000fd5b60200260200101516000015186848151811061068b57634e487b7160e01b600052603260045260246000fd5b602002602001015160400151610a98565b60405162461bcd60e51b81526020600482015260056024820152644c4942453360d81b604482015260640161005f565b50806106d7816116ea565b9150506104a7565b507f8faa70878671ccd212d20771b795c50af8fd3ff6cf27f4bde57e5d4de0aeb67383838360405161071393929190611363565b60405180910390a16107258282610b72565b505050565b61073261021b565b600301546001600160a01b031633146107755760405162461bcd60e51b815260206004820152600560248201526404c494245360dc1b604482015260640161005f565b565b600061078161021b565b6017810180546001600160a01b0319166001600160a01b0385169081179091556040519081529091507fffc319e63f22836ab038ca3e016bc7829e4baff2784c18b3bf99c64c5fa7f0959060200160405180910390a15050565b60008151116107fc5760405162461bcd60e51b815260040161005f90611472565b600061080661021b565b90506001600160a01b03831661082e5760405162461bcd60e51b815260040161005f90611491565b6001600160a01b03831660009081526001820160205260409020546001600160601b038116610861576108618285610ce5565b60005b835181101561019c57600084828151811061088f57634e487b7160e01b600052603260045260246000fd5b6020908102919091018101516001600160e01b031981166000908152918690526040909120549091506001600160a01b031680156108f75760405162461bcd60e51b81526020600482015260056024820152642624a1229b60d91b604482015260640161005f565b6109038583868a610d54565b8361090d81611705565b9450505050808061091d906116ea565b915050610864565b60008151116109465760405162461bcd60e51b815260040161005f90611472565b600061095061021b565b90506001600160a01b0383166109785760405162461bcd60e51b815260040161005f90611491565b6001600160a01b03831660009081526001820160205260409020546001600160601b0381166109ab576109ab8285610ce5565b60005b835181101561019c5760008482815181106109d957634e487b7160e01b600052603260045260246000fd5b6020908102919091018101516001600160e01b031981166000908152918690526040909120549091506001600160a01b03908116908716811415610a5f5760405162461bcd60e51b815260206004820152601960248201527f4c69624469616d6f6e643a2053414d455f46554e4354494f4e00000000000000604482015260640161005f565b610a6a858284610df4565b610a768583868a610d54565b83610a8081611705565b94505050508080610a90906116ea565b9150506109ae565b6000815111610ab95760405162461bcd60e51b815260040161005f90611472565b6000610ac361021b565b90506001600160a01b03831615610aec5760405162461bcd60e51b815260040161005f90611491565b60005b8251811015610b6c576000838281518110610b1a57634e487b7160e01b600052603260045260246000fd5b6020908102919091018101516001600160e01b031981166000908152918590526040909120549091506001600160a01b0316610b57848284610df4565b50508080610b64906116ea565b915050610aef565b50505050565b6001600160a01b038216610bbc57805115610bb85760405162461bcd60e51b815260206004820152600660248201526504c49424531360d41b604482015260640161005f565b5050565b6000815111610bf65760405162461bcd60e51b81526020600482015260066024820152654c494245313160d01b604482015260640161005f565b6001600160a01b0382163014610c2e57610c2e82604051806040016040528060068152602001652624a122989960d11b81525061119b565b600080836001600160a01b031683604051610c499190611318565b600060405180830381855af49150503d8060008114610c84576040519150601f19603f3d011682016040523d82523d6000602084013e610c89565b606091505b509150915081610b6c57805115610cb4578060405162461bcd60e51b815260040161005f919061145f565b60405162461bcd60e51b81526020600482015260066024820152654c494245313360d01b604482015260640161005f565b610d0c81604051806040016040528060058152602001644c4942453760d81b81525061119b565b6002820180546001600160a01b0390921660008181526001948501602090815260408220860185905594840183559182529290200180546001600160a01b0319169091179055565b6001600160e01b0319831660008181526020868152604080832080546001600160601b03909716600160a01b026001600160a01b0397881617815594909516808352600180890183529583208054968701815583528183206008870401805460e09890981c60046007909816979097026101000a96870263ffffffff9097021990971695909517909555529290915281546001600160a01b031916179055565b6001600160a01b038216610e325760405162461bcd60e51b815260206004820152600560248201526409892848a760db1b604482015260640161005f565b6001600160a01b038216301415610e735760405162461bcd60e51b81526020600482015260056024820152644c4942453960d81b604482015260640161005f565b6001600160e01b03198116600090815260208481526040808320546001600160a01b0386168452600180880190935290832054600160a01b9091046001600160601b03169291610ec291611546565b9050808214610fd0576001600160a01b03841660009081526001860160205260408120805483908110610f0557634e487b7160e01b600052603260045260246000fd5b600091825260208083206008830401546001600160a01b038916845260018a019091526040909220805460079092166004026101000a90920460e01b925082919085908110610f6457634e487b7160e01b600052603260045260246000fd5b600091825260208083206008830401805463ffffffff60079094166004026101000a938402191660e09590951c929092029390931790556001600160e01b03199290921682528690526040902080546001600160a01b0316600160a01b6001600160601b038516021790555b6001600160a01b0384166000908152600186016020526040902080548061100757634e487b7160e01b600052603160045260246000fd5b60008281526020808220600860001990940193840401805463ffffffff600460078716026101000a0219169055919092556001600160e01b03198516825286905260408120558061019c57600285015460009061106690600190611546565b6001600160a01b03861660009081526001808901602052604090912001549091508082146111315760008760020183815481106110b357634e487b7160e01b600052603260045260246000fd5b6000918252602090912001546002890180546001600160a01b0390921692508291849081106110f257634e487b7160e01b600052603260045260246000fd5b600091825260208083209190910180546001600160a01b0319166001600160a01b03948516179055929091168152600189810190925260409020018190555b8660020180548061115257634e487b7160e01b600052603160045260246000fd5b60008281526020808220830160001990810180546001600160a01b03191690559092019092556001600160a01b0388168252600189810190915260408220015550505050505050565b813b8181610b6c5760405162461bcd60e51b815260040161005f919061145f565b80356001600160a01b03811681146111d357600080fd5b919050565b60008083601f8401126111e9578182fd5b50813567ffffffffffffffff811115611200578182fd5b60208301915083602082850101111561121857600080fd5b9250929050565b600060208284031215611230578081fd5b611239826111bc565b9392505050565b600080600080600060608688031215611257578081fd5b853567ffffffffffffffff8082111561126e578283fd5b818801915088601f830112611281578283fd5b81358181111561128f578384fd5b8960208260051b85010111156112a3578384fd5b602083019750809650506112b9602089016111bc565b945060408801359150808211156112ce578283fd5b506112db888289016111d8565b969995985093965092949392505050565b600081518084526113048160208601602086016116be565b601f01601f19169290920160200192915050565b6000825161132a8184602087016116be565b9190910192915050565b600083516113468184602088016116be565b83519083019061135a8183602088016116be565b01949350505050565b60006060808301818452808751808352608092508286019150828160051b8701016020808b01875b8481101561142f57898403607f19018652815180516001600160a01b031685528381015189860190600381106113cf57634e487b7160e01b8c52602160045260248cfd5b868601526040918201519186018a9052815190819052908401908a90898701905b8083101561141a5783516001600160e01b03191682529286019260019290920191908601906113f0565b5097850197955050509082019060010161138b565b50506001600160a01b038a1690880152868103604088015261145181896112ec565b9a9950505050505050505050565b60208152600061123960208301846112ec565b602080825260059082015264131250914d60da1b604082015260600190565b6020808252600590820152644c4942453560d81b604082015260600190565b6040516060810167ffffffffffffffff811182821017156114d3576114d3611742565b60405290565b604051601f8201601f1916810167ffffffffffffffff8111828210171561150257611502611742565b604052919050565b600067ffffffffffffffff82111561152457611524611742565b5060051b60200190565b600082198211156115415761154161172c565b500190565b6000828210156115585761155861172c565b500390565b600060ff821660ff8416808210156115775761157761172c565b90039392505050565b600061159361158e8461150a565b6114d9565b838152602080820191908460053688821b830111156115b0578586fd5b855b888110156116b157823567ffffffffffffffff808211156115d1578889fd5b818a019150606082360312156115e5578889fd5b6115ed6114b0565b6115f6836111bc565b81528683013560038110611608578a8bfd5b818801526040838101358381111561161e578b8cfd5b939093019236601f850112611631578a8bfd5b8335925061164161158e8461150a565b83815288810190858a0136868a1b88018c01111561165d578d8efd5b8d96505b858710156116945780356001600160e01b031981168114611680578e8ffd5b835260019690960195918a01918a01611661565b5091830191909152508852505094830194918301916001016115b2565b5092979650505050505050565b60005b838110156116d95781810151838201526020016116c1565b83811115610b6c5750506000910152565b60006000198214156116fe576116fe61172c565b5060010190565b60006001600160601b03808316818114156117225761172261172c565b6001019392505050565b634e487b7160e01b600052601160045260246000fd5b634e487b7160e01b600052604160045260246000fdfea264697066735822122014fd630cc3aa09af87b5fd96bc0da742c0808809f10a8cd147540467b8fb2ebe64736f6c6343000804003360806040523480156200001157600080fd5b5060405162000a6238038062000a6283398101604081905262000034916200021c565b6200003f3362000073565b815162000054906001906020850190620000c3565b5080516200006a906002906020840190620000c3565b505050620002d6565b600080546001600160a01b038381166001600160a01b0319831681178455604051919092169283917f8be0079c531659141344cd1fd0a4f28419497f9722a3daafe3b4186f6b6457e09190a35050565b828054620000d19062000283565b90600052602060002090601f016020900481019282620000f5576000855562000140565b82601f106200011057805160ff191683800117855562000140565b8280016001018555821562000140579182015b828111156200014057825182559160200191906001019062000123565b506200014e92915062000152565b5090565b5b808211156200014e576000815560010162000153565b600082601f8301126200017a578081fd5b81516001600160401b0380821115620001975762000197620002c0565b604051601f8301601f19908116603f01168101908282118183101715620001c257620001c2620002c0565b81604052838152602092508683858801011115620001de578485fd5b8491505b83821015620002015785820183015181830184015290820190620001e2565b838211156200021257848385830101525b9695505050505050565b600080604083850312156200022f578182fd5b82516001600160401b038082111562000246578384fd5b620002548683870162000169565b935060208501519150808211156200026a578283fd5b50620002798582860162000169565b9150509250929050565b600181811c908216806200029857607f821691505b60208210811415620002ba57634e487b7160e01b600052602260045260246000fd5b50919050565b634e487b7160e01b600052604160045260246000fd5b61077c80620002e66000396000f3fe608060405234801561001057600080fd5b506004361061009e5760003560e01c8063715018a611610066578063715018a6146101205780638da5cb5b1461012857806395d89b41146101435780639dc29fac1461014b578063f2fde38b1461015e57600080fd5b806306fdde03146100a357806318160ddd146100c1578063313ce567146100d357806340c10f19146100e257806370a08231146100f7575b600080fd5b6100ab610171565b6040516100b8919061063e565b60405180910390f35b6003545b6040519081526020016100b8565b604051601281526020016100b8565b6100f56100f0366004610615565b610203565b005b6100c56101053660046105f4565b6001600160a01b031660009081526004602052604090205490565b6100f561035d565b6000546040516001600160a01b0390911681526020016100b8565b6100ab610393565b6100f5610159366004610615565b6103a2565b6100f561016c3660046105f4565b6104ed565b606060018054610180906106f5565b80601f01602080910402602001604051908101604052809291908181526020018280546101ac906106f5565b80156101f95780601f106101ce576101008083540402835291602001916101f9565b820191906000526020600020905b8154815290600101906020018083116101dc57829003601f168201915b5050505050905090565b6000546001600160a01b031633146102365760405162461bcd60e51b815260040161022d90610691565b60405180910390fd5b6001600160a01b03821661028c5760405162461bcd60e51b815260206004820152601c60248201527f50543a206d696e7420746f20746865207a65726f206164647265737300000000604482015260640161022d565b600081116102d35760405162461bcd60e51b815260206004820152601460248201527350543a206d696e7420616d6f756e74207a65726f60601b604482015260640161022d565b80600360008282546102e591906106c6565b90915550506001600160a01b038216600090815260046020526040812080548392906103129084906106c6565b90915550506040518181526001600160a01b038316906000907fddf252ad1be2c89b69c2b068fc378daa952ba7f163c4a11628f55a4df523b3ef906020015b60405180910390a35050565b6000546001600160a01b031633146103875760405162461bcd60e51b815260040161022d90610691565b6103916000610588565b565b606060028054610180906106f5565b6000546001600160a01b031633146103cc5760405162461bcd60e51b815260040161022d90610691565b6001600160a01b0382166104225760405162461bcd60e51b815260206004820152601e60248201527f50543a206275726e2066726f6d20746865207a65726f20616464726573730000604482015260640161022d565b600081116104695760405162461bcd60e51b815260206004820152601460248201527350543a206275726e20616d6f756e74207a65726f60601b604482015260640161022d565b6001600160a01b038216600090815260046020526040812080548392906104919084906106de565b9250508190555080600360008282546104aa91906106de565b90915550506040518181526000906001600160a01b038416907fddf252ad1be2c89b69c2b068fc378daa952ba7f163c4a11628f55a4df523b3ef90602001610351565b6000546001600160a01b031633146105175760405162461bcd60e51b815260040161022d90610691565b6001600160a01b03811661057c5760405162461bcd60e51b815260206004820152602660248201527f4f776e61626c653a206e6577206f776e657220697320746865207a65726f206160448201526564647265737360d01b606482015260840161022d565b61058581610588565b50565b600080546001600160a01b038381166001600160a01b0319831681178455604051919092169283917f8be0079c531659141344cd1fd0a4f28419497f9722a3daafe3b4186f6b6457e09190a35050565b80356001600160a01b03811681146105ef57600080fd5b919050565b600060208284031215610605578081fd5b61060e826105d8565b9392505050565b60008060408385031215610627578081fd5b610630836105d8565b946020939093013593505050565b6000602080835283518082850152825b8181101561066a5785810183015185820160400152820161064e565b8181111561067b5783604083870101525b50601f01601f1916929092016040019392505050565b6020808252818101527f4f776e61626c653a2063616c6c6572206973206e6f7420746865206f776e6572604082015260600190565b600082198211156106d9576106d9610730565b500190565b6000828210156106f0576106f0610730565b500390565b600181811c9082168061070957607f821691505b6020821081141561072a57634e487b7160e01b600052602260045260246000fd5b50919050565b634e487b7160e01b600052601160045260246000fdfea2646970667358221220a05d5eaf993bb6c4f79bc68bb7d7152d4965539c97111cb771cef222d03d8c1264736f6c6343000804003362e2821f900c4be3796206df06636dca51d9fa5909ab9d0afe34bd1259d7c3ab",
  "linkReferences": {},
  "deployedLinkReferences": {}
}