{
  "_format": "hh-sol-artifact-1",
  "contractName": "ERC1155CollectionV2",
  "sourceName": "contracts/ERC1155CollectionV2.sol",
  "abi": [
    {
      "inputs": [],
      "name": "InvalidETH",
      "type": "error"
    },
    {
      "inputs": [],
      "name": "InvalidInWhitelist",
      "type": "error"
    },
    {
      "inputs": [],
      "name": "InvalidTreasury",
      "type": "error"
    },
    {
      "inputs": [],
      "name": "MaxMintAmount",
      "type": "error"
    },
    {
      "inputs": [],
      "name": "MaxMintPerUser",
      "type": "error"
    },
    {
      "inputs": [],
      "name": "MaxMintWhitelist",
      "type": "error"
    },
    {
      "inputs": [],
      "name": "NonExistentToken",
      "type": "error"
    },
    {
      "inputs": [],
      "name": "PublicMint",
      "type": "error"
    },
    {
      "inputs": [],
      "name": "WhitelistMint",
      "type": "error"
    },
    {
      "anonymous": false,
      "inputs": [
        {
          "indexed": false,
          "internalType": "uint256",
          "name": "tokenId",
          "type": "uint256"
        },
        {
          "indexed": false,
          "internalType": "string",
          "name": "uri",
          "type": "string"
        },
        {
          "components": [
            {
              "internalType": "bytes32",
              "name": "merkleRoot",
              "type": "bytes32"
            },
            {
              "internalType": "uint256",
              "name": "maxPerUser",
              "type": "uint256"
            },
            {
              "internalType": "uint256",
              "name": "mintAmount",
              "type": "uint256"
            }
          ],
          "indexed": false,
          "internalType": "struct ERC1155CollectionV2.MintInfo",
          "name": "mintInfo",
          "type": "tuple"
        },
        {
          "indexed": false,
          "internalType": "uint256",
          "name": "mintPrice",
          "type": "uint256"
        }
      ],
      "name": "AddCollection",
      "type": "event"
    },
    {
      "anonymous": false,
      "inputs": [
        {
          "indexed": true,
          "internalType": "address",
          "name": "account",
          "type": "address"
        },
        {
          "indexed": true,
          "internalType": "address",
          "name": "operator",
          "type": "address"
        },
        {
          "indexed": false,
          "internalType": "bool",
          "name": "approved",
          "type": "bool"
        }
      ],
      "name": "ApprovalForAll",
      "type": "event"
    },
    {
      "anonymous": false,
      "inputs": [
        {
          "indexed": false,
          "internalType": "uint8",
          "name": "version",
          "type": "uint8"
        }
      ],
      "name": "Initialized",
      "type": "event"
    },
    {
      "anonymous": false,
      "inputs": [
        {
          "indexed": true,
          "internalType": "address",
          "name": "previousOwner",
          "type": "address"
        },
        {
          "indexed": true,
          "internalType": "address",
          "name": "newOwner",
          "type": "address"
        }
      ],
      "name": "OwnershipTransferred",
      "type": "event"
    },
    {
      "anonymous": false,
      "inputs": [
        {
          "indexed": false,
          "internalType": "address",
          "name": "account",
          "type": "address"
        }
      ],
      "name": "Paused",
      "type": "event"
    },
    {
      "anonymous": false,
      "inputs": [
        {
          "components": [
            {
              "internalType": "bytes32",
              "name": "merkleRoot",
              "type": "bytes32"
            },
            {
              "internalType": "uint256",
              "name": "maxPerUser",
              "type": "uint256"
            },
            {
              "internalType": "uint256",
              "name": "mintAmount",
              "type": "uint256"
            }
          ],
          "indexed": false,
          "internalType": "struct ERC1155CollectionV2.MintInfo",
          "name": "mintInfo",
          "type": "tuple"
        },
        {
          "indexed": false,
          "internalType": "uint256",
          "name": "tokenId",
          "type": "uint256"
        }
      ],
      "name": "SetMintInfo",
      "type": "event"
    },
    {
      "anonymous": false,
      "inputs": [
        {
          "indexed": false,
          "internalType": "address",
          "name": "treasury",
          "type": "address"
        }
      ],
      "name": "SetTreasury",
      "type": "event"
    },
    {
      "anonymous": false,
      "inputs": [
        {
          "indexed": true,
          "internalType": "address",
          "name": "operator",
          "type": "address"
        },
        {
          "indexed": true,
          "internalType": "address",
          "name": "from",
          "type": "address"
        },
        {
          "indexed": true,
          "internalType": "address",
          "name": "to",
          "type": "address"
        },
        {
          "indexed": false,
          "internalType": "uint256[]",
          "name": "ids",
          "type": "uint256[]"
        },
        {
          "indexed": false,
          "internalType": "uint256[]",
          "name": "values",
          "type": "uint256[]"
        }
      ],
      "name": "TransferBatch",
      "type": "event"
    },
    {
      "anonymous": false,
      "inputs": [
        {
          "indexed": true,
          "internalType": "address",
          "name": "operator",
          "type": "address"
        },
        {
          "indexed": true,
          "internalType": "address",
          "name": "from",
          "type": "address"
        },
        {
          "indexed": true,
          "internalType": "address",
          "name": "to",
          "type": "address"
        },
        {
          "indexed": false,
          "internalType": "uint256",
          "name": "id",
          "type": "uint256"
        },
        {
          "indexed": false,
          "internalType": "uint256",
          "name": "value",
          "type": "uint256"
        }
      ],
      "name": "TransferSingle",
      "type": "event"
    },
    {
      "anonymous": false,
      "inputs": [
        {
          "indexed": false,
          "internalType": "string",
          "name": "value",
          "type": "string"
        },
        {
          "indexed": true,
          "internalType": "uint256",
          "name": "id",
          "type": "uint256"
        }
      ],
      "name": "URI",
      "type": "event"
    },
    {
      "anonymous": false,
      "inputs": [
        {
          "indexed": false,
          "internalType": "address",
          "name": "account",
          "type": "address"
        }
      ],
      "name": "Unpaused",
      "type": "event"
    },
    {
      "inputs": [
        {
          "internalType": "string",
          "name": "uri_",
          "type": "string"
        },
        {
          "internalType": "bytes32",
          "name": "merkleRoot_",
          "type": "bytes32"
        },
        {
          "internalType": "uint256",
          "name": "maxPerUser_",
          "type": "uint256"
        },
        {
          "internalType": "uint256",
          "name": "mintAmount_",
          "type": "uint256"
        },
        {
          "internalType": "uint256",
          "name": "mintPrice_",
          "type": "uint256"
        }
      ],
      "name": "addCollection",
      "outputs": [],
      "stateMutability": "nonpayable",
      "type": "function"
    },
    {
      "inputs": [
        {
          "internalType": "address",
          "name": "account",
          "type": "address"
        },
        {
          "internalType": "uint256",
          "name": "id",
          "type": "uint256"
        }
      ],
      "name": "balanceOf",
      "outputs": [
        {
          "internalType": "uint256",
          "name": "",
          "type": "uint256"
        }
      ],
      "stateMutability": "view",
      "type": "function"
    },
    {
      "inputs": [
        {
          "internalType": "address[]",
          "name": "accounts",
          "type": "address[]"
        },
        {
          "internalType": "uint256[]",
          "name": "ids",
          "type": "uint256[]"
        }
      ],
      "name": "balanceOfBatch",
      "outputs": [
        {
          "internalType": "uint256[]",
          "name": "",
          "type": "uint256[]"
        }
      ],
      "stateMutability": "view",
      "type": "function"
    },
    {
      "inputs": [
        {
          "internalType": "string",
          "name": "name_",
          "type": "string"
        },
        {
          "internalType": "string",
          "name": "symbol_",
          "type": "string"
        }
      ],
      "name": "initialize",
      "outputs": [],
      "stateMutability": "nonpayable",
      "type": "function"
    },
    {
      "inputs": [
        {
          "internalType": "address",
          "name": "account",
          "type": "address"
        },
        {
          "internalType": "address",
          "name": "operator",
          "type": "address"
        }
      ],
      "name": "isApprovedForAll",
      "outputs": [
        {
          "internalType": "bool",
          "name": "",
          "type": "bool"
        }
      ],
      "stateMutability": "view",
      "type": "function"
    },
    {
      "inputs": [
        {
          "internalType": "address",
          "name": "to_",
          "type": "address"
        },
        {
          "internalType": "uint256[]",
          "name": "tokenIds_",
          "type": "uint256[]"
        },
        {
          "internalType": "uint256[]",
          "name": "quantities_",
          "type": "uint256[]"
        },
        {
          "internalType": "bytes",
          "name": "data_",
          "type": "bytes"
        }
      ],
      "name": "mintBatch",
      "outputs": [],
      "stateMutability": "payable",
      "type": "function"
    },
    {
      "inputs": [
        {
          "internalType": "uint256",
          "name": "tokenId",
          "type": "uint256"
        }
      ],
      "name": "mintInfo",
      "outputs": [
        {
          "components": [
            {
              "internalType": "bytes32",
              "name": "merkleRoot",
              "type": "bytes32"
            },
            {
              "internalType": "uint256",
              "name": "maxPerUser",
              "type": "uint256"
            },
            {
              "internalType": "uint256",
              "name": "mintAmount",
              "type": "uint256"
            }
          ],
          "internalType": "struct ERC1155CollectionV2.MintInfo",
          "name": "",
          "type": "tuple"
        }
      ],
      "stateMutability": "view",
      "type": "function"
    },
    {
      "inputs": [
        {
          "internalType": "uint256",
          "name": "",
          "type": "uint256"
        }
      ],
      "name": "mintPrice",
      "outputs": [
        {
          "internalType": "uint256",
          "name": "",
          "type": "uint256"
        }
      ],
      "stateMutability": "view",
      "type": "function"
    },
    {
      "inputs": [
        {
          "internalType": "address",
          "name": "account",
          "type": "address"
        },
        {
          "internalType": "uint256",
          "name": "tokenId",
          "type": "uint256"
        }
      ],
      "name": "mintedAmountOf",
      "outputs": [
        {
          "internalType": "uint256",
          "name": "",
          "type": "uint256"
        }
      ],
      "stateMutability": "view",
      "type": "function"
    },
    {
      "inputs": [],
      "name": "name",
      "outputs": [
        {
          "internalType": "string",
          "name": "",
          "type": "string"
        }
      ],
      "stateMutability": "view",
      "type": "function"
    },
    {
      "inputs": [],
      "name": "nextTokenId",
      "outputs": [
        {
          "internalType": "uint256",
          "name": "",
          "type": "uint256"
        }
      ],
      "stateMutability": "view",
      "type": "function"
    },
    {
      "inputs": [],
      "name": "owner",
      "outputs": [
        {
          "internalType": "address",
          "name": "",
          "type": "address"
        }
      ],
      "stateMutability": "view",
      "type": "function"
    },
    {
      "inputs": [],
      "name": "pause",
      "outputs": [],
      "stateMutability": "nonpayable",
      "type": "function"
    },
    {
      "inputs": [],
      "name": "paused",
      "outputs": [
        {
          "internalType": "bool",
          "name": "",
          "type": "bool"
        }
      ],
      "stateMutability": "view",
      "type": "function"
    },
    {
      "inputs": [
        {
          "internalType": "address",
          "name": "to_",
          "type": "address"
        },
        {
          "internalType": "uint256",
          "name": "tokenId_",
          "type": "uint256"
        },
        {
          "internalType": "uint256",
          "name": "quantity_",
          "type": "uint256"
        },
        {
          "internalType": "bytes",
          "name": "data_",
          "type": "bytes"
        }
      ],
      "name": "publicMint",
      "outputs": [],
      "stateMutability": "payable",
      "type": "function"
    },
    {
      "inputs": [],
      "name": "renounceOwnership",
      "outputs": [],
      "stateMutability": "nonpayable",
      "type": "function"
    },
    {
      "inputs": [
        {
          "internalType": "address",
          "name": "from",
          "type": "address"
        },
        {
          "internalType": "address",
          "name": "to",
          "type": "address"
        },
        {
          "internalType": "uint256[]",
          "name": "ids",
          "type": "uint256[]"
        },
        {
          "internalType": "uint256[]",
          "name": "amounts",
          "type": "uint256[]"
        },
        {
          "internalType": "bytes",
          "name": "data",
          "type": "bytes"
        }
      ],
      "name": "safeBatchTransferFrom",
      "outputs": [],
      "stateMutability": "nonpayable",
      "type": "function"
    },
    {
      "inputs": [
        {
          "internalType": "address",
          "name": "from",
          "type": "address"
        },
        {
          "internalType": "address",
          "name": "to",
          "type": "address"
        },
        {
          "internalType": "uint256",
          "name": "id",
          "type": "uint256"
        },
        {
          "internalType": "uint256",
          "name": "amount",
          "type": "uint256"
        },
        {
          "internalType": "bytes",
          "name": "data",
          "type": "bytes"
        }
      ],
      "name": "safeTransferFrom",
      "outputs": [],
      "stateMutability": "nonpayable",
      "type": "function"
    },
    {
      "inputs": [
        {
          "internalType": "address",
          "name": "operator",
          "type": "address"
        },
        {
          "internalType": "bool",
          "name": "approved",
          "type": "bool"
        }
      ],
      "name": "setApprovalForAll",
      "outputs": [],
      "stateMutability": "nonpayable",
      "type": "function"
    },
    {
      "inputs": [
        {
          "internalType": "uint256",
          "name": "tokenId_",
          "type": "uint256"
        },
        {
          "internalType": "bytes32",
          "name": "merkleRoot_",
          "type": "bytes32"
        },
        {
          "internalType": "uint256",
          "name": "maxPerUser_",
          "type": "uint256"
        },
        {
          "internalType": "uint256",
          "name": "mintAmount_",
          "type": "uint256"
        },
        {
          "internalType": "uint256",
          "name": "mintPrice_",
          "type": "uint256"
        }
      ],
      "name": "setMintInfo",
      "outputs": [],
      "stateMutability": "nonpayable",
      "type": "function"
    },
    {
      "inputs": [
        {
          "internalType": "address",
          "name": "_treasury",
          "type": "address"
        }
      ],
      "name": "setTreasury",
      "outputs": [],
      "stateMutability": "nonpayable",
      "type": "function"
    },
    {
      "inputs": [
        {
          "internalType": "uint256",
          "name": "tokenId",
          "type": "uint256"
        },
        {
          "internalType": "string",
          "name": "tokenURI",
          "type": "string"
        }
      ],
      "name": "setURI",
      "outputs": [],
      "stateMutability": "nonpayable",
      "type": "function"
    },
    {
      "inputs": [
        {
          "internalType": "bytes4",
          "name": "interfaceId",
          "type": "bytes4"
        }
      ],
      "name": "supportsInterface",
      "outputs": [
        {
          "internalType": "bool",
          "name": "",
          "type": "bool"
        }
      ],
      "stateMutability": "view",
      "type": "function"
    },
    {
      "inputs": [],
      "name": "symbol",
      "outputs": [
        {
          "internalType": "string",
          "name": "",
          "type": "string"
        }
      ],
      "stateMutability": "view",
      "type": "function"
    },
    {
      "inputs": [
        {
          "internalType": "uint256",
          "name": "tokenId",
          "type": "uint256"
        }
      ],
      "name": "totalSupply",
      "outputs": [
        {
          "internalType": "uint256",
          "name": "",
          "type": "uint256"
        }
      ],
      "stateMutability": "view",
      "type": "function"
    },
    {
      "inputs": [
        {
          "internalType": "address",
          "name": "newOwner",
          "type": "address"
        }
      ],
      "name": "transferOwnership",
      "outputs": [],
      "stateMutability": "nonpayable",
      "type": "function"
    },
    {
      "inputs": [],
      "name": "treasury",
      "outputs": [
        {
          "internalType": "address",
          "name": "",
          "type": "address"
        }
      ],
      "stateMutability": "view",
      "type": "function"
    },
    {
      "inputs": [],
      "name": "unpause",
      "outputs": [],
      "stateMutability": "nonpayable",
      "type": "function"
    },
    {
      "inputs": [
        {
          "internalType": "uint256",
          "name": "tokenId",
          "type": "uint256"
        }
      ],
      "name": "uri",
      "outputs": [
        {
          "internalType": "string",
          "name": "",
          "type": "string"
        }
      ],
      "stateMutability": "view",
      "type": "function"
    },
    {
      "inputs": [
        {
          "internalType": "address",
          "name": "to_",
          "type": "address"
        },
        {
          "internalType": "uint256",
          "name": "tokenId_",
          "type": "uint256"
        },
        {
          "internalType": "uint256",
          "name": "quantity_",
          "type": "uint256"
        },
        {
          "internalType": "bytes",
          "name": "data_",
          "type": "bytes"
        },
        {
          "internalType": "uint256",
          "name": "index_",
          "type": "uint256"
        },
        {
          "internalType": "bytes32[]",
          "name": "_proofs",
          "type": "bytes32[]"
        },
        {
          "internalType": "uint256",
          "name": "maxAmount",
          "type": "uint256"
        }
      ],
      "name": "whitelistMint",
      "outputs": [],
      "stateMutability": "payable",
      "type": "function"
    }
  ],
  "bytecode": "0x608060405234801561001057600080fd5b506154d1806100206000396000f3fe6080604052600436106101cc5760003560e01c8063734bf30a116100f7578063bd85b03911610095578063f0f4426011610064578063f0f442601461065e578063f242432a14610687578063f2701787146106b0578063f2fde38b146106d9576101cc565b8063bd85b0391461058b578063d6316d42146105c8578063e6a72acf146105e4578063e985e9c514610621576101cc565b8063862440e2116100d1578063862440e2146104e35780638da5cb5b1461050c57806395d89b4114610537578063a22cb46514610562576101cc565b8063734bf30a1461046457806375794a3c146104a15780638456cb59146104cc576101cc565b80632eb2c2d61161016f5780634e1273f41161013e5780634e1273f4146103ba5780635c975abb146103f757806361d027b314610422578063715018a61461044d576101cc565b80632eb2c2d6146103145780633f4ba83a1461033d578063443aa533146103545780634cd88b7614610391576101cc565b806308184a18116101ab57806308184a18146102765780630e89341c1461029f5780631f7fdffa146102dc578063227dca58146102f8576101cc565b8062fdd58e146101d157806301ffc9a71461020e57806306fdde031461024b575b600080fd5b3480156101dd57600080fd5b506101f860048036038101906101f3919061385b565b610702565b60405161020591906138aa565b60405180910390f35b34801561021a57600080fd5b506102356004803603810190610230919061391d565b6107cc565b6040516102429190613965565b60405180910390f35b34801561025757600080fd5b506102606108ae565b60405161026d9190613a19565b60405180910390f35b34801561028257600080fd5b5061029d60048036038101906102989190613ba6565b61093c565b005b3480156102ab57600080fd5b506102c660048036038101906102c19190613c3d565b610a49565b6040516102d39190613a19565b60405180910390f35b6102f660048036038101906102f19190613dd3565b610b0c565b005b610312600480360381019061030d9190613ee9565b610f13565b005b34801561032057600080fd5b5061033b60048036038101906103369190613fc7565b611365565b005b34801561034957600080fd5b50610352611406565b005b34801561036057600080fd5b5061037b60048036038101906103769190613c3d565b611418565b60405161038891906140f6565b60405180910390f35b34801561039d57600080fd5b506103b860048036038101906103b39190614111565b611464565b005b3480156103c657600080fd5b506103e160048036038101906103dc919061424c565b6115f2565b6040516103ee9190614373565b60405180910390f35b34801561040357600080fd5b5061040c61170b565b6040516104199190613965565b60405180910390f35b34801561042e57600080fd5b50610437611722565b60405161044491906143a4565b60405180910390f35b34801561045957600080fd5b50610462611749565b005b34801561047057600080fd5b5061048b6004803603810190610486919061385b565b61175d565b60405161049891906138aa565b60405180910390f35b3480156104ad57600080fd5b506104b66117b9565b6040516104c391906138aa565b60405180910390f35b3480156104d857600080fd5b506104e16117bf565b005b3480156104ef57600080fd5b5061050a600480360381019061050591906143bf565b6117d1565b005b34801561051857600080fd5b50610521611882565b60405161052e91906143a4565b60405180910390f35b34801561054357600080fd5b5061054c6118ac565b6040516105599190613a19565b60405180910390f35b34801561056e57600080fd5b5061058960048036038101906105849190614447565b61193a565b005b34801561059757600080fd5b506105b260048036038101906105ad9190613c3d565b611950565b6040516105bf91906138aa565b60405180910390f35b6105e260048036038101906105dd9190614487565b61196d565b005b3480156105f057600080fd5b5061060b60048036038101906106069190613c3d565b611d0c565b60405161061891906138aa565b60405180910390f35b34801561062d57600080fd5b506106486004803603810190610643919061450a565b611d25565b6040516106559190613965565b60405180910390f35b34801561066a57600080fd5b506106856004803603810190610680919061454a565b611db9565b005b34801561069357600080fd5b506106ae60048036038101906106a99190614577565b611ea4565b005b3480156106bc57600080fd5b506106d760048036038101906106d2919061460e565b611f45565b005b3480156106e557600080fd5b5061070060048036038101906106fb919061454a565b61203b565b005b60008073ffffffffffffffffffffffffffffffffffffffff168373ffffffffffffffffffffffffffffffffffffffff161415610773576040517f08c379a000000000000000000000000000000000000000000000000000000000815260040161076a906146fb565b60405180910390fd5b6065600083815260200190815260200160002060008473ffffffffffffffffffffffffffffffffffffffff1673ffffffffffffffffffffffffffffffffffffffff16815260200190815260200160002054905092915050565b60007fd9b67a26000000000000000000000000000000000000000000000000000000007bffffffffffffffffffffffffffffffffffffffffffffffffffffffff1916827bffffffffffffffffffffffffffffffffffffffffffffffffffffffff1916148061089757507f0e89341c000000000000000000000000000000000000000000000000000000007bffffffffffffffffffffffffffffffffffffffffffffffffffffffff1916827bffffffffffffffffffffffffffffffffffffffffffffffffffffffff1916145b806108a757506108a6826120bf565b5b9050919050565b60fb80546108bb9061474a565b80601f01602080910402602001604051908101604052809291908181526020018280546108e79061474a565b80156109345780601f1061090957610100808354040283529160200191610934565b820191906000526020600020905b81548152906001019060200180831161091757829003601f168201915b505050505081565b610944612129565b600060fd54905060fd600081548092919061095e906147ab565b91905055508560ff6000838152602001908152602001600020908051906020019061098a9291906136ec565b506040518060600160405280868152602001858152602001848152506101006000838152602001908152602001600020600082015181600001556020820151816001015560408201518160020155905050816101026000838152602001908152602001600020819055507ff8cb56257234ef710cfa8c30218bb947c3dbf3f956508521091acfbbf838067981610a1f83610a49565b610a2884611418565b85604051610a3994939291906147f4565b60405180910390a1505050505050565b6060600060ff60008481526020019081526020016000208054610a6b9061474a565b80601f0160208091040260200160405190810160405280929190818152602001828054610a979061474a565b8015610ae45780601f10610ab957610100808354040283529160200191610ae4565b820191906000526020600020905b815481529060010190602001808311610ac757829003601f168201915b505050505090506000815111610b0257610afd836121a7565b610b04565b805b915050919050565b610b1461223b565b6000805b8451811015610e04576000858281518110610b3657610b35614840565b5b6020026020010151905060fd548110610b7b576040517f9430a17e00000000000000000000000000000000000000000000000000000000815260040160405180910390fd5b6000858381518110610b9057610b8f614840565b5b60200260200101519050600060fe6000848152602001908152602001600020549050610bba611882565b73ffffffffffffffffffffffffffffffffffffffff16610bd8612285565b73ffffffffffffffffffffffffffffffffffffffff1614610dcb576000610102600085815260200190815260200160002054905060008114610c23578086610c20919061486f565b95505b6000610c2e85611418565b90506000801b816000015114610c70576040517fedcbb4a100000000000000000000000000000000000000000000000000000000815260040160405180910390fd5b80604001518484610c81919061486f565b1115610cb9576040517fcaeeffdb00000000000000000000000000000000000000000000000000000000815260040160405180910390fd5b600061010160008781526020019081526020016000206000610cd9612285565b73ffffffffffffffffffffffffffffffffffffffff1673ffffffffffffffffffffffffffffffffffffffff16815260200190815260200160002054905081602001518582610d27919061486f565b1115610d5f576040517f5922110b00000000000000000000000000000000000000000000000000000000815260040160405180910390fd5b8481610d6b919061486f565b61010160008881526020019081526020016000206000610d89612285565b73ffffffffffffffffffffffffffffffffffffffff1673ffffffffffffffffffffffffffffffffffffffff168152602001908152602001600020819055505050505b8181610dd7919061486f565b60fe6000858152602001908152602001600020819055505050508080610dfc906147ab565b915050610b18565b50803414610e3e576040517f9e1708bb00000000000000000000000000000000000000000000000000000000815260040160405180910390fd5b610e4a8585858561228d565b600073ffffffffffffffffffffffffffffffffffffffff1661010360009054906101000a900473ffffffffffffffffffffffffffffffffffffffff1673ffffffffffffffffffffffffffffffffffffffff1614610f0c5761010360009054906101000a900473ffffffffffffffffffffffffffffffffffffffff1673ffffffffffffffffffffffffffffffffffffffff166108fc829081150290604051600060405180830381858888f19350505050158015610f0a573d6000803e3d6000fd5b505b5050505050565b8660fd548110610f4f576040517f9430a17e00000000000000000000000000000000000000000000000000000000815260040160405180910390fd5b610f5761223b565b6000610f6289611418565b90506000801b81600001511415610fa5576040517ffe1881c400000000000000000000000000000000000000000000000000000000815260040160405180910390fd5b600061010260008b815260200190815260200160002054905060008114158015610fcf5750803414155b15611006576040517f9e1708bb00000000000000000000000000000000000000000000000000000000815260040160405180910390fd5b600087611011612285565b866040516020016110249392919061492e565b60405160208183030381529060405280519060200120905061108c878780806020026020016040519081016040528093929190818152602001838360200280828437600081840152601f19601f820116905080830192505050505050508460000151836124bb565b6110c2576040517ff3dbe77400000000000000000000000000000000000000000000000000000000815260040160405180910390fd5b600060fe60008d815260200190815260200160002054905083604001518b826110eb919061486f565b1115611123576040517fcaeeffdb00000000000000000000000000000000000000000000000000000000815260040160405180910390fd5b600061010160008e81526020019081526020016000206000611143612285565b73ffffffffffffffffffffffffffffffffffffffff1673ffffffffffffffffffffffffffffffffffffffff16815260200190815260200160002054905084602001518c82611191919061486f565b11156111c9576040517f5922110b00000000000000000000000000000000000000000000000000000000815260040160405180910390fd5b868c826111d6919061486f565b111561120e576040517fc8d882ff00000000000000000000000000000000000000000000000000000000815260040160405180910390fd5b8b810161010160008f8152602001908152602001600020600061122f612285565b73ffffffffffffffffffffffffffffffffffffffff1673ffffffffffffffffffffffffffffffffffffffff168152602001908152602001600020819055508b820160fe60008f8152602001908152602001600020819055506112938e8e8e8e6124d2565b600073ffffffffffffffffffffffffffffffffffffffff1661010360009054906101000a900473ffffffffffffffffffffffffffffffffffffffff1673ffffffffffffffffffffffffffffffffffffffff16146113555761010360009054906101000a900473ffffffffffffffffffffffffffffffffffffffff1673ffffffffffffffffffffffffffffffffffffffff166108fc349081150290604051600060405180830381858888f19350505050158015611353573d6000803e3d6000fd5b505b5050505050505050505050505050565b61136d612285565b73ffffffffffffffffffffffffffffffffffffffff168573ffffffffffffffffffffffffffffffffffffffff1614806113b357506113b2856113ad612285565b611d25565b5b6113f2576040517f08c379a00000000000000000000000000000000000000000000000000000000081526004016113e9906149dd565b60405180910390fd5b6113ff8585858585612684565b5050505050565b61140e612129565b6114166129a9565b565b611420613772565b610100600083815260200190815260200160002060405180606001604052908160008201548152602001600182015481526020016002820154815250509050919050565b60008060019054906101000a900460ff161590508080156114955750600160008054906101000a900460ff1660ff16105b806114c257506114a430612a0c565b1580156114c15750600160008054906101000a900460ff1660ff16145b5b611501576040517f08c379a00000000000000000000000000000000000000000000000000000000081526004016114f890614a6f565b60405180910390fd5b60016000806101000a81548160ff021916908360ff160217905550801561153e576001600060016101000a81548160ff0219169083151502179055505b8260fb90805190602001906115549291906136ec565b508160fc908051906020019061156b9291906136ec565b50611574612a2f565b61157c612a88565b61159460405180602001604052806000815250612ae1565b80156115ed5760008060016101000a81548160ff0219169083151502179055507f7f26b83ff96e1f2b6a682f133852f6798a09c465da95921460cefb384740249860016040516115e49190614ae1565b60405180910390a15b505050565b60608151835114611638576040517f08c379a000000000000000000000000000000000000000000000000000000000815260040161162f90614b6e565b60405180910390fd5b6000835167ffffffffffffffff81111561165557611654613a45565b5b6040519080825280602002602001820160405280156116835781602001602082028036833780820191505090505b50905060005b8451811015611700576116d08582815181106116a8576116a7614840565b5b60200260200101518583815181106116c3576116c2614840565b5b6020026020010151610702565b8282815181106116e3576116e2614840565b5b602002602001018181525050806116f9906147ab565b9050611689565b508091505092915050565b600060c960009054906101000a900460ff16905090565b61010360009054906101000a900473ffffffffffffffffffffffffffffffffffffffff1681565b611751612129565b61175b6000612b3c565b565b6000610101600083815260200190815260200160002060008473ffffffffffffffffffffffffffffffffffffffff1673ffffffffffffffffffffffffffffffffffffffff16815260200190815260200160002054905092915050565b60fd5481565b6117c7612129565b6117cf612c02565b565b6117d9612129565b8160fd548110611815576040517f9430a17e00000000000000000000000000000000000000000000000000000000815260040160405180910390fd5b8160ff6000858152602001908152602001600020908051906020019061183c9291906136ec565b50827f6bb7ff708619ba0610cba295a58592e0451dee2622938c8755667688daf3529b61186885610a49565b6040516118759190613a19565b60405180910390a2505050565b6000609760009054906101000a900473ffffffffffffffffffffffffffffffffffffffff16905090565b60fc80546118b99061474a565b80601f01602080910402602001604051908101604052809291908181526020018280546118e59061474a565b80156119325780601f1061190757610100808354040283529160200191611932565b820191906000526020600020905b81548152906001019060200180831161191557829003601f168201915b505050505081565b61194c611945612285565b8383612c65565b5050565b600060fe6000838152602001908152602001600020549050919050565b8260fd5481106119a9576040517f9430a17e00000000000000000000000000000000000000000000000000000000815260040160405180910390fd5b6119b161223b565b600060fe60008681526020019081526020016000205490506119d1611882565b73ffffffffffffffffffffffffffffffffffffffff166119ef612285565b73ffffffffffffffffffffffffffffffffffffffff1614611c13576000610102600087815260200190815260200160002054905060008114158015611a345750803414155b15611a6b576040517f9e1708bb00000000000000000000000000000000000000000000000000000000815260040160405180910390fd5b6000611a7687611418565b90506000801b816000015114611ab8576040517fedcbb4a100000000000000000000000000000000000000000000000000000000815260040160405180910390fd5b80604001518684611ac9919061486f565b1115611b01576040517fcaeeffdb00000000000000000000000000000000000000000000000000000000815260040160405180910390fd5b600061010160008981526020019081526020016000206000611b21612285565b73ffffffffffffffffffffffffffffffffffffffff1673ffffffffffffffffffffffffffffffffffffffff16815260200190815260200160002054905081602001518782611b6f919061486f565b1115611ba7576040517f5922110b00000000000000000000000000000000000000000000000000000000815260040160405180910390fd5b8681611bb3919061486f565b61010160008a81526020019081526020016000206000611bd1612285565b73ffffffffffffffffffffffffffffffffffffffff1673ffffffffffffffffffffffffffffffffffffffff168152602001908152602001600020819055505050505b8381611c1f919061486f565b60fe600087815260200190815260200160002081905550611c42868686866124d2565b600073ffffffffffffffffffffffffffffffffffffffff1661010360009054906101000a900473ffffffffffffffffffffffffffffffffffffffff1673ffffffffffffffffffffffffffffffffffffffff1614611d045761010360009054906101000a900473ffffffffffffffffffffffffffffffffffffffff1673ffffffffffffffffffffffffffffffffffffffff166108fc349081150290604051600060405180830381858888f19350505050158015611d02573d6000803e3d6000fd5b505b505050505050565b6101026020528060005260406000206000915090505481565b6000606660008473ffffffffffffffffffffffffffffffffffffffff1673ffffffffffffffffffffffffffffffffffffffff16815260200190815260200160002060008373ffffffffffffffffffffffffffffffffffffffff1673ffffffffffffffffffffffffffffffffffffffff16815260200190815260200160002060009054906101000a900460ff16905092915050565b611dc1612129565b600073ffffffffffffffffffffffffffffffffffffffff168173ffffffffffffffffffffffffffffffffffffffff161415611e28576040517f14bcf5c800000000000000000000000000000000000000000000000000000000815260040160405180910390fd5b8061010360006101000a81548173ffffffffffffffffffffffffffffffffffffffff021916908373ffffffffffffffffffffffffffffffffffffffff1602179055507fcb7ef3e545f5cdb893f5c568ba710fe08f336375a2d9fd66e161033f8fc09ef381604051611e9991906143a4565b60405180910390a150565b611eac612285565b73ffffffffffffffffffffffffffffffffffffffff168573ffffffffffffffffffffffffffffffffffffffff161480611ef25750611ef185611eec612285565b611d25565b5b611f31576040517f08c379a0000000000000000000000000000000000000000000000000000000008152600401611f28906149dd565b60405180910390fd5b611f3e8585858585612dd2565b5050505050565b611f4d612129565b8460fd548110611f89576040517f9430a17e00000000000000000000000000000000000000000000000000000000815260040160405180910390fd5b6040518060600160405280868152602001858152602001848152506101006000888152602001908152602001600020600082015181600001556020820151816001015560408201518160020155905050816101026000888152602001908152602001600020819055507f3ce1046088814cbf2c0fce92f389114dc878d88d6f1e90727ad778decf3bb8d661201c87611418565b8760405161202b929190614b8e565b60405180910390a1505050505050565b612043612129565b600073ffffffffffffffffffffffffffffffffffffffff168173ffffffffffffffffffffffffffffffffffffffff1614156120b3576040517f08c379a00000000000000000000000000000000000000000000000000000000081526004016120aa90614c29565b60405180910390fd5b6120bc81612b3c565b50565b60007f01ffc9a7000000000000000000000000000000000000000000000000000000007bffffffffffffffffffffffffffffffffffffffffffffffffffffffff1916827bffffffffffffffffffffffffffffffffffffffffffffffffffffffff1916149050919050565b612131612285565b73ffffffffffffffffffffffffffffffffffffffff1661214f611882565b73ffffffffffffffffffffffffffffffffffffffff16146121a5576040517f08c379a000000000000000000000000000000000000000000000000000000000815260040161219c90614c95565b60405180910390fd5b565b6060606780546121b69061474a565b80601f01602080910402602001604051908101604052809291908181526020018280546121e29061474a565b801561222f5780601f106122045761010080835404028352916020019161222f565b820191906000526020600020905b81548152906001019060200180831161221257829003601f168201915b50505050509050919050565b61224361170b565b15612283576040517f08c379a000000000000000000000000000000000000000000000000000000000815260040161227a90614d01565b60405180910390fd5b565b600033905090565b600073ffffffffffffffffffffffffffffffffffffffff168473ffffffffffffffffffffffffffffffffffffffff1614156122fd576040517f08c379a00000000000000000000000000000000000000000000000000000000081526004016122f490614d93565b60405180910390fd5b8151835114612341576040517f08c379a000000000000000000000000000000000000000000000000000000000815260040161233890614e25565b60405180910390fd5b600061234b612285565b905061235c81600087878787613071565b60005b84518110156124165783818151811061237b5761237a614840565b5b60200260200101516065600087848151811061239a57612399614840565b5b6020026020010151815260200190815260200160002060008873ffffffffffffffffffffffffffffffffffffffff1673ffffffffffffffffffffffffffffffffffffffff16815260200190815260200160002060008282546123fc919061486f565b92505081905550808061240e906147ab565b91505061235f565b508473ffffffffffffffffffffffffffffffffffffffff16600073ffffffffffffffffffffffffffffffffffffffff168273ffffffffffffffffffffffffffffffffffffffff167f4a39dc06d4c0dbc64b70af90fd698a233a518aa5d07e595d983b8c0526c8f7fb878760405161248e929190614e45565b60405180910390a46124a581600087878787613079565b6124b481600087878787613081565b5050505050565b6000826124c88584613268565b1490509392505050565b600073ffffffffffffffffffffffffffffffffffffffff168473ffffffffffffffffffffffffffffffffffffffff161415612542576040517f08c379a000000000000000000000000000000000000000000000000000000000815260040161253990614d93565b60405180910390fd5b600061254c612285565b90506000612559856132be565b90506000612566856132be565b905061257783600089858589613071565b846065600088815260200190815260200160002060008973ffffffffffffffffffffffffffffffffffffffff1673ffffffffffffffffffffffffffffffffffffffff16815260200190815260200160002060008282546125d7919061486f565b925050819055508673ffffffffffffffffffffffffffffffffffffffff16600073ffffffffffffffffffffffffffffffffffffffff168473ffffffffffffffffffffffffffffffffffffffff167fc3d58168c5ae7397731d063d5bbf3d657854427343f4c083240f7aacaa2d0f628989604051612655929190614e7c565b60405180910390a461266c83600089858589613079565b61267b83600089898989613338565b50505050505050565b81518351146126c8576040517f08c379a00000000000000000000000000000000000000000000000000000000081526004016126bf90614e25565b60405180910390fd5b600073ffffffffffffffffffffffffffffffffffffffff168473ffffffffffffffffffffffffffffffffffffffff161415612738576040517f08c379a000000000000000000000000000000000000000000000000000000000815260040161272f90614f17565b60405180910390fd5b6000612742612285565b9050612752818787878787613071565b60005b845181101561290657600085828151811061277357612772614840565b5b60200260200101519050600085838151811061279257612791614840565b5b6020026020010151905060006065600084815260200190815260200160002060008b73ffffffffffffffffffffffffffffffffffffffff1673ffffffffffffffffffffffffffffffffffffffff16815260200190815260200160002054905081811015612834576040517f08c379a000000000000000000000000000000000000000000000000000000000815260040161282b90614fa9565b60405180910390fd5b8181036065600085815260200190815260200160002060008c73ffffffffffffffffffffffffffffffffffffffff1673ffffffffffffffffffffffffffffffffffffffff16815260200190815260200160002081905550816065600085815260200190815260200160002060008b73ffffffffffffffffffffffffffffffffffffffff1673ffffffffffffffffffffffffffffffffffffffff16815260200190815260200160002060008282546128eb919061486f565b92505081905550505050806128ff906147ab565b9050612755565b508473ffffffffffffffffffffffffffffffffffffffff168673ffffffffffffffffffffffffffffffffffffffff168273ffffffffffffffffffffffffffffffffffffffff167f4a39dc06d4c0dbc64b70af90fd698a233a518aa5d07e595d983b8c0526c8f7fb878760405161297d929190614e45565b60405180910390a4612993818787878787613079565b6129a1818787878787613081565b505050505050565b6129b161351f565b600060c960006101000a81548160ff0219169083151502179055507f5db9ee0a495bf2e6ff9c91a7834c1ba4fdd244a5e8aa4e537bd38aeae4b073aa6129f5612285565b604051612a0291906143a4565b60405180910390a1565b6000808273ffffffffffffffffffffffffffffffffffffffff163b119050919050565b600060019054906101000a900460ff16612a7e576040517f08c379a0000000000000000000000000000000000000000000000000000000008152600401612a759061503b565b60405180910390fd5b612a86613568565b565b600060019054906101000a900460ff16612ad7576040517f08c379a0000000000000000000000000000000000000000000000000000000008152600401612ace9061503b565b60405180910390fd5b612adf6135c9565b565b600060019054906101000a900460ff16612b30576040517f08c379a0000000000000000000000000000000000000000000000000000000008152600401612b279061503b565b60405180910390fd5b612b3981613635565b50565b6000609760009054906101000a900473ffffffffffffffffffffffffffffffffffffffff16905081609760006101000a81548173ffffffffffffffffffffffffffffffffffffffff021916908373ffffffffffffffffffffffffffffffffffffffff1602179055508173ffffffffffffffffffffffffffffffffffffffff168173ffffffffffffffffffffffffffffffffffffffff167f8be0079c531659141344cd1fd0a4f28419497f9722a3daafe3b4186f6b6457e060405160405180910390a35050565b612c0a61223b565b600160c960006101000a81548160ff0219169083151502179055507f62e78cea01bee320cd4e420270b5ea74000d11b0c9f74754ebdbfc544b05a258612c4e612285565b604051612c5b91906143a4565b60405180910390a1565b8173ffffffffffffffffffffffffffffffffffffffff168373ffffffffffffffffffffffffffffffffffffffff161415612cd4576040517f08c379a0000000000000000000000000000000000000000000000000000000008152600401612ccb906150cd565b60405180910390fd5b80606660008573ffffffffffffffffffffffffffffffffffffffff1673ffffffffffffffffffffffffffffffffffffffff16815260200190815260200160002060008473ffffffffffffffffffffffffffffffffffffffff1673ffffffffffffffffffffffffffffffffffffffff16815260200190815260200160002060006101000a81548160ff0219169083151502179055508173ffffffffffffffffffffffffffffffffffffffff168373ffffffffffffffffffffffffffffffffffffffff167f17307eab39ab6107e8899845ad3d59bd9653f200f220920489ca2b5937696c3183604051612dc59190613965565b60405180910390a3505050565b600073ffffffffffffffffffffffffffffffffffffffff168473ffffffffffffffffffffffffffffffffffffffff161415612e42576040517f08c379a0000000000000000000000000000000000000000000000000000000008152600401612e3990614f17565b60405180910390fd5b6000612e4c612285565b90506000612e59856132be565b90506000612e66856132be565b9050612e76838989858589613071565b60006065600088815260200190815260200160002060008a73ffffffffffffffffffffffffffffffffffffffff1673ffffffffffffffffffffffffffffffffffffffff16815260200190815260200160002054905085811015612f0e576040517f08c379a0000000000000000000000000000000000000000000000000000000008152600401612f0590614fa9565b60405180910390fd5b8581036065600089815260200190815260200160002060008b73ffffffffffffffffffffffffffffffffffffffff1673ffffffffffffffffffffffffffffffffffffffff16815260200190815260200160002081905550856065600089815260200190815260200160002060008a73ffffffffffffffffffffffffffffffffffffffff1673ffffffffffffffffffffffffffffffffffffffff1681526020019081526020016000206000828254612fc5919061486f565b925050819055508773ffffffffffffffffffffffffffffffffffffffff168973ffffffffffffffffffffffffffffffffffffffff168573ffffffffffffffffffffffffffffffffffffffff167fc3d58168c5ae7397731d063d5bbf3d657854427343f4c083240f7aacaa2d0f628a8a604051613042929190614e7c565b60405180910390a4613058848a8a86868a613079565b613066848a8a8a8a8a613338565b505050505050505050565b505050505050565b505050505050565b6130a08473ffffffffffffffffffffffffffffffffffffffff16612a0c565b15613260578373ffffffffffffffffffffffffffffffffffffffff1663bc197c8187878686866040518663ffffffff1660e01b81526004016130e6959493929190615142565b602060405180830381600087803b15801561310057600080fd5b505af192505050801561313157506040513d601f19601f8201168201806040525081019061312e91906151bf565b60015b6131d75761313d6151f9565b806308c379a0141561319a575061315261521b565b8061315d575061319c565b806040517f08c379a00000000000000000000000000000000000000000000000000000000081526004016131919190613a19565b60405180910390fd5b505b6040517f08c379a00000000000000000000000000000000000000000000000000000000081526004016131ce90615323565b60405180910390fd5b63bc197c8160e01b7bffffffffffffffffffffffffffffffffffffffffffffffffffffffff1916817bffffffffffffffffffffffffffffffffffffffffffffffffffffffff19161461325e576040517f08c379a0000000000000000000000000000000000000000000000000000000008152600401613255906153b5565b60405180910390fd5b505b505050505050565b60008082905060005b84518110156132b35761329e8286838151811061329157613290614840565b5b6020026020010151613690565b915080806132ab906147ab565b915050613271565b508091505092915050565b60606000600167ffffffffffffffff8111156132dd576132dc613a45565b5b60405190808252806020026020018201604052801561330b5781602001602082028036833780820191505090505b509050828160008151811061332357613322614840565b5b60200260200101818152505080915050919050565b6133578473ffffffffffffffffffffffffffffffffffffffff16612a0c565b15613517578373ffffffffffffffffffffffffffffffffffffffff1663f23a6e6187878686866040518663ffffffff1660e01b815260040161339d9594939291906153d5565b602060405180830381600087803b1580156133b757600080fd5b505af19250505080156133e857506040513d601f19601f820116820180604052508101906133e591906151bf565b60015b61348e576133f46151f9565b806308c379a01415613451575061340961521b565b806134145750613453565b806040517f08c379a00000000000000000000000000000000000000000000000000000000081526004016134489190613a19565b60405180910390fd5b505b6040517f08c379a000000000000000000000000000000000000000000000000000000000815260040161348590615323565b60405180910390fd5b63f23a6e6160e01b7bffffffffffffffffffffffffffffffffffffffffffffffffffffffff1916817bffffffffffffffffffffffffffffffffffffffffffffffffffffffff191614613515576040517f08c379a000000000000000000000000000000000000000000000000000000000815260040161350c906153b5565b60405180910390fd5b505b505050505050565b61352761170b565b613566576040517f08c379a000000000000000000000000000000000000000000000000000000000815260040161355d9061547b565b60405180910390fd5b565b600060019054906101000a900460ff166135b7576040517f08c379a00000000000000000000000000000000000000000000000000000000081526004016135ae9061503b565b60405180910390fd5b6135c76135c2612285565b612b3c565b565b600060019054906101000a900460ff16613618576040517f08c379a000000000000000000000000000000000000000000000000000000000815260040161360f9061503b565b60405180910390fd5b600060c960006101000a81548160ff021916908315150217905550565b600060019054906101000a900460ff16613684576040517f08c379a000000000000000000000000000000000000000000000000000000000815260040161367b9061503b565b60405180910390fd5b61368d816136bb565b50565b60008183106136a8576136a382846136d5565b6136b3565b6136b283836136d5565b5b905092915050565b80606790805190602001906136d19291906136ec565b5050565b600082600052816020526040600020905092915050565b8280546136f89061474a565b90600052602060002090601f01602090048101928261371a5760008555613761565b82601f1061373357805160ff1916838001178555613761565b82800160010185558215613761579182015b82811115613760578251825591602001919060010190613745565b5b50905061376e9190613796565b5090565b60405180606001604052806000801916815260200160008152602001600081525090565b5b808211156137af576000816000905550600101613797565b5090565b6000604051905090565b600080fd5b600080fd5b600073ffffffffffffffffffffffffffffffffffffffff82169050919050565b60006137f2826137c7565b9050919050565b613802816137e7565b811461380d57600080fd5b50565b60008135905061381f816137f9565b92915050565b6000819050919050565b61383881613825565b811461384357600080fd5b50565b6000813590506138558161382f565b92915050565b60008060408385031215613872576138716137bd565b5b600061388085828601613810565b925050602061389185828601613846565b9150509250929050565b6138a481613825565b82525050565b60006020820190506138bf600083018461389b565b92915050565b60007fffffffff0000000000000000000000000000000000000000000000000000000082169050919050565b6138fa816138c5565b811461390557600080fd5b50565b600081359050613917816138f1565b92915050565b600060208284031215613933576139326137bd565b5b600061394184828501613908565b91505092915050565b60008115159050919050565b61395f8161394a565b82525050565b600060208201905061397a6000830184613956565b92915050565b600081519050919050565b600082825260208201905092915050565b60005b838110156139ba57808201518184015260208101905061399f565b838111156139c9576000848401525b50505050565b6000601f19601f8301169050919050565b60006139eb82613980565b6139f5818561398b565b9350613a0581856020860161399c565b613a0e816139cf565b840191505092915050565b60006020820190508181036000830152613a3381846139e0565b905092915050565b600080fd5b600080fd5b7f4e487b7100000000000000000000000000000000000000000000000000000000600052604160045260246000fd5b613a7d826139cf565b810181811067ffffffffffffffff82111715613a9c57613a9b613a45565b5b80604052505050565b6000613aaf6137b3565b9050613abb8282613a74565b919050565b600067ffffffffffffffff821115613adb57613ada613a45565b5b613ae4826139cf565b9050602081019050919050565b82818337600083830152505050565b6000613b13613b0e84613ac0565b613aa5565b905082815260208101848484011115613b2f57613b2e613a40565b5b613b3a848285613af1565b509392505050565b600082601f830112613b5757613b56613a3b565b5b8135613b67848260208601613b00565b91505092915050565b6000819050919050565b613b8381613b70565b8114613b8e57600080fd5b50565b600081359050613ba081613b7a565b92915050565b600080600080600060a08688031215613bc257613bc16137bd565b5b600086013567ffffffffffffffff811115613be057613bdf6137c2565b5b613bec88828901613b42565b9550506020613bfd88828901613b91565b9450506040613c0e88828901613846565b9350506060613c1f88828901613846565b9250506080613c3088828901613846565b9150509295509295909350565b600060208284031215613c5357613c526137bd565b5b6000613c6184828501613846565b91505092915050565b600067ffffffffffffffff821115613c8557613c84613a45565b5b602082029050602081019050919050565b600080fd5b6000613cae613ca984613c6a565b613aa5565b90508083825260208201905060208402830185811115613cd157613cd0613c96565b5b835b81811015613cfa5780613ce68882613846565b845260208401935050602081019050613cd3565b5050509392505050565b600082601f830112613d1957613d18613a3b565b5b8135613d29848260208601613c9b565b91505092915050565b600067ffffffffffffffff821115613d4d57613d4c613a45565b5b613d56826139cf565b9050602081019050919050565b6000613d76613d7184613d32565b613aa5565b905082815260208101848484011115613d9257613d91613a40565b5b613d9d848285613af1565b509392505050565b600082601f830112613dba57613db9613a3b565b5b8135613dca848260208601613d63565b91505092915050565b60008060008060808587031215613ded57613dec6137bd565b5b6000613dfb87828801613810565b945050602085013567ffffffffffffffff811115613e1c57613e1b6137c2565b5b613e2887828801613d04565b935050604085013567ffffffffffffffff811115613e4957613e486137c2565b5b613e5587828801613d04565b925050606085013567ffffffffffffffff811115613e7657613e756137c2565b5b613e8287828801613da5565b91505092959194509250565b600080fd5b60008083601f840112613ea957613ea8613a3b565b5b8235905067ffffffffffffffff811115613ec657613ec5613e8e565b5b602083019150836020820283011115613ee257613ee1613c96565b5b9250929050565b60008060008060008060008060e0898b031215613f0957613f086137bd565b5b6000613f178b828c01613810565b9850506020613f288b828c01613846565b9750506040613f398b828c01613846565b965050606089013567ffffffffffffffff811115613f5a57613f596137c2565b5b613f668b828c01613da5565b9550506080613f778b828c01613846565b94505060a089013567ffffffffffffffff811115613f9857613f976137c2565b5b613fa48b828c01613e93565b935093505060c0613fb78b828c01613846565b9150509295985092959890939650565b600080600080600060a08688031215613fe357613fe26137bd565b5b6000613ff188828901613810565b955050602061400288828901613810565b945050604086013567ffffffffffffffff811115614023576140226137c2565b5b61402f88828901613d04565b935050606086013567ffffffffffffffff8111156140505761404f6137c2565b5b61405c88828901613d04565b925050608086013567ffffffffffffffff81111561407d5761407c6137c2565b5b61408988828901613da5565b9150509295509295909350565b61409f81613b70565b82525050565b6140ae81613825565b82525050565b6060820160008201516140ca6000850182614096565b5060208201516140dd60208501826140a5565b5060408201516140f060408501826140a5565b50505050565b600060608201905061410b60008301846140b4565b92915050565b60008060408385031215614128576141276137bd565b5b600083013567ffffffffffffffff811115614146576141456137c2565b5b61415285828601613b42565b925050602083013567ffffffffffffffff811115614173576141726137c2565b5b61417f85828601613b42565b9150509250929050565b600067ffffffffffffffff8211156141a4576141a3613a45565b5b602082029050602081019050919050565b60006141c86141c384614189565b613aa5565b905080838252602082019050602084028301858111156141eb576141ea613c96565b5b835b8181101561421457806142008882613810565b8452602084019350506020810190506141ed565b5050509392505050565b600082601f83011261423357614232613a3b565b5b81356142438482602086016141b5565b91505092915050565b60008060408385031215614263576142626137bd565b5b600083013567ffffffffffffffff811115614281576142806137c2565b5b61428d8582860161421e565b925050602083013567ffffffffffffffff8111156142ae576142ad6137c2565b5b6142ba85828601613d04565b9150509250929050565b600081519050919050565b600082825260208201905092915050565b6000819050602082019050919050565b60006142fc83836140a5565b60208301905092915050565b6000602082019050919050565b6000614320826142c4565b61432a81856142cf565b9350614335836142e0565b8060005b8381101561436657815161434d88826142f0565b975061435883614308565b925050600181019050614339565b5085935050505092915050565b6000602082019050818103600083015261438d8184614315565b905092915050565b61439e816137e7565b82525050565b60006020820190506143b96000830184614395565b92915050565b600080604083850312156143d6576143d56137bd565b5b60006143e485828601613846565b925050602083013567ffffffffffffffff811115614405576144046137c2565b5b61441185828601613b42565b9150509250929050565b6144248161394a565b811461442f57600080fd5b50565b6000813590506144418161441b565b92915050565b6000806040838503121561445e5761445d6137bd565b5b600061446c85828601613810565b925050602061447d85828601614432565b9150509250929050565b600080600080608085870312156144a1576144a06137bd565b5b60006144af87828801613810565b94505060206144c087828801613846565b93505060406144d187828801613846565b925050606085013567ffffffffffffffff8111156144f2576144f16137c2565b5b6144fe87828801613da5565b91505092959194509250565b60008060408385031215614521576145206137bd565b5b600061452f85828601613810565b925050602061454085828601613810565b9150509250929050565b6000602082840312156145605761455f6137bd565b5b600061456e84828501613810565b91505092915050565b600080600080600060a08688031215614593576145926137bd565b5b60006145a188828901613810565b95505060206145b288828901613810565b94505060406145c388828901613846565b93505060606145d488828901613846565b925050608086013567ffffffffffffffff8111156145f5576145f46137c2565b5b61460188828901613da5565b9150509295509295909350565b600080600080600060a0868803121561462a576146296137bd565b5b600061463888828901613846565b955050602061464988828901613b91565b945050604061465a88828901613846565b935050606061466b88828901613846565b925050608061467c88828901613846565b9150509295509295909350565b7f455243313135353a2061646472657373207a65726f206973206e6f742061207660008201527f616c6964206f776e657200000000000000000000000000000000000000000000602082015250565b60006146e5602a8361398b565b91506146f082614689565b604082019050919050565b60006020820190508181036000830152614714816146d8565b9050919050565b7f4e487b7100000000000000000000000000000000000000000000000000000000600052602260045260246000fd5b6000600282049050600182168061476257607f821691505b602082108114156147765761477561471b565b5b50919050565b7f4e487b7100000000000000000000000000000000000000000000000000000000600052601160045260246000fd5b60006147b682613825565b91507fffffffffffffffffffffffffffffffffffffffffffffffffffffffffffffffff8214156147e9576147e861477c565b5b600182019050919050565b600060c082019050614809600083018761389b565b818103602083015261481b81866139e0565b905061482a60408301856140b4565b61483760a083018461389b565b95945050505050565b7f4e487b7100000000000000000000000000000000000000000000000000000000600052603260045260246000fd5b600061487a82613825565b915061488583613825565b9250827fffffffffffffffffffffffffffffffffffffffffffffffffffffffffffffffff038211156148ba576148b961477c565b5b828201905092915050565b6000819050919050565b6148e06148db82613825565b6148c5565b82525050565b60008160601b9050919050565b60006148fe826148e6565b9050919050565b6000614910826148f3565b9050919050565b614928614923826137e7565b614905565b82525050565b600061493a82866148cf565b60208201915061494a8285614917565b60148201915061495a82846148cf565b602082019150819050949350505050565b7f455243313135353a2063616c6c6572206973206e6f7420746f6b656e206f776e60008201527f6572206e6f7220617070726f7665640000000000000000000000000000000000602082015250565b60006149c7602f8361398b565b91506149d28261496b565b604082019050919050565b600060208201905081810360008301526149f6816149ba565b9050919050565b7f496e697469616c697a61626c653a20636f6e747261637420697320616c72656160008201527f647920696e697469616c697a6564000000000000000000000000000000000000602082015250565b6000614a59602e8361398b565b9150614a64826149fd565b604082019050919050565b60006020820190508181036000830152614a8881614a4c565b9050919050565b6000819050919050565b600060ff82169050919050565b6000819050919050565b6000614acb614ac6614ac184614a8f565b614aa6565b614a99565b9050919050565b614adb81614ab0565b82525050565b6000602082019050614af66000830184614ad2565b92915050565b7f455243313135353a206163636f756e747320616e6420696473206c656e67746860008201527f206d69736d617463680000000000000000000000000000000000000000000000602082015250565b6000614b5860298361398b565b9150614b6382614afc565b604082019050919050565b60006020820190508181036000830152614b8781614b4b565b9050919050565b6000608082019050614ba360008301856140b4565b614bb0606083018461389b565b9392505050565b7f4f776e61626c653a206e6577206f776e657220697320746865207a65726f206160008201527f6464726573730000000000000000000000000000000000000000000000000000602082015250565b6000614c1360268361398b565b9150614c1e82614bb7565b604082019050919050565b60006020820190508181036000830152614c4281614c06565b9050919050565b7f4f776e61626c653a2063616c6c6572206973206e6f7420746865206f776e6572600082015250565b6000614c7f60208361398b565b9150614c8a82614c49565b602082019050919050565b60006020820190508181036000830152614cae81614c72565b9050919050565b7f5061757361626c653a2070617573656400000000000000000000000000000000600082015250565b6000614ceb60108361398b565b9150614cf682614cb5565b602082019050919050565b60006020820190508181036000830152614d1a81614cde565b9050919050565b7f455243313135353a206d696e7420746f20746865207a65726f2061646472657360008201527f7300000000000000000000000000000000000000000000000000000000000000602082015250565b6000614d7d60218361398b565b9150614d8882614d21565b604082019050919050565b60006020820190508181036000830152614dac81614d70565b9050919050565b7f455243313135353a2069647320616e6420616d6f756e7473206c656e6774682060008201527f6d69736d61746368000000000000000000000000000000000000000000000000602082015250565b6000614e0f60288361398b565b9150614e1a82614db3565b604082019050919050565b60006020820190508181036000830152614e3e81614e02565b9050919050565b60006040820190508181036000830152614e5f8185614315565b90508181036020830152614e738184614315565b90509392505050565b6000604082019050614e91600083018561389b565b614e9e602083018461389b565b9392505050565b7f455243313135353a207472616e7366657220746f20746865207a65726f20616460008201527f6472657373000000000000000000000000000000000000000000000000000000602082015250565b6000614f0160258361398b565b9150614f0c82614ea5565b604082019050919050565b60006020820190508181036000830152614f3081614ef4565b9050919050565b7f455243313135353a20696e73756666696369656e742062616c616e636520666f60008201527f72207472616e7366657200000000000000000000000000000000000000000000602082015250565b6000614f93602a8361398b565b9150614f9e82614f37565b604082019050919050565b60006020820190508181036000830152614fc281614f86565b9050919050565b7f496e697469616c697a61626c653a20636f6e7472616374206973206e6f74206960008201527f6e697469616c697a696e67000000000000000000000000000000000000000000602082015250565b6000615025602b8361398b565b915061503082614fc9565b604082019050919050565b6000602082019050818103600083015261505481615018565b9050919050565b7f455243313135353a2073657474696e6720617070726f76616c2073746174757360008201527f20666f722073656c660000000000000000000000000000000000000000000000602082015250565b60006150b760298361398b565b91506150c28261505b565b604082019050919050565b600060208201905081810360008301526150e6816150aa565b9050919050565b600081519050919050565b600082825260208201905092915050565b6000615114826150ed565b61511e81856150f8565b935061512e81856020860161399c565b615137816139cf565b840191505092915050565b600060a0820190506151576000830188614395565b6151646020830187614395565b81810360408301526151768186614315565b9050818103606083015261518a8185614315565b9050818103608083015261519e8184615109565b90509695505050505050565b6000815190506151b9816138f1565b92915050565b6000602082840312156151d5576151d46137bd565b5b60006151e3848285016151aa565b91505092915050565b60008160e01c9050919050565b600060033d11156152185760046000803e6152156000516151ec565b90505b90565b600060443d101561522b576152ae565b6152336137b3565b60043d036004823e80513d602482011167ffffffffffffffff8211171561525b5750506152ae565b808201805167ffffffffffffffff81111561527957505050506152ae565b80602083010160043d0385018111156152965750505050506152ae565b6152a582602001850186613a74565b82955050505050505b90565b7f455243313135353a207472616e7366657220746f206e6f6e204552433131353560008201527f526563656976657220696d706c656d656e746572000000000000000000000000602082015250565b600061530d60348361398b565b9150615318826152b1565b604082019050919050565b6000602082019050818103600083015261533c81615300565b9050919050565b7f455243313135353a204552433131353552656365697665722072656a6563746560008201527f6420746f6b656e73000000000000000000000000000000000000000000000000602082015250565b600061539f60288361398b565b91506153aa82615343565b604082019050919050565b600060208201905081810360008301526153ce81615392565b9050919050565b600060a0820190506153ea6000830188614395565b6153f76020830187614395565b615404604083018661389b565b615411606083018561389b565b81810360808301526154238184615109565b90509695505050505050565b7f5061757361626c653a206e6f7420706175736564000000000000000000000000600082015250565b600061546560148361398b565b91506154708261542f565b602082019050919050565b6000602082019050818103600083015261549481615458565b905091905056fea2646970667358221220a12d92b379742ca36b74745a5efa1a8753b920da5c40e132f61effdbe6a69d2264736f6c63430008090033",
  "linkReferences": {},
  "deployedLinkReferences": {}
}