{
  "_format": "hh-sol-artifact-1",
  "contractName": "ERC20Token",
  "sourceName": "contracts/ERC20TokenDM.sol",
  "abi": [
    {
      "inputs": [
        {
          "internalType": "string",
          "name": "_name",
          "type": "string"
        },
        {
          "internalType": "string",
          "name": "_symbol",
          "type": "string"
        },
        {
          "internalType": "uint8",
          "name": "_decimals",
          "type": "uint8"
        },
        {
          "internalType": "uint256",
          "name": "_initialSupply",
          "type": "uint256"
        }
      ],
      "stateMutability": "nonpayable",
      "type": "constructor"
    },
    {
      "anonymous": false,
      "inputs": [
        {
          "indexed": true,
          "internalType": "address",
          "name": "owner",
          "type": "address"
        },
        {
          "indexed": true,
          "internalType": "address",
          "name": "spender",
          "type": "address"
        },
        {
          "indexed": false,
          "internalType": "uint256",
          "name": "value",
          "type": "uint256"
        }
      ],
      "name": "Approval",
      "type": "event"
    },
    {
      "anonymous": false,
      "inputs": [
        {
          "indexed": true,
          "internalType": "address",
          "name": "previousOwner",
          "type": "address"
        },
        {
          "indexed": true,
          "internalType": "address",
          "name": "newOwner",
          "type": "address"
        }
      ],
      "name": "OwnershipTransferred",
      "type": "event"
    },
    {
      "anonymous": false,
      "inputs": [
        {
          "indexed": false,
          "internalType": "address",
          "name": "account",
          "type": "address"
        }
      ],
      "name": "Paused",
      "type": "event"
    },
    {
      "anonymous": false,
      "inputs": [
        {
          "indexed": true,
          "internalType": "address",
          "name": "fromAcct",
          "type": "address"
        },
        {
          "indexed": false,
          "internalType": "uint256",
          "name": "amount",
          "type": "uint256"
        }
      ],
      "name": "TokenBurnt",
      "type": "event"
    },
    {
      "anonymous": false,
      "inputs": [
        {
          "indexed": true,
          "internalType": "address",
          "name": "toAcct",
          "type": "address"
        },
        {
          "indexed": false,
          "internalType": "uint256",
          "name": "amount",
          "type": "uint256"
        }
      ],
      "name": "TokenMinted",
      "type": "event"
    },
    {
      "anonymous": false,
      "inputs": [
        {
          "indexed": true,
          "internalType": "address",
          "name": "from",
          "type": "address"
        },
        {
          "indexed": true,
          "internalType": "address",
          "name": "to",
          "type": "address"
        },
        {
          "indexed": false,
          "internalType": "uint256",
          "name": "value",
          "type": "uint256"
        }
      ],
      "name": "Transfer",
      "type": "event"
    },
    {
      "anonymous": false,
      "inputs": [
        {
          "indexed": false,
          "internalType": "address",
          "name": "account",
          "type": "address"
        }
      ],
      "name": "Unpaused",
      "type": "event"
    },
    {
      "inputs": [
        {
          "internalType": "address",
          "name": "owner",
          "type": "address"
        },
        {
          "internalType": "address",
          "name": "spender",
          "type": "address"
        }
      ],
      "name": "allowance",
      "outputs": [
        {
          "internalType": "uint256",
          "name": "",
          "type": "uint256"
        }
      ],
      "stateMutability": "view",
      "type": "function"
    },
    {
      "inputs": [
        {
          "internalType": "address",
          "name": "spender",
          "type": "address"
        },
        {
          "internalType": "uint256",
          "name": "amount",
          "type": "uint256"
        }
      ],
      "name": "approve",
      "outputs": [
        {
          "internalType": "bool",
          "name": "",
          "type": "bool"
        }
      ],
      "stateMutability": "nonpayable",
      "type": "function"
    },
    {
      "inputs": [
        {
          "internalType": "address",
          "name": "account",
          "type": "address"
        }
      ],
      "name": "balanceOf",
      "outputs": [
        {
          "internalType": "uint256",
          "name": "",
          "type": "uint256"
        }
      ],
      "stateMutability": "view",
      "type": "function"
    },
    {
      "inputs": [
        {
          "internalType": "uint256",
          "name": "_amount",
          "type": "uint256"
        }
      ],
      "name": "burn",
      "outputs": [
        {
          "internalType": "bool",
          "name": "",
          "type": "bool"
        }
      ],
      "stateMutability": "nonpayable",
      "type": "function"
    },
    {
      "inputs": [],
      "name": "decimals",
      "outputs": [
        {
          "internalType": "uint8",
          "name": "",
          "type": "uint8"
        }
      ],
      "stateMutability": "view",
      "type": "function"
    },
    {
      "inputs": [
        {
          "internalType": "address",
          "name": "spender",
          "type": "address"
        },
        {
          "internalType": "uint256",
          "name": "subtractedValue",
          "type": "uint256"
        }
      ],
      "name": "decreaseAllowance",
      "outputs": [
        {
          "internalType": "bool",
          "name": "",
          "type": "bool"
        }
      ],
      "stateMutability": "nonpayable",
      "type": "function"
    },
    {
      "inputs": [
        {
          "internalType": "address",
          "name": "spender",
          "type": "address"
        },
        {
          "internalType": "uint256",
          "name": "addedValue",
          "type": "uint256"
        }
      ],
      "name": "increaseAllowance",
      "outputs": [
        {
          "internalType": "bool",
          "name": "",
          "type": "bool"
        }
      ],
      "stateMutability": "nonpayable",
      "type": "function"
    },
    {
      "inputs": [
        {
          "internalType": "address",
          "name": "_account",
          "type": "address"
        },
        {
          "internalType": "uint256",
          "name": "_amount",
          "type": "uint256"
        }
      ],
      "name": "mint",
      "outputs": [
        {
          "internalType": "bool",
          "name": "",
          "type": "bool"
        }
      ],
      "stateMutability": "nonpayable",
      "type": "function"
    },
    {
      "inputs": [],
      "name": "name",
      "outputs": [
        {
          "internalType": "string",
          "name": "",
          "type": "string"
        }
      ],
      "stateMutability": "view",
      "type": "function"
    },
    {
      "inputs": [],
      "name": "owner",
      "outputs": [
        {
          "internalType": "address",
          "name": "",
          "type": "address"
        }
      ],
      "stateMutability": "view",
      "type": "function"
    },
    {
      "inputs": [],
      "name": "pause",
      "outputs": [],
      "stateMutability": "nonpayable",
      "type": "function"
    },
    {
      "inputs": [],
      "name": "paused",
      "outputs": [
        {
          "internalType": "bool",
          "name": "",
          "type": "bool"
        }
      ],
      "stateMutability": "view",
      "type": "function"
    },
    {
      "inputs": [],
      "name": "renounceOwnership",
      "outputs": [],
      "stateMutability": "nonpayable",
      "type": "function"
    },
    {
      "inputs": [],
      "name": "symbol",
      "outputs": [
        {
          "internalType": "string",
          "name": "",
          "type": "string"
        }
      ],
      "stateMutability": "view",
      "type": "function"
    },
    {
      "inputs": [],
      "name": "totalSupply",
      "outputs": [
        {
          "internalType": "uint256",
          "name": "",
          "type": "uint256"
        }
      ],
      "stateMutability": "view",
      "type": "function"
    },
    {
      "inputs": [
        {
          "internalType": "address",
          "name": "to",
          "type": "address"
        },
        {
          "internalType": "uint256",
          "name": "amount",
          "type": "uint256"
        }
      ],
      "name": "transfer",
      "outputs": [
        {
          "internalType": "bool",
          "name": "",
          "type": "bool"
        }
      ],
      "stateMutability": "nonpayable",
      "type": "function"
    },
    {
      "inputs": [
        {
          "internalType": "address",
          "name": "from",
          "type": "address"
        },
        {
          "internalType": "address",
          "name": "to",
          "type": "address"
        },
        {
          "internalType": "uint256",
          "name": "amount",
          "type": "uint256"
        }
      ],
      "name": "transferFrom",
      "outputs": [
        {
          "internalType": "bool",
          "name": "",
          "type": "bool"
        }
      ],
      "stateMutability": "nonpayable",
      "type": "function"
    },
    {
      "inputs": [
        {
          "internalType": "address",
          "name": "newOwner",
          "type": "address"
        }
      ],
      "name": "transferOwnership",
      "outputs": [],
      "stateMutability": "nonpayable",
      "type": "function"
    },
    {
      "inputs": [],
      "name": "unpause",
      "outputs": [],
      "stateMutability": "nonpayable",
      "type": "function"
    }
  ],
  "bytecode": "0x60806040523480156200001157600080fd5b506040516200184b3803806200184b833981016040819052620000349162000302565b8351849084906200004d906003906020850190620001cb565b50805162000063906004906020840190620001cb565b505050620000806200007a620000af60201b60201c565b620000b3565b6005805461ffff60a01b1916600160a81b60ff851602179055620000a5338262000105565b505050506200053b565b3390565b600580546001600160a01b038381166001600160a01b0319831681179093556040519116919082907f8be0079c531659141344cd1fd0a4f28419497f9722a3daafe3b4186f6b6457e090600090a35050565b6001600160a01b038216620001375760405162461bcd60e51b81526004016200012e906200039b565b60405180910390fd5b80600260008282546200014b919062000430565b90915550506001600160a01b038216600090815260208190526040812080548392906200017a90849062000430565b90915550506040516001600160a01b038316906000907fddf252ad1be2c89b69c2b068fc378daa952ba7f163c4a11628f55a4df523b3ef90620001bf908590620003d7565b60405180910390a35050565b828054620001d9906200047e565b90600052602060002090601f016020900481019282620001fd576000855562000248565b82601f106200021857805160ff191683800117855562000248565b8280016001018555821562000248579182015b82811115620002485782518255916020019190600101906200022b565b50620002569291506200025a565b5090565b5b808211156200025657600081556001016200025b565b600062000288620002828462000403565b620003e4565b905082815260208101848484011115620002a157600080fd5b620002ae8482856200044b565b509392505050565b600082601f830112620002c857600080fd5b8151620002da84826020860162000271565b949350505050565b8051620002ef8162000520565b92915050565b8051620002ef8162000531565b600080600080608085870312156200031957600080fd5b84516001600160401b038111156200033057600080fd5b6200033e87828801620002b6565b94505060208501516001600160401b038111156200035b57600080fd5b6200036987828801620002b6565b93505060406200037c87828801620002f5565b92505060606200038f87828801620002e2565b91505092959194509250565b60208082528101620002ef81601f81527f45524332303a206d696e7420746f20746865207a65726f206164647265737300602082015260400190565b81815260208101620002ef565b6000620003f060405190565b9050620003fe8282620004af565b919050565b60006001600160401b038211156200041f576200041f6200050a565b601f19601f83011660200192915050565b60008219821115620004465762000446620004de565b500190565b60005b83811015620004685781810151838201526020016200044e565b8381111562000478576000848401525b50505050565b6002810460018216806200049357607f821691505b60208210811415620004a957620004a9620004f4565b50919050565b601f19601f83011681018181106001600160401b0382111715620004d757620004d76200050a565b6040525050565b634e487b7160e01b600052601160045260246000fd5b634e487b7160e01b600052602260045260246000fd5b634e487b7160e01b600052604160045260246000fd5b805b81146200052e57600080fd5b50565b60ff811662000522565b611300806200054b6000396000f3fe608060405234801561001057600080fd5b50600436106101215760003560e01c80635c975abb116100ad57806395d89b411161007157806395d89b4114610249578063a457c2d714610251578063a9059cbb14610264578063dd62ed3e14610277578063f2fde38b146102b057600080fd5b80635c975abb146101e557806370a08231146101f7578063715018a6146102205780638456cb59146102285780638da5cb5b1461023057600080fd5b8063313ce567116100f4578063313ce5671461018857806339509351146101a25780633f4ba83a146101b557806340c10f19146101bf57806342966c68146101d257600080fd5b806306fdde0314610126578063095ea7b31461014457806318160ddd1461016457806323b872dd14610175575b600080fd5b61012e6102c3565b60405161013b91906110c7565b60405180910390f35b610157610152366004610c98565b610355565b60405161013b91906110b9565b6002545b60405161013b91906111cf565b610157610183366004610c4b565b61036f565b600554600160a81b900460ff1660405161013b91906111dd565b6101576101b0366004610c98565b610393565b6101bd6103d2565b005b6101576101cd366004610c98565b610438565b6101576101e0366004610cc8565b610503565b600554600160a01b900460ff16610157565b610168610205366004610beb565b6001600160a01b031660009081526020819052604090205490565b6101bd6105a3565b6101bd6105d7565b6005546001600160a01b031660405161013b91906110ab565b61012e610633565b61015761025f366004610c98565b610642565b610157610272366004610c98565b610696565b610168610285366004610c11565b6001600160a01b03918216600090815260016020908152604080832093909416825291909152205490565b6101bd6102be366004610beb565b6106a4565b6060600380546102d290611257565b80601f01602080910402602001604051908101604052809291908181526020018280546102fe90611257565b801561034b5780601f106103205761010080835404028352916020019161034b565b820191906000526020600020905b81548152906001019060200180831161032e57829003601f168201915b5050505050905090565b600033610363818585610700565b60019150505b92915050565b60003361037d8582856107b4565b610388858585610816565b506001949350505050565b3360008181526001602090815260408083206001600160a01b038716845290915281205490919061036390829086906103cd9087906111eb565b610700565b6005546001600160a01b031633146104055760405162461bcd60e51b81526004016103fc9061115f565b60405180910390fd5b600554600160a01b900460ff1661042e5760405162461bcd60e51b81526004016103fc906110ef565b610436610929565b565b6005546000906001600160a01b031633146104655760405162461bcd60e51b81526004016103fc9061115f565b600554600160a01b900460ff161561048f5760405162461bcd60e51b81526004016103fc9061114f565b600082116104af5760405162461bcd60e51b81526004016103fc9061116f565b6104b98383610999565b826001600160a01b03167fb9144c96c86541f6fa89c9f2f02495cccf4b08cd6643e26d34ee00aa586558a8836040516104f291906111cf565b60405180910390a250600192915050565b600554600090600160a01b900460ff16156105305760405162461bcd60e51b81526004016103fc9061114f565b600082116105505760405162461bcd60e51b81526004016103fc9061116f565b61055a3383610a4d565b336001600160a01b03167f1011952107dd9857c3fc7ee54aaef4f9565140a58923d80c6e15162f7d40a4158360405161059391906111cf565b60405180910390a2506001919050565b6005546001600160a01b031633146105cd5760405162461bcd60e51b81526004016103fc9061115f565b6104366000610b1e565b6005546001600160a01b031633146106015760405162461bcd60e51b81526004016103fc9061115f565b600554600160a01b900460ff161561062b5760405162461bcd60e51b81526004016103fc9061114f565b610436610b70565b6060600480546102d290611257565b3360008181526001602090815260408083206001600160a01b0387168452909152812054909190838110156106895760405162461bcd60e51b81526004016103fc906111af565b6103888286868403610700565b600033610363818585610816565b6005546001600160a01b031633146106ce5760405162461bcd60e51b81526004016103fc9061115f565b6001600160a01b0381166106f45760405162461bcd60e51b81526004016103fc9061110f565b6106fd81610b1e565b50565b6001600160a01b0383166107265760405162461bcd60e51b81526004016103fc9061119f565b6001600160a01b03821661074c5760405162461bcd60e51b81526004016103fc9061111f565b6001600160a01b0380841660008181526001602090815260408083209487168084529490915290819020849055517f8c5be1e5ebec7d5bd14f71427d1e84f3dd0314c0f7b2291e5b200ac8c7c3b925906107a79085906111cf565b60405180910390a3505050565b6001600160a01b03838116600090815260016020908152604080832093861683529290522054600019811461081057818110156108035760405162461bcd60e51b81526004016103fc9061112f565b6108108484848403610700565b50505050565b6001600160a01b03831661083c5760405162461bcd60e51b81526004016103fc9061118f565b6001600160a01b0382166108625760405162461bcd60e51b81526004016103fc906110df565b6001600160a01b0383166000908152602081905260409020548181101561089b5760405162461bcd60e51b81526004016103fc9061113f565b6001600160a01b038085166000908152602081905260408082208585039055918516815290812080548492906108d29084906111eb565b92505081905550826001600160a01b0316846001600160a01b03167fddf252ad1be2c89b69c2b068fc378daa952ba7f163c4a11628f55a4df523b3ef8460405161091c91906111cf565b60405180910390a3610810565b600554600160a01b900460ff166109525760405162461bcd60e51b81526004016103fc906110ef565b6005805460ff60a01b191690557f5db9ee0a495bf2e6ff9c91a7834c1ba4fdd244a5e8aa4e537bd38aeae4b073aa335b60405161098f91906110ab565b60405180910390a1565b6001600160a01b0382166109bf5760405162461bcd60e51b81526004016103fc906111bf565b80600260008282546109d191906111eb565b90915550506001600160a01b038216600090815260208190526040812080548392906109fe9084906111eb565b90915550506040516001600160a01b038316906000907fddf252ad1be2c89b69c2b068fc378daa952ba7f163c4a11628f55a4df523b3ef90610a419085906111cf565b60405180910390a35050565b6001600160a01b038216610a735760405162461bcd60e51b81526004016103fc9061117f565b6001600160a01b03821660009081526020819052604090205481811015610aac5760405162461bcd60e51b81526004016103fc906110ff565b6001600160a01b0383166000908152602081905260408120838303905560028054849290610adb908490611203565b90915550506040516000906001600160a01b038516907fddf252ad1be2c89b69c2b068fc378daa952ba7f163c4a11628f55a4df523b3ef906107a79086906111cf565b600580546001600160a01b038381166001600160a01b0319831681179093556040519116919082907f8be0079c531659141344cd1fd0a4f28419497f9722a3daafe3b4186f6b6457e090600090a35050565b600554600160a01b900460ff1615610b9a5760405162461bcd60e51b81526004016103fc9061114f565b6005805460ff60a01b1916600160a01b1790557f62e78cea01bee320cd4e420270b5ea74000d11b0c9f74754ebdbfc544b05a2586109823390565b8035610369816112b0565b8035610369816112c4565b600060208284031215610bfd57600080fd5b6000610c098484610bd5565b949350505050565b60008060408385031215610c2457600080fd5b6000610c308585610bd5565b9250506020610c4185828601610bd5565b9150509250929050565b600080600060608486031215610c6057600080fd5b6000610c6c8686610bd5565b9350506020610c7d86828701610bd5565b9250506040610c8e86828701610be0565b9150509250925092565b60008060408385031215610cab57600080fd5b6000610cb78585610bd5565b9250506020610c4185828601610be0565b600060208284031215610cda57600080fd5b6000610c098484610be0565b610cef8161121a565b82525050565b801515610cef565b6000610d07825190565b808452602084019350610d1e81856020860161122b565b601f01601f19169290920192915050565b602381526000602082017f45524332303a207472616e7366657220746f20746865207a65726f206164647281526265737360e81b602082015291505b5060400190565b601481526000602082017314185d5cd8589b194e881b9bdd081c185d5cd95960621b815291505b5060200190565b602281526000602082017f45524332303a206275726e20616d6f756e7420657863656564732062616c616e815261636560f01b60208201529150610d6b565b602681526000602082017f4f776e61626c653a206e6577206f776e657220697320746865207a65726f206181526564647265737360d01b60208201529150610d6b565b602281526000602082017f45524332303a20617070726f766520746f20746865207a65726f206164647265815261737360f01b60208201529150610d6b565b601d81526000602082017f45524332303a20696e73756666696369656e7420616c6c6f77616e636500000081529150610d99565b602681526000602082017f45524332303a207472616e7366657220616d6f756e7420657863656564732062815265616c616e636560d01b60208201529150610d6b565b601081526000602082016f14185d5cd8589b194e881c185d5cd95960821b81529150610d99565b60208082527f4f776e61626c653a2063616c6c6572206973206e6f7420746865206f776e657291019081526000610d99565b601781526000602082017f616d6f756e74206d75737420626520706f73697469766500000000000000000081529150610d99565b602181526000602082017f45524332303a206275726e2066726f6d20746865207a65726f206164647265738152607360f81b60208201529150610d6b565b602581526000602082017f45524332303a207472616e736665722066726f6d20746865207a65726f206164815264647265737360d81b60208201529150610d6b565b602481526000602082017f45524332303a20617070726f76652066726f6d20746865207a65726f206164648152637265737360e01b60208201529150610d6b565b602581526000602082017f45524332303a2064656372656173656420616c6c6f77616e63652062656c6f77815264207a65726f60d81b60208201529150610d6b565b601f81526000602082017f45524332303a206d696e7420746f20746865207a65726f20616464726573730081529150610d99565b80610cef565b60ff8116610cef565b602081016103698284610ce6565b602081016103698284610cf5565b602080825281016110d88184610cfd565b9392505050565b6020808252810161036981610d2f565b6020808252810161036981610d72565b6020808252810161036981610da0565b6020808252810161036981610ddf565b6020808252810161036981610e22565b6020808252810161036981610e61565b6020808252810161036981610e95565b6020808252810161036981610ed8565b6020808252810161036981610eff565b6020808252810161036981610f31565b6020808252810161036981610f65565b6020808252810161036981610fa3565b6020808252810161036981610fe5565b6020808252810161036981611026565b6020808252810161036981611068565b60208101610369828461109c565b6020810161036982846110a2565b600082198211156111fe576111fe611284565b500190565b60008282101561121557611215611284565b500390565b60006001600160a01b038216610369565b60005b8381101561124657818101518382015260200161122e565b838111156108105750506000910152565b60028104600182168061126b57607f821691505b6020821081141561127e5761127e61129a565b50919050565b634e487b7160e01b600052601160045260246000fd5b634e487b7160e01b600052602260045260246000fd5b6112b98161121a565b81146106fd57600080fd5b806112b956fea264697066735822122073e3febf67f0a61461f54024c205c8b27e739e47b27058ab3db2bfe243c8ce5964736f6c63430008040033",
  "linkReferences": {},
  "deployedLinkReferences": {}
}