{
  "_format": "hh-sol-artifact-1",
  "contractName": "ProjectToken",
  "sourceName": "contracts/ProjectToken.sol",
  "abi": [
    {
      "inputs": [
        {
          "internalType": "string",
          "name": "_tName",
          "type": "string"
        },
        {
          "internalType": "string",
          "name": "_tSymbol",
          "type": "string"
        }
      ],
      "stateMutability": "nonpayable",
      "type": "constructor"
    },
    {
      "anonymous": false,
      "inputs": [
        {
          "indexed": true,
          "internalType": "address",
          "name": "previousOwner",
          "type": "address"
        },
        {
          "indexed": true,
          "internalType": "address",
          "name": "newOwner",
          "type": "address"
        }
      ],
      "name": "OwnershipTransferred",
      "type": "event"
    },
    {
      "anonymous": false,
      "inputs": [
        {
          "indexed": true,
          "internalType": "address",
          "name": "from",
          "type": "address"
        },
        {
          "indexed": true,
          "internalType": "address",
          "name": "to",
          "type": "address"
        },
        {
          "indexed": false,
          "internalType": "uint256",
          "name": "value",
          "type": "uint256"
        }
      ],
      "name": "Transfer",
      "type": "event"
    },
    {
      "inputs": [
        {
          "internalType": "address",
          "name": "account",
          "type": "address"
        }
      ],
      "name": "balanceOf",
      "outputs": [
        {
          "internalType": "uint256",
          "name": "",
          "type": "uint256"
        }
      ],
      "stateMutability": "view",
      "type": "function"
    },
    {
      "inputs": [
        {
          "internalType": "address",
          "name": "account",
          "type": "address"
        },
        {
          "internalType": "uint256",
          "name": "amount",
          "type": "uint256"
        }
      ],
      "name": "burn",
      "outputs": [],
      "stateMutability": "nonpayable",
      "type": "function"
    },
    {
      "inputs": [],
      "name": "decimals",
      "outputs": [
        {
          "internalType": "uint8",
          "name": "",
          "type": "uint8"
        }
      ],
      "stateMutability": "view",
      "type": "function"
    },
    {
      "inputs": [
        {
          "internalType": "address",
          "name": "to",
          "type": "address"
        },
        {
          "internalType": "uint256",
          "name": "amount",
          "type": "uint256"
        }
      ],
      "name": "mint",
      "outputs": [],
      "stateMutability": "nonpayable",
      "type": "function"
    },
    {
      "inputs": [],
      "name": "name",
      "outputs": [
        {
          "internalType": "string",
          "name": "",
          "type": "string"
        }
      ],
      "stateMutability": "view",
      "type": "function"
    },
    {
      "inputs": [],
      "name": "owner",
      "outputs": [
        {
          "internalType": "address",
          "name": "",
          "type": "address"
        }
      ],
      "stateMutability": "view",
      "type": "function"
    },
    {
      "inputs": [],
      "name": "renounceOwnership",
      "outputs": [],
      "stateMutability": "nonpayable",
      "type": "function"
    },
    {
      "inputs": [],
      "name": "symbol",
      "outputs": [
        {
          "internalType": "string",
          "name": "",
          "type": "string"
        }
      ],
      "stateMutability": "view",
      "type": "function"
    },
    {
      "inputs": [],
      "name": "totalSupply",
      "outputs": [
        {
          "internalType": "uint256",
          "name": "",
          "type": "uint256"
        }
      ],
      "stateMutability": "view",
      "type": "function"
    },
    {
      "inputs": [
        {
          "internalType": "address",
          "name": "newOwner",
          "type": "address"
        }
      ],
      "name": "transferOwnership",
      "outputs": [],
      "stateMutability": "nonpayable",
      "type": "function"
    }
  ],
  "bytecode": "0x60806040523480156200001157600080fd5b5060405162000a6238038062000a6283398101604081905262000034916200021c565b6200003f3362000073565b815162000054906001906020850190620000c3565b5080516200006a906002906020840190620000c3565b505050620002d6565b600080546001600160a01b038381166001600160a01b0319831681178455604051919092169283917f8be0079c531659141344cd1fd0a4f28419497f9722a3daafe3b4186f6b6457e09190a35050565b828054620000d19062000283565b90600052602060002090601f016020900481019282620000f5576000855562000140565b82601f106200011057805160ff191683800117855562000140565b8280016001018555821562000140579182015b828111156200014057825182559160200191906001019062000123565b506200014e92915062000152565b5090565b5b808211156200014e576000815560010162000153565b600082601f8301126200017a578081fd5b81516001600160401b0380821115620001975762000197620002c0565b604051601f8301601f19908116603f01168101908282118183101715620001c257620001c2620002c0565b81604052838152602092508683858801011115620001de578485fd5b8491505b83821015620002015785820183015181830184015290820190620001e2565b838211156200021257848385830101525b9695505050505050565b600080604083850312156200022f578182fd5b82516001600160401b038082111562000246578384fd5b620002548683870162000169565b935060208501519150808211156200026a578283fd5b50620002798582860162000169565b9150509250929050565b600181811c908216806200029857607f821691505b60208210811415620002ba57634e487b7160e01b600052602260045260246000fd5b50919050565b634e487b7160e01b600052604160045260246000fd5b61077c80620002e66000396000f3fe608060405234801561001057600080fd5b506004361061009e5760003560e01c8063715018a611610066578063715018a6146101205780638da5cb5b1461012857806395d89b41146101435780639dc29fac1461014b578063f2fde38b1461015e57600080fd5b806306fdde03146100a357806318160ddd146100c1578063313ce567146100d357806340c10f19146100e257806370a08231146100f7575b600080fd5b6100ab610171565b6040516100b8919061063e565b60405180910390f35b6003545b6040519081526020016100b8565b604051601281526020016100b8565b6100f56100f0366004610615565b610203565b005b6100c56101053660046105f4565b6001600160a01b031660009081526004602052604090205490565b6100f561035d565b6000546040516001600160a01b0390911681526020016100b8565b6100ab610393565b6100f5610159366004610615565b6103a2565b6100f561016c3660046105f4565b6104ed565b606060018054610180906106f5565b80601f01602080910402602001604051908101604052809291908181526020018280546101ac906106f5565b80156101f95780601f106101ce576101008083540402835291602001916101f9565b820191906000526020600020905b8154815290600101906020018083116101dc57829003601f168201915b5050505050905090565b6000546001600160a01b031633146102365760405162461bcd60e51b815260040161022d90610691565b60405180910390fd5b6001600160a01b03821661028c5760405162461bcd60e51b815260206004820152601c60248201527f50543a206d696e7420746f20746865207a65726f206164647265737300000000604482015260640161022d565b600081116102d35760405162461bcd60e51b815260206004820152601460248201527350543a206d696e7420616d6f756e74207a65726f60601b604482015260640161022d565b80600360008282546102e591906106c6565b90915550506001600160a01b038216600090815260046020526040812080548392906103129084906106c6565b90915550506040518181526001600160a01b038316906000907fddf252ad1be2c89b69c2b068fc378daa952ba7f163c4a11628f55a4df523b3ef906020015b60405180910390a35050565b6000546001600160a01b031633146103875760405162461bcd60e51b815260040161022d90610691565b6103916000610588565b565b606060028054610180906106f5565b6000546001600160a01b031633146103cc5760405162461bcd60e51b815260040161022d90610691565b6001600160a01b0382166104225760405162461bcd60e51b815260206004820152601e60248201527f50543a206275726e2066726f6d20746865207a65726f20616464726573730000604482015260640161022d565b600081116104695760405162461bcd60e51b815260206004820152601460248201527350543a206275726e20616d6f756e74207a65726f60601b604482015260640161022d565b6001600160a01b038216600090815260046020526040812080548392906104919084906106de565b9250508190555080600360008282546104aa91906106de565b90915550506040518181526000906001600160a01b038416907fddf252ad1be2c89b69c2b068fc378daa952ba7f163c4a11628f55a4df523b3ef90602001610351565b6000546001600160a01b031633146105175760405162461bcd60e51b815260040161022d90610691565b6001600160a01b03811661057c5760405162461bcd60e51b815260206004820152602660248201527f4f776e61626c653a206e6577206f776e657220697320746865207a65726f206160448201526564647265737360d01b606482015260840161022d565b61058581610588565b50565b600080546001600160a01b038381166001600160a01b0319831681178455604051919092169283917f8be0079c531659141344cd1fd0a4f28419497f9722a3daafe3b4186f6b6457e09190a35050565b80356001600160a01b03811681146105ef57600080fd5b919050565b600060208284031215610605578081fd5b61060e826105d8565b9392505050565b60008060408385031215610627578081fd5b610630836105d8565b946020939093013593505050565b6000602080835283518082850152825b8181101561066a5785810183015185820160400152820161064e565b8181111561067b5783604083870101525b50601f01601f1916929092016040019392505050565b6020808252818101527f4f776e61626c653a2063616c6c6572206973206e6f7420746865206f776e6572604082015260600190565b600082198211156106d9576106d9610730565b500190565b6000828210156106f0576106f0610730565b500390565b600181811c9082168061070957607f821691505b6020821081141561072a57634e487b7160e01b600052602260045260246000fd5b50919050565b634e487b7160e01b600052601160045260246000fdfea2646970667358221220a05d5eaf993bb6c4f79bc68bb7d7152d4965539c97111cb771cef222d03d8c1264736f6c63430008040033",
  "linkReferences": {},
  "deployedLinkReferences": {}
}